{
  "address": "0x445ABfA5FFB48279Db2988bB20e36d64c74F363a",
  "abi": [
    {
      "inputs": [
        {
          "internalType": "address",
          "name": "_want",
          "type": "address"
        },
        {
          "internalType": "address",
          "name": "_vault",
          "type": "address"
        },
        {
          "internalType": "address",
          "name": "_lendingPool",
          "type": "address"
        },
        {
          "internalType": "address",
          "name": "_addressProvider",
          "type": "address"
        },
        {
          "internalType": "uint256",
          "name": "_minHealth",
          "type": "uint256"
        },
        {
          "internalType": "address",
          "name": "_rewards",
          "type": "address"
        }
      ],
      "stateMutability": "nonpayable",
      "type": "constructor"
    },
    {
      "anonymous": false,
      "inputs": [
        {
          "indexed": true,
          "internalType": "address",
          "name": "previousOwner",
          "type": "address"
        },
        {
          "indexed": true,
          "internalType": "address",
          "name": "newOwner",
          "type": "address"
        }
      ],
      "name": "OwnershipTransferred",
      "type": "event"
    },
    {
      "inputs": [],
      "name": "MATIC_REWARDS",
      "outputs": [
        {
          "internalType": "address",
          "name": "",
          "type": "address"
        }
      ],
      "stateMutability": "view",
      "type": "function"
    },
    {
      "inputs": [],
      "name": "MAX_BPS",
      "outputs": [
        {
          "internalType": "uint256",
          "name": "",
          "type": "uint256"
        }
      ],
      "stateMutability": "view",
      "type": "function"
    },
    {
      "inputs": [],
      "name": "aToken",
      "outputs": [
        {
          "internalType": "address",
          "name": "",
          "type": "address"
        }
      ],
      "stateMutability": "view",
      "type": "function"
    },
    {
      "inputs": [],
      "name": "addressProvider",
      "outputs": [
        {
          "internalType": "address",
          "name": "",
          "type": "address"
        }
      ],
      "stateMutability": "view",
      "type": "function"
    },
    {
      "inputs": [],
      "name": "balanceOfWant",
      "outputs": [
        {
          "internalType": "uint256",
          "name": "",
          "type": "uint256"
        }
      ],
      "stateMutability": "view",
      "type": "function"
    },
    {
      "inputs": [],
      "name": "canBorrow",
      "outputs": [
        {
          "internalType": "uint256",
          "name": "",
          "type": "uint256"
        }
      ],
      "stateMutability": "view",
      "type": "function"
    },
    {
      "inputs": [],
      "name": "canRepay",
      "outputs": [
        {
          "internalType": "uint256",
          "name": "",
          "type": "uint256"
        }
      ],
      "stateMutability": "view",
      "type": "function"
    },
    {
      "inputs": [],
      "name": "currentHealthFactor",
      "outputs": [
        {
          "internalType": "uint256",
          "name": "",
          "type": "uint256"
        }
      ],
      "stateMutability": "view",
      "type": "function"
    },
    {
      "inputs": [],
      "name": "debtBelowHealth",
      "outputs": [
        {
          "internalType": "uint256",
          "name": "",
          "type": "uint256"
        }
      ],
      "stateMutability": "view",
      "type": "function"
    },
    {
      "inputs": [],
      "name": "decimals",
      "outputs": [
        {
          "internalType": "uint256",
          "name": "",
          "type": "uint256"
        }
      ],
      "stateMutability": "view",
      "type": "function"
    },
    {
      "inputs": [
        {
          "internalType": "uint256",
          "name": "amount",
          "type": "uint256"
        }
      ],
      "name": "deposit",
      "outputs": [
        {
          "internalType": "uint256",
          "name": "",
          "type": "uint256"
        }
      ],
      "stateMutability": "nonpayable",
      "type": "function"
    },
    {
      "inputs": [],
      "name": "deposited",
      "outputs": [
        {
          "internalType": "uint256",
          "name": "",
          "type": "uint256"
        }
      ],
      "stateMutability": "view",
      "type": "function"
    },
    {
      "inputs": [],
      "name": "divest",
      "outputs": [],
      "stateMutability": "nonpayable",
      "type": "function"
    },
    {
      "inputs": [],
      "name": "feedDecimals",
      "outputs": [
        {
          "internalType": "uint256",
          "name": "",
          "type": "uint256"
        }
      ],
      "stateMutability": "view",
      "type": "function"
    },
    {
      "inputs": [
        {
          "internalType": "uint256",
          "name": "amount",
          "type": "uint256"
        },
        {
          "internalType": "uint256",
          "name": "ratio",
          "type": "uint256"
        }
      ],
      "name": "getMinOutputAmount",
      "outputs": [
        {
          "internalType": "uint256",
          "name": "",
          "type": "uint256"
        }
      ],
      "stateMutability": "view",
      "type": "function"
    },
    {
      "inputs": [],
      "name": "getRewardsAmount",
      "outputs": [
        {
          "internalType": "uint256",
          "name": "",
          "type": "uint256"
        }
      ],
      "stateMutability": "view",
      "type": "function"
    },
    {
      "inputs": [],
      "name": "getTotalValue",
      "outputs": [
        {
          "internalType": "uint256",
          "name": "",
          "type": "uint256"
        }
      ],
      "stateMutability": "view",
      "type": "function"
    },
    {
      "inputs": [
        {
          "internalType": "uint256",
          "name": "cachedRewardToWantRatio",
          "type": "uint256"
        }
      ],
      "name": "harvest",
      "outputs": [],
      "stateMutability": "nonpayable",
      "type": "function"
    },
    {
      "inputs": [],
      "name": "invest",
      "outputs": [],
      "stateMutability": "nonpayable",
      "type": "function"
    },
    {
      "inputs": [],
      "name": "lendingPool",
      "outputs": [
        {
          "internalType": "address",
          "name": "",
          "type": "address"
        }
      ],
      "stateMutability": "view",
      "type": "function"
    },
    {
      "inputs": [],
      "name": "minHealth",
      "outputs": [
        {
          "internalType": "uint256",
          "name": "",
          "type": "uint256"
        }
      ],
      "stateMutability": "view",
      "type": "function"
    },
    {
      "inputs": [],
      "name": "minRebalanceAmount",
      "outputs": [
        {
          "internalType": "uint256",
          "name": "",
          "type": "uint256"
        }
      ],
      "stateMutability": "view",
      "type": "function"
    },
    {
      "inputs": [],
      "name": "owed",
      "outputs": [
        {
          "internalType": "uint256",
          "name": "",
          "type": "uint256"
        }
      ],
      "stateMutability": "view",
      "type": "function"
    },
    {
      "inputs": [],
      "name": "owner",
      "outputs": [
        {
          "internalType": "address",
          "name": "",
          "type": "address"
        }
      ],
      "stateMutability": "view",
      "type": "function"
    },
    {
      "inputs": [],
      "name": "renounceOwnership",
      "outputs": [],
      "stateMutability": "nonpayable",
      "type": "function"
    },
    {
      "inputs": [],
      "name": "repayDebt",
      "outputs": [],
      "stateMutability": "nonpayable",
      "type": "function"
    },
    {
      "inputs": [],
      "name": "rewards",
      "outputs": [
        {
          "internalType": "address",
          "name": "",
          "type": "address"
        }
      ],
      "stateMutability": "view",
      "type": "function"
    },
    {
      "inputs": [],
      "name": "rewardsDecimals",
      "outputs": [
        {
          "internalType": "uint256",
          "name": "",
          "type": "uint256"
        }
      ],
      "stateMutability": "view",
      "type": "function"
    },
    {
      "inputs": [
        {
          "internalType": "uint256",
          "name": "newFeedDecimals",
          "type": "uint256"
        }
      ],
      "name": "setFeedDecimals",
      "outputs": [],
      "stateMutability": "nonpayable",
      "type": "function"
    },
    {
      "inputs": [
        {
          "internalType": "uint256",
          "name": "newRebalanceAmount",
          "type": "uint256"
        }
      ],
      "name": "setRebalanceAmount",
      "outputs": [],
      "stateMutability": "nonpayable",
      "type": "function"
    },
    {
      "inputs": [
        {
          "internalType": "address",
          "name": "newStrategist",
          "type": "address"
        }
      ],
      "name": "setStrategist",
      "outputs": [],
      "stateMutability": "nonpayable",
      "type": "function"
    },
    {
      "inputs": [],
      "name": "shouldDivest",
      "outputs": [
        {
          "internalType": "bool",
          "name": "",
          "type": "bool"
        }
      ],
      "stateMutability": "view",
      "type": "function"
    },
    {
      "inputs": [],
      "name": "shouldInvest",
      "outputs": [
        {
          "internalType": "bool",
          "name": "",
          "type": "bool"
        }
      ],
      "stateMutability": "view",
      "type": "function"
    },
    {
      "inputs": [],
      "name": "stats",
      "outputs": [
        {
          "internalType": "uint256",
          "name": "totalCollateralETH",
          "type": "uint256"
        },
        {
          "internalType": "uint256",
          "name": "totalDebtETH",
          "type": "uint256"
        },
        {
          "internalType": "uint256",
          "name": "availableBorrowsETH",
          "type": "uint256"
        },
        {
          "internalType": "uint256",
          "name": "currentLiquidationThreshold",
          "type": "uint256"
        },
        {
          "internalType": "uint256",
          "name": "ltv",
          "type": "uint256"
        },
        {
          "internalType": "uint256",
          "name": "healthFactor",
          "type": "uint256"
        }
      ],
      "stateMutability": "view",
      "type": "function"
    },
    {
      "inputs": [],
      "name": "strategist",
      "outputs": [
        {
          "internalType": "address",
          "name": "",
          "type": "address"
        }
      ],
      "stateMutability": "view",
      "type": "function"
    },
    {
      "inputs": [
        {
          "internalType": "uint256",
          "name": "amount",
          "type": "uint256"
        },
        {
          "internalType": "uint256",
          "name": "ratio",
          "type": "uint256"
        }
      ],
      "name": "swapRewardsToWant",
      "outputs": [
        {
          "internalType": "uint256",
          "name": "",
          "type": "uint256"
        }
      ],
      "stateMutability": "nonpayable",
      "type": "function"
    },
    {
      "inputs": [],
      "name": "swapRouter",
      "outputs": [
        {
          "internalType": "address",
          "name": "",
          "type": "address"
        }
      ],
      "stateMutability": "view",
      "type": "function"
    },
    {
      "inputs": [
        {
          "internalType": "address",
          "name": "newOwner",
          "type": "address"
        }
      ],
      "name": "transferOwnership",
      "outputs": [],
      "stateMutability": "nonpayable",
      "type": "function"
    },
    {
      "inputs": [],
      "name": "vToken",
      "outputs": [
        {
          "internalType": "address",
          "name": "",
          "type": "address"
        }
      ],
      "stateMutability": "view",
      "type": "function"
    },
    {
      "inputs": [],
      "name": "vault",
      "outputs": [
        {
          "internalType": "address",
          "name": "",
          "type": "address"
        }
      ],
      "stateMutability": "view",
      "type": "function"
    },
    {
      "inputs": [],
      "name": "want",
      "outputs": [
        {
          "internalType": "address",
          "name": "",
          "type": "address"
        }
      ],
      "stateMutability": "view",
      "type": "function"
    },
    {
      "inputs": [
        {
          "internalType": "uint256",
          "name": "amount",
          "type": "uint256"
        }
      ],
      "name": "withdraw",
      "outputs": [
        {
          "internalType": "uint256",
          "name": "",
          "type": "uint256"
        }
      ],
      "stateMutability": "nonpayable",
      "type": "function"
    },
    {
      "inputs": [
        {
          "internalType": "uint256",
          "name": "canRepay",
          "type": "uint256"
        }
      ],
      "name": "withdrawStepFromAAVE",
      "outputs": [],
      "stateMutability": "nonpayable",
      "type": "function"
    }
  ],
  "transactionHash": "0x3cffa8ff587c18c992463996da93f76c77da47be0d31cf8ced2b4a965c74c838",
  "args": [
    "0x1BFD67037B42Cf73acF2047067bd4F2C47D9BfD6",
    "0x404ABc76561De735b3206DD7A6b8FaD83155f673",
    "0x8dff5e27ea6b7ac08ebfdf9eb090f32ee9a30fcf",
    "0xd05e3E715d945B59290df0ae8eF85c1BdB684744",
    "1300000000000000000",
    "0x0d500B1d8E8eF31E21C99d1Db9A6444d3ADf1270"
  ],
  "solcInputHash": "8b812d652e51d282c7b4b392dc96412d",
  "bytecode": "0x6101a0604052600380546001600160a01b031916731b02da8cb0d097eb8d57a175b88c7d8b479975061790556706f05b59d3b2000060045560126006553480156200004957600080fd5b506040516200331538038062003315833981810160405260c08110156200006f57600080fd5b508051602082015160408301516060840151608085015160a09095015193949293919290916000620000a06200045f565b600080546001600160a01b0319166001600160a01b0383169081178255604051929350917f8be0079c531659141344cd1fd0a4f28419497f9722a3daafe3b4186f6b6457e0908290a350600180556001600160601b0319606087811b821660805286811b82166101005285811b82166101205284811b82166101405282901b16610160526040805163313ce56760e01b815290516000916001600160a01b0384169163313ce56791600480820192602092909190829003018186803b1580156200016957600080fd5b505afa1580156200017e573d6000803e3d6000fd5b505050506040513d60208110156200019557600080fd5b505160ff16610180819052604080516321f8a72160e01b81526230783160e81b600482015290519192506000916001600160a01b038716916321f8a721916024808301926020929190829003018186803b158015620001f357600080fd5b505afa15801562000208573d6000803e3d6000fd5b505050506040513d60208110156200021f57600080fd5b5051604080516334924edb60e21b81526001600160a01b038b811660048301529151929350600092839285169163d2493b6c916024808301926060929190829003018186803b1580156200027257600080fd5b505afa15801562000287573d6000803e3d6000fd5b505050506040513d60608110156200029e57600080fd5b5080516040918201516001600160601b0319606083811b821660a05282901b1660c052825163313ce56760e01b8152925191945092506000916001600160a01b038d169163313ce56791600480820192602092909190829003018186803b1580156200030957600080fd5b505afa1580156200031e573d6000803e3d6000fd5b505050506040513d60208110156200033557600080fd5b505160ff1660e081905260028890556040805163095ea7b360e01b81526001600160a01b038c8116600483015260001960248301529151929350908d169163095ea7b3916044808201926020929091908290030181600087803b1580156200039c57600080fd5b505af1158015620003b1573d6000803e3d6000fd5b505050506040513d6020811015620003c857600080fd5b50506040805163095ea7b360e01b81526001600160a01b038c8116600483015260001960248301529151918d169163095ea7b3916044808201926020929091908290030181600087803b1580156200041f57600080fd5b505af115801562000434573d6000803e3d6000fd5b505050506040513d60208110156200044b57600080fd5b50620004639b505050505050505050505050565b3390565b60805160601c60a05160601c60c05160601c60e0516101005160601c6101205160601c6101405160601c6101605160601c61018051612d4a620005cb60003980610a3e5280611139528061118752806111db528061124a525080610f52528061211152806121aa52508061089d5250806105ba52806107eb5280610af65280610cb95280610f9a528061146652806118865280611d3f5280612090528061238452806124ac5280612659528061270c52806127c55250806108cc528061098452806109bb52806110de52806119005280611d10525080610a1a528061115a52806111a852806111fc5280611229525080610f2e52806113c552806116115280611a87525080610f7652806115c35280611a395280611b995250806107ad528061086a528061096252806109ec52806110bc528061128452806118485280612050528061215f52806123b3528061246e528061261252806126cc52806127f45250612d4a6000f3fe608060405234801561001057600080fd5b50600436106102695760003560e01c8063a0c1f15e11610151578063d80528ae116100c3578063eef49ee311610087578063eef49ee3146104ca578063f2fde38b146104d2578063fbfa77cf146104f8578063fc2804c014610500578063fd967f4714610508578063fdbfc9b71461051057610269565b8063d80528ae1461045a578063ddc6326214610495578063e84354c5146104b2578063e8b5e51f146104ba578063eb1386ac146104c257610269565b8063c1a3d44c11610115578063c1a3d44c1461040c578063c23953d014610414578063c31c9c071461041c578063c7b9d53014610424578063c87d67791461044a578063caa648b41461045257610269565b8063a0c1f15e1461039f578063a59a9973146103a7578063a7d347c1146103af578063b6b55f25146103cc578063b8e5dbc4146103e957610269565b8063421715c2116101ea578063715018a6116101ae578063715018a61461035a57806378cc43a8146103625780638da5cb5b1461037f578063929eca5b146103875780639bb1a99c1461038f5780639ec5a8941461039757610269565b8063421715c214610317578063455166a21461031f578063477c736b146103275780634adc9d5b1461034a5780635a01f33d1461035257610269565b80632954018c116102315780632954018c146102c65780632e1a7d4d146102ce578063313ce567146102eb578063326f9169146102f35780633905a3a1146102fb57610269565b8063058aace11461026e57806313639aeb146102785780631b99d9d6146102925780631f1fcd511461029a5780631fe4a686146102be575b600080fd5b61027661052d565b005b6102806105ad565b60408051918252519081900360200190f35b6102766106ed565b6102a2610868565b604080516001600160a01b039092168252519081900360200190f35b6102a261088c565b6102a261089b565b610280600480360360208110156102e457600080fd5b50356108bf565b610280610a18565b610280610a3c565b610303610a60565b604080519115158252519081900360200190f35b610280610ae9565b610280610c03565b6102806004803603604081101561033d57600080fd5b5080359060200135610c09565b6102a2610c94565b610280610cac565b610276610d5e565b6102766004803603602081101561037857600080fd5b5035610e12565b6102a2610e94565b610303610ea3565b6102a2610f2c565b6102a2610f50565b6102a2610f74565b6102a2610f98565b610276600480360360208110156103c557600080fd5b5035610fbc565b610280600480360360208110156103e257600080fd5b5035611037565b610280600480360360408110156103ff57600080fd5b508035906020013561110c565b610280611280565b610280611320565b6102a2611326565b6102766004803603602081101561043a57600080fd5b50356001600160a01b0316611335565b6102806113c1565b610280611430565b61046261145b565b604080519687526020870195909552858501939093526060850191909152608084015260a0830152519081900360c00190f35b610276600480360360208110156104ab57600080fd5b503561152b565b61028061198d565b610276611993565b610280611a11565b610280611b95565b610276600480360360208110156104e857600080fd5b50356001600160a01b0316611c04565b6102a2611d0e565b610280611d32565b610280611e6e565b6102766004803603602081101561052657600080fd5b5035611e74565b610535610e94565b6001600160a01b0316336001600160a01b0316148061055e57506005546001600160a01b031633145b6105a3576040805162461bcd60e51b8152602060048201526011602482015270139bdd081a5b8813585b9859d95b595b9d607a1b604482015290519081900360640190fd5b6105ab611eef565b565b60008060008060008060007f00000000000000000000000000000000000000000000000000000000000000006001600160a01b031663bf92857c306040518263ffffffff1660e01b815260040180826001600160a01b0316815260200191505060c06040518083038186803b15801561062557600080fd5b505afa158015610639573d6000803e3d6000fd5b505050506040513d60c081101561064f57600080fd5b508051602082015160408301516060840151608085015160a090950151600254949b5092995090975095509193509091508110156106df5760006106b96127106106b36002546106b3670de0b6b3a76400006106ad896106ad611b95565b90611ef7565b90611f50565b905060006106cf826106c96113c1565b90611f92565b98506106ea975050505050505050565b600096505050505050505b90565b6106f5610e94565b6001600160a01b0316336001600160a01b0316148061071e57506005546001600160a01b031633145b610763576040805162461bcd60e51b8152602060048201526011602482015270139bdd081a5b8813585b9859d95b595b9d607a1b604482015290519081900360640190fd5b600061076d6105ad565b90506000610779611280565b905060008183101561078b578261078d565b815b90508215610863576040805163573ade8160e01b81526001600160a01b037f000000000000000000000000000000000000000000000000000000000000000081166004830152602482018490526002604483015230606483015291517f00000000000000000000000000000000000000000000000000000000000000009092169163573ade81916084808201926020929091908290030181600087803b15801561083657600080fd5b505af115801561084a573d6000803e3d6000fd5b505050506040513d602081101561086057600080fd5b50505b505050565b7f000000000000000000000000000000000000000000000000000000000000000081565b6005546001600160a01b031681565b7f000000000000000000000000000000000000000000000000000000000000000081565b6000336001600160a01b037f0000000000000000000000000000000000000000000000000000000000000000161461093e576040805162461bcd60e51b815260206004820152601760248201527f4f6e6c79205661756c742063616e205769746864726177000000000000000000604482015290519081900360640190fd5b610946611eef565b61094e611280565b8210156109b6576109a96001600160a01b037f0000000000000000000000000000000000000000000000000000000000000000167f000000000000000000000000000000000000000000000000000000000000000084611fd4565b6109b1612026565b610a13565b610a137f00000000000000000000000000000000000000000000000000000000000000006109e2611280565b6001600160a01b037f0000000000000000000000000000000000000000000000000000000000000000169190611fd4565b919050565b7f000000000000000000000000000000000000000000000000000000000000000081565b7f000000000000000000000000000000000000000000000000000000000000000081565b6000610a6a610e94565b6001600160a01b0316336001600160a01b03161480610a9357506005546001600160a01b031633145b610ad8576040805162461bcd60e51b8152602060048201526011602482015270139bdd081a5b8813585b9859d95b595b9d607a1b604482015290519081900360640190fd5b600454610ae3610ae9565b11905090565b60008060008060008060007f00000000000000000000000000000000000000000000000000000000000000006001600160a01b031663bf92857c306040518263ffffffff1660e01b815260040180826001600160a01b0316815260200191505060c06040518083038186803b158015610b6157600080fd5b505afa158015610b75573d6000803e3d6000fd5b505050506040513d60c0811015610b8b57600080fd5b508051602082015160408301516060840151608085015160a090950151600254949b5092995090975095509193509091508111156106df576000610bf4610bd06113c1565b6106c96127106106b36002546106b3670de0b6b3a76400006106ad8b6106ad611b95565b97506106ea9650505050505050565b60025481565b6000610c13610e94565b6001600160a01b0316336001600160a01b03161480610c3c57506005546001600160a01b031633145b610c81576040805162461bcd60e51b8152602060048201526011602482015270139bdd081a5b8813585b9859d95b595b9d607a1b604482015290519081900360640190fd5b610c8b83836120e9565b90505b92915050565b73357d51124f59836ded84c8a1730d72b749d8bc2381565b60008060008060008060007f00000000000000000000000000000000000000000000000000000000000000006001600160a01b031663bf92857c306040518263ffffffff1660e01b815260040180826001600160a01b0316815260200191505060c06040518083038186803b158015610d2457600080fd5b505afa158015610d38573d6000803e3d6000fd5b505050506040513d60c0811015610d4e57600080fd5b5060a00151965050505050505090565b610d66612378565b6000546001600160a01b03908116911614610dc8576040805162461bcd60e51b815260206004820181905260248201527f4f776e61626c653a2063616c6c6572206973206e6f7420746865206f776e6572604482015290519081900360640190fd5b600080546040516001600160a01b03909116907f8be0079c531659141344cd1fd0a4f28419497f9722a3daafe3b4186f6b6457e0908390a3600080546001600160a01b0319169055565b610e1a610e94565b6001600160a01b0316336001600160a01b03161480610e4357506005546001600160a01b031633145b610e88576040805162461bcd60e51b8152602060048201526011602482015270139bdd081a5b8813585b9859d95b595b9d607a1b604482015290519081900360640190fd5b610e918161237c565b50565b6000546001600160a01b031690565b6000610ead610e94565b6001600160a01b0316336001600160a01b03161480610ed657506005546001600160a01b031633145b610f1b576040805162461bcd60e51b8152602060048201526011602482015270139bdd081a5b8813585b9859d95b595b9d607a1b604482015290519081900360640190fd5b600254610f26610cac565b10905090565b7f000000000000000000000000000000000000000000000000000000000000000081565b7f000000000000000000000000000000000000000000000000000000000000000081565b7f000000000000000000000000000000000000000000000000000000000000000081565b7f000000000000000000000000000000000000000000000000000000000000000081565b610fc4610e94565b6001600160a01b0316336001600160a01b03161480610fed57506005546001600160a01b031633145b611032576040805162461bcd60e51b8152602060048201526011602482015270139bdd081a5b8813585b9859d95b595b9d607a1b604482015290519081900360640190fd5b600655565b6000611041610e94565b6001600160a01b0316336001600160a01b0316148061106a57506005546001600160a01b031633145b6110af576040805162461bcd60e51b8152602060048201526011602482015270139bdd081a5b8813585b9859d95b595b9d607a1b604482015290519081900360640190fd5b6111046001600160a01b037f0000000000000000000000000000000000000000000000000000000000000000167f00000000000000000000000000000000000000000000000000000000000000003085612521565b610a13612026565b60008061113560646106b360636106ad876106b3600654600a0a8b611ef790919063ffffffff16565b90507f00000000000000000000000000000000000000000000000000000000000000007f000000000000000000000000000000000000000000000000000000000000000010156111d9576111d66111cc7f00000000000000000000000000000000000000000000000000000000000000007f0000000000000000000000000000000000000000000000000000000000000000611f92565b8290600a0a611f50565b90505b7f00000000000000000000000000000000000000000000000000000000000000007f00000000000000000000000000000000000000000000000000000000000000001115610c8b5761127861126e7f00000000000000000000000000000000000000000000000000000000000000007f0000000000000000000000000000000000000000000000000000000000000000611f92565b8290600a0a611ef7565b949350505050565b60007f00000000000000000000000000000000000000000000000000000000000000006001600160a01b03166370a08231306040518263ffffffff1660e01b815260040180826001600160a01b0316815260200191505060206040518083038186803b1580156112ef57600080fd5b505afa158015611303573d6000803e3d6000fd5b505050506040513d602081101561131957600080fd5b5051905090565b60065481565b6003546001600160a01b031681565b61133d612378565b6000546001600160a01b0390811691161461139f576040805162461bcd60e51b815260206004820181905260248201527f4f776e61626c653a2063616c6c6572206973206e6f7420746865206f776e6572604482015290519081900360640190fd5b600580546001600160a01b0319166001600160a01b0392909216919091179055565b60007f00000000000000000000000000000000000000000000000000000000000000006001600160a01b03166370a08231306040518263ffffffff1660e01b815260040180826001600160a01b0316815260200191505060206040518083038186803b1580156112ef57600080fd5b600061145661143d6113c1565b6106c9611448611b95565b611450611280565b90612581565b905090565b6000806000806000807f00000000000000000000000000000000000000000000000000000000000000006001600160a01b031663bf92857c306040518263ffffffff1660e01b815260040180826001600160a01b0316815260200191505060c06040518083038186803b1580156114d157600080fd5b505afa1580156114e5573d6000803e3d6000fd5b505050506040513d60c08110156114fb57600080fd5b508051602082015160408301516060840151608085015160a090950151939b929a50909850965091945092509050565b611533610e94565b6001600160a01b0316336001600160a01b0316148061155c57506005546001600160a01b031633145b6115a1576040805162461bcd60e51b8152602060048201526011602482015270139bdd081a5b8813585b9859d95b595b9d607a1b604482015290519081900360640190fd5b60408051600280825260608083018452926020830190803683370190505090507f0000000000000000000000000000000000000000000000000000000000000000816000815181106115ef57fe5b60200260200101906001600160a01b031690816001600160a01b0316815250507f00000000000000000000000000000000000000000000000000000000000000008160018151811061163d57fe5b6001600160a01b03909216602092830291909101820152604080516345accf9360e11b815230602482018190526004820192835284516044830152845160009473357d51124f59836ded84c8a1730d72b749d8bc2394638b599f26948894939192839260649092019186820191028083838c5b838110156116c85781810151838201526020016116b0565b50505050905001935050505060206040518083038186803b1580156116ec57600080fd5b505afa158015611700573d6000803e3d6000fd5b505050506040513d602081101561171657600080fd5b5051604051633111e7b360e01b815260248101829052306044820181905260606004830190815285516064840152855193945073357d51124f59836ded84c8a1730d72b749d8bc2393633111e7b393879387939092909182916084909101906020878101910280838360005b8381101561179a578181015183820152602001611782565b50505050905001945050505050602060405180830381600087803b1580156117c157600080fd5b505af11580156117d5573d6000803e3d6000fd5b505050506040513d60208110156117eb57600080fd5b50600090506117fa82856120e9565b905060006118066105ad565b9050600082821015611818578161181a565b825b905060006118288483611f92565b905082156118fe576040805163573ade8160e01b81526001600160a01b037f000000000000000000000000000000000000000000000000000000000000000081166004830152602482018590526002604483015230606483015291517f00000000000000000000000000000000000000000000000000000000000000009092169163573ade81916084808201926020929091908290030181600087803b1580156118d157600080fd5b505af11580156118e5573d6000803e3d6000fd5b505050506040513d60208110156118fb57600080fd5b50505b7f00000000000000000000000000000000000000000000000000000000000000006001600160a01b031663dc7da299826040518263ffffffff1660e01b815260040180828152602001915050600060405180830381600087803b15801561196457600080fd5b505af1158015611978573d6000803e3d6000fd5b50505050611984612026565b50505050505050565b60045481565b61199b610e94565b6001600160a01b0316336001600160a01b031614806119c457506005546001600160a01b031633145b611a09576040805162461bcd60e51b8152602060048201526011602482015270139bdd081a5b8813585b9859d95b595b9d607a1b604482015290519081900360640190fd5b6105ab6125db565b60408051600280825260608083018452600093909291906020830190803683370190505090507f000000000000000000000000000000000000000000000000000000000000000081600081518110611a6557fe5b60200260200101906001600160a01b031690816001600160a01b0316815250507f000000000000000000000000000000000000000000000000000000000000000081600181518110611ab357fe5b6001600160a01b03909216602092830291909101820152604080516345accf9360e11b815230602482018190526004820192835284516044830152845160009473357d51124f59836ded84c8a1730d72b749d8bc2394638b599f26948894939192839260649092019186820191028083838c5b83811015611b3e578181015183820152602001611b26565b50505050905001935050505060206040518083038186803b158015611b6257600080fd5b505afa158015611b76573d6000803e3d6000fd5b505050506040513d6020811015611b8c57600080fd5b50519250505090565b60007f00000000000000000000000000000000000000000000000000000000000000006001600160a01b03166370a08231306040518263ffffffff1660e01b815260040180826001600160a01b0316815260200191505060206040518083038186803b1580156112ef57600080fd5b611c0c612378565b6000546001600160a01b03908116911614611c6e576040805162461bcd60e51b815260206004820181905260248201527f4f776e61626c653a2063616c6c6572206973206e6f7420746865206f776e6572604482015290519081900360640190fd5b6001600160a01b038116611cb35760405162461bcd60e51b8152600401808060200182810382526026815260200180612c6e6026913960400191505060405180910390fd5b600080546040516001600160a01b03808516939216917f8be0079c531659141344cd1fd0a4f28419497f9722a3daafe3b4186f6b6457e091a3600080546001600160a01b0319166001600160a01b0392909216919091179055565b7f000000000000000000000000000000000000000000000000000000000000000081565b60008060008060008060007f00000000000000000000000000000000000000000000000000000000000000006001600160a01b031663bf92857c306040518263ffffffff1660e01b815260040180826001600160a01b0316815260200191505060c06040518083038186803b158015611daa57600080fd5b505afa158015611dbe573d6000803e3d6000fd5b505050506040513d60c0811015611dd457600080fd5b508051602082015160408301516060840151608085015160a090950151939a509198509650945090925090506000611e0a611b95565b90506000611e166113c1565b905080611e2f57600019985050505050505050506106ea565b6000611e4b611e44876106b385612710611ef7565b8490611f92565b90506000611e5f60646106b384605f611ef7565b9a505050505050505050505090565b61271081565b611e7c610e94565b6001600160a01b0316336001600160a01b03161480611ea557506005546001600160a01b031633145b611eea576040805162461bcd60e51b8152602060048201526011602482015270139bdd081a5b8813585b9859d95b595b9d607a1b604482015290519081900360640190fd5b600455565b6105ab612785565b600082611f0657506000610c8e565b82820282848281611f1357fe5b0414610c8b5760405162461bcd60e51b8152600401808060200182810382526021815260200180612c946021913960400191505060405180910390fd5b6000610c8b83836040518060400160405280601a81526020017f536166654d6174683a206469766973696f6e206279207a65726f00000000000081525061286d565b6000610c8b83836040518060400160405280601e81526020017f536166654d6174683a207375627472616374696f6e206f766572666c6f77000081525061290f565b604080516001600160a01b038416602482015260448082018490528251808303909101815260649091019091526020810180516001600160e01b031663a9059cbb60e01b179052610863908490612969565b6000612030611280565b90508015610e91576040805163e8eda9df60e01b81526001600160a01b037f0000000000000000000000000000000000000000000000000000000000000000811660048301526024820184905230604483015260006064830181905292517f00000000000000000000000000000000000000000000000000000000000000009091169263e8eda9df926084808201939182900301818387803b1580156120d557600080fd5b505af1158015610860573d6000803e3d6000fd5b60408051600280825260608083018452600093909291906020830190803683370190505090507f00000000000000000000000000000000000000000000000000000000000000008160008151811061213d57fe5b60200260200101906001600160a01b031690816001600160a01b0316815250507f00000000000000000000000000000000000000000000000000000000000000008160018151811061218b57fe5b6001600160a01b0392831660209182029290920101526003546121d3917f00000000000000000000000000000000000000000000000000000000000000008116911686612b21565b6003546060906001600160a01b03166338ed1739866121f2818861110c565b8530426040518663ffffffff1660e01b81526004018086815260200185815260200180602001846001600160a01b03168152602001838152602001828103825285818151815260200191508051906020019060200280838360005b8381101561226557818101518382015260200161224d565b505050509050019650505050505050600060405180830381600087803b15801561228e57600080fd5b505af11580156122a2573d6000803e3d6000fd5b505050506040513d6000823e601f3d908101601f1916820160405260208110156122cb57600080fd5b81019080805160405193929190846401000000008211156122eb57600080fd5b90830190602082018581111561230057600080fd5b825186602082028301116401000000008211171561231d57600080fd5b82525081516020918201928201910280838360005b8381101561234a578181015183820152602001612332565b5050505090500160405250505090508060018151811061236657fe5b60200260200101519250505092915050565b3390565b8015610e91577f00000000000000000000000000000000000000000000000000000000000000006001600160a01b03166369328dec7f000000000000000000000000000000000000000000000000000000000000000083306040518463ffffffff1660e01b815260040180846001600160a01b03168152602001838152602001826001600160a01b031681526020019350505050602060405180830381600087803b15801561242a57600080fd5b505af115801561243e573d6000803e3d6000fd5b505050506040513d602081101561245457600080fd5b50506040805163573ade8160e01b81526001600160a01b037f000000000000000000000000000000000000000000000000000000000000000081166004830152602482018490526002604483015230606483015291517f00000000000000000000000000000000000000000000000000000000000000009092169163573ade81916084808201926020929091908290030181600087803b1580156124f757600080fd5b505af115801561250b573d6000803e3d6000fd5b505050506040513d602081101561086357600080fd5b604080516001600160a01b0380861660248301528416604482015260648082018490528251808303909101815260849091019091526020810180516001600160e01b03166323b872dd60e01b17905261257b908590612969565b50505050565b600082820183811015610c8b576040805162461bcd60e51b815260206004820152601b60248201527f536166654d6174683a206164646974696f6e206f766572666c6f770000000000604482015290519081900360640190fd5b600560005b818110156127815760006125f2610ae9565b90508015612770576040805163a415bcad60e01b81526001600160a01b037f000000000000000000000000000000000000000000000000000000000000000081166004830152602482018490526002604483015260006064830181905230608484015292517f00000000000000000000000000000000000000000000000000000000000000009091169263a415bcad9260a4808201939182900301818387803b15801561269e57600080fd5b505af11580156126b2573d6000803e3d6000fd5b50506040805163e8eda9df60e01b81526001600160a01b037f0000000000000000000000000000000000000000000000000000000000000000811660048301526024820186905230604483015260006064830181905292517f0000000000000000000000000000000000000000000000000000000000000000909116945063e8eda9df93506084808301939282900301818387803b15801561275357600080fd5b505af1158015612767573d6000803e3d6000fd5b50505050612778565b5050506105ab565b506001016125e0565b5050565b600061278f611d32565b90505b60001981146127b3576127a48161237c565b6127ac611d32565b9050612792565b60006127bd611b95565b1115610e91577f00000000000000000000000000000000000000000000000000000000000000006001600160a01b03166369328dec7f0000000000000000000000000000000000000000000000000000000000000000600019306040518463ffffffff1660e01b815260040180846001600160a01b03168152602001838152602001826001600160a01b031681526020019350505050602060405180830381600087803b1580156124f757600080fd5b600081836128f95760405162461bcd60e51b81526004018080602001828103825283818151815260200191508051906020019080838360005b838110156128be5781810151838201526020016128a6565b50505050905090810190601f1680156128eb5780820380516001836020036101000a031916815260200191505b509250505060405180910390fd5b50600083858161290557fe5b0495945050505050565b600081848411156129615760405162461bcd60e51b81526020600482018181528351602484015283519092839260449091019190850190808383600083156128be5781810151838201526020016128a6565b505050900390565b61297b826001600160a01b0316612c34565b6129cc576040805162461bcd60e51b815260206004820152601f60248201527f5361666545524332303a2063616c6c20746f206e6f6e2d636f6e747261637400604482015290519081900360640190fd5b60006060836001600160a01b0316836040518082805190602001908083835b60208310612a0a5780518252601f1990920191602091820191016129eb565b6001836020036101000a0380198251168184511680821785525050505050509050019150506000604051808303816000865af19150503d8060008114612a6c576040519150601f19603f3d011682016040523d82523d6000602084013e612a71565b606091505b509150915081612ac8576040805162461bcd60e51b815260206004820181905260248201527f5361666545524332303a206c6f772d6c6576656c2063616c6c206661696c6564604482015290519081900360640190fd5b80511561257b57808060200190516020811015612ae457600080fd5b505161257b5760405162461bcd60e51b815260040180806020018281038252602a815260200180612cb5602a913960400191505060405180910390fd5b801580612ba7575060408051636eb1769f60e11b81523060048201526001600160a01b03848116602483015291519185169163dd62ed3e91604480820192602092909190829003018186803b158015612b7957600080fd5b505afa158015612b8d573d6000803e3d6000fd5b505050506040513d6020811015612ba357600080fd5b5051155b612be25760405162461bcd60e51b8152600401808060200182810382526036815260200180612cdf6036913960400191505060405180910390fd5b604080516001600160a01b038416602482015260448082018490528251808303909101815260649091019091526020810180516001600160e01b031663095ea7b360e01b179052610863908490612969565b6000813f7fc5d2460186f7233c927e7db2dcc703c0e500b653ca82273b7bfad8045d85a47081811480159061127857505015159291505056fe4f776e61626c653a206e6577206f776e657220697320746865207a65726f2061646472657373536166654d6174683a206d756c7469706c69636174696f6e206f766572666c6f775361666545524332303a204552433230206f7065726174696f6e20646964206e6f7420737563636565645361666545524332303a20617070726f76652066726f6d206e6f6e2d7a65726f20746f206e6f6e2d7a65726f20616c6c6f77616e6365a2646970667358221220efcac4cf6a04648f44b123ee38cd07a227ee9f95b9bdab5c854c8a765b92d59b64736f6c63430007050033",
  "devdoc": {
    "kind": "dev",
    "methods": {
      "owner()": {
        "details": "Returns the address of the current owner."
      },
      "renounceOwnership()": {
        "details": "Leaves the contract without owner. It will not be possible to call `onlyOwner` functions anymore. Can only be called by the current owner. NOTE: Renouncing ownership will leave the contract without an owner, thereby removing any functionality that is only available to the owner."
      },
      "transferOwnership(address)": {
        "details": "Transfers ownership of the contract to a new account (`newOwner`). Can only be called by the current owner."
      }
    },
    "version": 1
  },
  "userdoc": {
    "kind": "user",
    "methods": {
      "deposit(uint256)": {
        "notice": "IStrategy "
      },
      "stats()": {
        "notice": "AAVE View Functions *"
      }
    },
    "version": 1
  },
  "storageLayout": {
    "storage": [
      {
        "astId": 6650,
        "contract": "contracts/strats/USDC/AAVEUSDCRewards.sol:AAVEUSDCRewards",
        "label": "_owner",
        "offset": 0,
        "slot": "0",
        "type": "t_address"
      },
      {
        "astId": 6806,
        "contract": "contracts/strats/USDC/AAVEUSDCRewards.sol:AAVEUSDCRewards",
        "label": "_status",
        "offset": 0,
        "slot": "1",
        "type": "t_uint256"
      },
      {
        "astId": 11907,
        "contract": "contracts/strats/USDC/AAVEUSDCRewards.sol:AAVEUSDCRewards",
        "label": "minHealth",
        "offset": 0,
        "slot": "2",
        "type": "t_uint256"
      },
      {
        "astId": 11910,
        "contract": "contracts/strats/USDC/AAVEUSDCRewards.sol:AAVEUSDCRewards",
        "label": "swapRouter",
        "offset": 0,
        "slot": "3",
        "type": "t_address"
      },
      {
        "astId": 11913,
        "contract": "contracts/strats/USDC/AAVEUSDCRewards.sol:AAVEUSDCRewards",
        "label": "minRebalanceAmount",
        "offset": 0,
        "slot": "4",
        "type": "t_uint256"
      },
      {
        "astId": 11915,
        "contract": "contracts/strats/USDC/AAVEUSDCRewards.sol:AAVEUSDCRewards",
        "label": "strategist",
        "offset": 0,
        "slot": "5",
        "type": "t_address"
      },
      {
        "astId": 11918,
        "contract": "contracts/strats/USDC/AAVEUSDCRewards.sol:AAVEUSDCRewards",
        "label": "feedDecimals",
        "offset": 0,
        "slot": "6",
        "type": "t_uint256"
      }
    ],
    "types": {
      "t_address": {
        "encoding": "inplace",
        "label": "address",
        "numberOfBytes": "20"
      },
      "t_uint256": {
        "encoding": "inplace",
        "label": "uint256",
        "numberOfBytes": "32"
      }
    }
  }
}