{
  "address": "0xEed13F8A0Ad6A8cac6d54D1C89c180eBe4E95153",
  "abi": [
    {
      "inputs": [
        {
          "internalType": "address",
          "name": "_want",
          "type": "address"
        },
        {
          "internalType": "address",
          "name": "_vault",
          "type": "address"
        },
        {
          "internalType": "address",
          "name": "_lendingPool",
          "type": "address"
        },
        {
          "internalType": "address",
          "name": "_addressProvider",
          "type": "address"
        },
        {
          "internalType": "uint256",
          "name": "_minHealth",
          "type": "uint256"
        },
        {
          "internalType": "address",
          "name": "_rewards",
          "type": "address"
        }
      ],
      "stateMutability": "nonpayable",
      "type": "constructor"
    },
    {
      "anonymous": false,
      "inputs": [
        {
          "indexed": true,
          "internalType": "address",
          "name": "previousOwner",
          "type": "address"
        },
        {
          "indexed": true,
          "internalType": "address",
          "name": "newOwner",
          "type": "address"
        }
      ],
      "name": "OwnershipTransferred",
      "type": "event"
    },
    {
      "inputs": [],
      "name": "MATIC_REWARDS",
      "outputs": [
        {
          "internalType": "address",
          "name": "",
          "type": "address"
        }
      ],
      "stateMutability": "view",
      "type": "function"
    },
    {
      "inputs": [],
      "name": "MAX_BPS",
      "outputs": [
        {
          "internalType": "uint256",
          "name": "",
          "type": "uint256"
        }
      ],
      "stateMutability": "view",
      "type": "function"
    },
    {
      "inputs": [],
      "name": "aToken",
      "outputs": [
        {
          "internalType": "address",
          "name": "",
          "type": "address"
        }
      ],
      "stateMutability": "view",
      "type": "function"
    },
    {
      "inputs": [],
      "name": "addressProvider",
      "outputs": [
        {
          "internalType": "address",
          "name": "",
          "type": "address"
        }
      ],
      "stateMutability": "view",
      "type": "function"
    },
    {
      "inputs": [],
      "name": "balanceOfWant",
      "outputs": [
        {
          "internalType": "uint256",
          "name": "",
          "type": "uint256"
        }
      ],
      "stateMutability": "view",
      "type": "function"
    },
    {
      "inputs": [],
      "name": "canBorrow",
      "outputs": [
        {
          "internalType": "uint256",
          "name": "",
          "type": "uint256"
        }
      ],
      "stateMutability": "view",
      "type": "function"
    },
    {
      "inputs": [],
      "name": "canRepay",
      "outputs": [
        {
          "internalType": "uint256",
          "name": "",
          "type": "uint256"
        }
      ],
      "stateMutability": "view",
      "type": "function"
    },
    {
      "inputs": [],
      "name": "currentHealthFactor",
      "outputs": [
        {
          "internalType": "uint256",
          "name": "",
          "type": "uint256"
        }
      ],
      "stateMutability": "view",
      "type": "function"
    },
    {
      "inputs": [],
      "name": "debtBelowHealth",
      "outputs": [
        {
          "internalType": "uint256",
          "name": "",
          "type": "uint256"
        }
      ],
      "stateMutability": "view",
      "type": "function"
    },
    {
      "inputs": [],
      "name": "decimals",
      "outputs": [
        {
          "internalType": "uint256",
          "name": "",
          "type": "uint256"
        }
      ],
      "stateMutability": "view",
      "type": "function"
    },
    {
      "inputs": [
        {
          "internalType": "uint256",
          "name": "amount",
          "type": "uint256"
        }
      ],
      "name": "deposit",
      "outputs": [
        {
          "internalType": "uint256",
          "name": "",
          "type": "uint256"
        }
      ],
      "stateMutability": "nonpayable",
      "type": "function"
    },
    {
      "inputs": [],
      "name": "deposited",
      "outputs": [
        {
          "internalType": "uint256",
          "name": "",
          "type": "uint256"
        }
      ],
      "stateMutability": "view",
      "type": "function"
    },
    {
      "inputs": [],
      "name": "divest",
      "outputs": [],
      "stateMutability": "nonpayable",
      "type": "function"
    },
    {
      "inputs": [],
      "name": "feedDecimals",
      "outputs": [
        {
          "internalType": "uint256",
          "name": "",
          "type": "uint256"
        }
      ],
      "stateMutability": "view",
      "type": "function"
    },
    {
      "inputs": [
        {
          "internalType": "uint256",
          "name": "amount",
          "type": "uint256"
        },
        {
          "internalType": "uint256",
          "name": "ratio",
          "type": "uint256"
        }
      ],
      "name": "getMinOutputAmount",
      "outputs": [
        {
          "internalType": "uint256",
          "name": "",
          "type": "uint256"
        }
      ],
      "stateMutability": "view",
      "type": "function"
    },
    {
      "inputs": [],
      "name": "getRewardsAmount",
      "outputs": [
        {
          "internalType": "uint256",
          "name": "",
          "type": "uint256"
        }
      ],
      "stateMutability": "view",
      "type": "function"
    },
    {
      "inputs": [],
      "name": "getTotalValue",
      "outputs": [
        {
          "internalType": "uint256",
          "name": "",
          "type": "uint256"
        }
      ],
      "stateMutability": "view",
      "type": "function"
    },
    {
      "inputs": [
        {
          "internalType": "uint256",
          "name": "cachedRewardToWantRatio",
          "type": "uint256"
        }
      ],
      "name": "harvest",
      "outputs": [],
      "stateMutability": "nonpayable",
      "type": "function"
    },
    {
      "inputs": [],
      "name": "invest",
      "outputs": [],
      "stateMutability": "nonpayable",
      "type": "function"
    },
    {
      "inputs": [],
      "name": "lendingPool",
      "outputs": [
        {
          "internalType": "address",
          "name": "",
          "type": "address"
        }
      ],
      "stateMutability": "view",
      "type": "function"
    },
    {
      "inputs": [],
      "name": "minHealth",
      "outputs": [
        {
          "internalType": "uint256",
          "name": "",
          "type": "uint256"
        }
      ],
      "stateMutability": "view",
      "type": "function"
    },
    {
      "inputs": [],
      "name": "minRebalanceAmount",
      "outputs": [
        {
          "internalType": "uint256",
          "name": "",
          "type": "uint256"
        }
      ],
      "stateMutability": "view",
      "type": "function"
    },
    {
      "inputs": [],
      "name": "owed",
      "outputs": [
        {
          "internalType": "uint256",
          "name": "",
          "type": "uint256"
        }
      ],
      "stateMutability": "view",
      "type": "function"
    },
    {
      "inputs": [],
      "name": "owner",
      "outputs": [
        {
          "internalType": "address",
          "name": "",
          "type": "address"
        }
      ],
      "stateMutability": "view",
      "type": "function"
    },
    {
      "inputs": [],
      "name": "renounceOwnership",
      "outputs": [],
      "stateMutability": "nonpayable",
      "type": "function"
    },
    {
      "inputs": [],
      "name": "repayDebt",
      "outputs": [],
      "stateMutability": "nonpayable",
      "type": "function"
    },
    {
      "inputs": [],
      "name": "rewards",
      "outputs": [
        {
          "internalType": "address",
          "name": "",
          "type": "address"
        }
      ],
      "stateMutability": "view",
      "type": "function"
    },
    {
      "inputs": [],
      "name": "rewardsDecimals",
      "outputs": [
        {
          "internalType": "uint256",
          "name": "",
          "type": "uint256"
        }
      ],
      "stateMutability": "view",
      "type": "function"
    },
    {
      "inputs": [
        {
          "internalType": "uint256",
          "name": "newFeedDecimals",
          "type": "uint256"
        }
      ],
      "name": "setFeedDecimals",
      "outputs": [],
      "stateMutability": "nonpayable",
      "type": "function"
    },
    {
      "inputs": [
        {
          "internalType": "uint256",
          "name": "newMinHealth",
          "type": "uint256"
        }
      ],
      "name": "setMinHealth",
      "outputs": [],
      "stateMutability": "nonpayable",
      "type": "function"
    },
    {
      "inputs": [
        {
          "internalType": "uint256",
          "name": "newRebalanceAmount",
          "type": "uint256"
        }
      ],
      "name": "setRebalanceAmount",
      "outputs": [],
      "stateMutability": "nonpayable",
      "type": "function"
    },
    {
      "inputs": [
        {
          "internalType": "address",
          "name": "newStrategist",
          "type": "address"
        }
      ],
      "name": "setStrategist",
      "outputs": [],
      "stateMutability": "nonpayable",
      "type": "function"
    },
    {
      "inputs": [],
      "name": "shouldDivest",
      "outputs": [
        {
          "internalType": "bool",
          "name": "",
          "type": "bool"
        }
      ],
      "stateMutability": "view",
      "type": "function"
    },
    {
      "inputs": [],
      "name": "shouldInvest",
      "outputs": [
        {
          "internalType": "bool",
          "name": "",
          "type": "bool"
        }
      ],
      "stateMutability": "view",
      "type": "function"
    },
    {
      "inputs": [],
      "name": "stats",
      "outputs": [
        {
          "internalType": "uint256",
          "name": "totalCollateralETH",
          "type": "uint256"
        },
        {
          "internalType": "uint256",
          "name": "totalDebtETH",
          "type": "uint256"
        },
        {
          "internalType": "uint256",
          "name": "availableBorrowsETH",
          "type": "uint256"
        },
        {
          "internalType": "uint256",
          "name": "currentLiquidationThreshold",
          "type": "uint256"
        },
        {
          "internalType": "uint256",
          "name": "ltv",
          "type": "uint256"
        },
        {
          "internalType": "uint256",
          "name": "healthFactor",
          "type": "uint256"
        }
      ],
      "stateMutability": "view",
      "type": "function"
    },
    {
      "inputs": [],
      "name": "strategist",
      "outputs": [
        {
          "internalType": "address",
          "name": "",
          "type": "address"
        }
      ],
      "stateMutability": "view",
      "type": "function"
    },
    {
      "inputs": [
        {
          "internalType": "uint256",
          "name": "amount",
          "type": "uint256"
        },
        {
          "internalType": "uint256",
          "name": "ratio",
          "type": "uint256"
        }
      ],
      "name": "swapRewardsToWant",
      "outputs": [
        {
          "internalType": "uint256",
          "name": "",
          "type": "uint256"
        }
      ],
      "stateMutability": "nonpayable",
      "type": "function"
    },
    {
      "inputs": [],
      "name": "swapRouter",
      "outputs": [
        {
          "internalType": "address",
          "name": "",
          "type": "address"
        }
      ],
      "stateMutability": "view",
      "type": "function"
    },
    {
      "inputs": [
        {
          "internalType": "address",
          "name": "newOwner",
          "type": "address"
        }
      ],
      "name": "transferOwnership",
      "outputs": [],
      "stateMutability": "nonpayable",
      "type": "function"
    },
    {
      "inputs": [],
      "name": "vToken",
      "outputs": [
        {
          "internalType": "address",
          "name": "",
          "type": "address"
        }
      ],
      "stateMutability": "view",
      "type": "function"
    },
    {
      "inputs": [],
      "name": "vault",
      "outputs": [
        {
          "internalType": "address",
          "name": "",
          "type": "address"
        }
      ],
      "stateMutability": "view",
      "type": "function"
    },
    {
      "inputs": [],
      "name": "want",
      "outputs": [
        {
          "internalType": "address",
          "name": "",
          "type": "address"
        }
      ],
      "stateMutability": "view",
      "type": "function"
    },
    {
      "inputs": [
        {
          "internalType": "uint256",
          "name": "amount",
          "type": "uint256"
        }
      ],
      "name": "withdraw",
      "outputs": [
        {
          "internalType": "uint256",
          "name": "",
          "type": "uint256"
        }
      ],
      "stateMutability": "nonpayable",
      "type": "function"
    },
    {
      "inputs": [
        {
          "internalType": "uint256",
          "name": "canRepay",
          "type": "uint256"
        }
      ],
      "name": "withdrawStepFromAAVE",
      "outputs": [],
      "stateMutability": "nonpayable",
      "type": "function"
    }
  ],
  "transactionHash": "0xba96f806882c9121063fc47e06dc31bcdf110bca534940510be781baf8fadddd",
  "args": [
    "0x2791Bca1f2de4661ED88A30C99A7a9449Aa84174",
    "0xD0E05D1C314Cbd51e0e76A71Dc7A0CcdDAcbCCe1",
    "0x8dff5e27ea6b7ac08ebfdf9eb090f32ee9a30fcf",
    "0xd05e3E715d945B59290df0ae8eF85c1BdB684744",
    "1300000000000000000",
    "0x0d500B1d8E8eF31E21C99d1Db9A6444d3ADf1270"
  ],
  "solcInputHash": "404bd63293f0bdc5a8265f79747f5fd1",
  "bytecode": "0x6101a0604052600380546001600160a01b031916731b02da8cb0d097eb8d57a175b88c7d8b479975061790556706f05b59d3b2000060045560126006553480156200004957600080fd5b506040516200339038038062003390833981810160405260c08110156200006f57600080fd5b508051602082015160408301516060840151608085015160a09095015193949293919290916000620000a06200045f565b600080546001600160a01b0319166001600160a01b0383169081178255604051929350917f8be0079c531659141344cd1fd0a4f28419497f9722a3daafe3b4186f6b6457e0908290a350600180556001600160601b0319606087811b821660805286811b82166101005285811b82166101205284811b82166101405282901b16610160526040805163313ce56760e01b815290516000916001600160a01b0384169163313ce56791600480820192602092909190829003018186803b1580156200016957600080fd5b505afa1580156200017e573d6000803e3d6000fd5b505050506040513d60208110156200019557600080fd5b505160ff16610180819052604080516321f8a72160e01b81526230783160e81b600482015290519192506000916001600160a01b038716916321f8a721916024808301926020929190829003018186803b158015620001f357600080fd5b505afa15801562000208573d6000803e3d6000fd5b505050506040513d60208110156200021f57600080fd5b5051604080516334924edb60e21b81526001600160a01b038b811660048301529151929350600092839285169163d2493b6c916024808301926060929190829003018186803b1580156200027257600080fd5b505afa15801562000287573d6000803e3d6000fd5b505050506040513d60608110156200029e57600080fd5b5080516040918201516001600160601b0319606083811b821660a05282901b1660c052825163313ce56760e01b8152925191945092506000916001600160a01b038d169163313ce56791600480820192602092909190829003018186803b1580156200030957600080fd5b505afa1580156200031e573d6000803e3d6000fd5b505050506040513d60208110156200033557600080fd5b505160ff1660e081905260028890556040805163095ea7b360e01b81526001600160a01b038c8116600483015260001960248301529151929350908d169163095ea7b3916044808201926020929091908290030181600087803b1580156200039c57600080fd5b505af1158015620003b1573d6000803e3d6000fd5b505050506040513d6020811015620003c857600080fd5b50506040805163095ea7b360e01b81526001600160a01b038c8116600483015260001960248301529151918d169163095ea7b3916044808201926020929091908290030181600087803b1580156200041f57600080fd5b505af115801562000434573d6000803e3d6000fd5b505050506040513d60208110156200044b57600080fd5b50620004639b505050505050505050505050565b3390565b60805160601c60a05160601c60c05160601c60e0516101005160601c6101205160601c6101405160601c6101605160601c61018051612dc5620005cb60003980610a5a5280611131528061117f52806111d35280611242525080610f56528061216c52806122055250806108b95250806105dc52806108075280610b0c5280610cc95280610f9e52806114d352806118ed5280611da052806120eb52806123df528061250752806126b4528061276752806128205250806108e852806109a052806109d752806110d652806119675280611d71525080610a36528061115252806111a052806111f45280611221525080610f32528061143252806116785280611ae8525080610f7a528061162a5280611a9a5280611bfa5250806107c95280610886528061097e5280610a0852806110b452806112f152806118af52806120ab52806121ba528061240e52806124c9528061266d5280612727528061284f5250612dc56000f3fe608060405234801561001057600080fd5b50600436106102745760003560e01c8063a59a997311610151578063d80528ae116100c3578063eef49ee311610087578063eef49ee3146104f2578063f2fde38b146104fa578063fbfa77cf14610520578063fc2804c014610528578063fd967f4714610530578063fdbfc9b71461053857610274565b8063d80528ae14610482578063ddc63262146104bd578063e84354c5146104da578063e8b5e51f146104e2578063eb1386ac146104ea57610274565b8063c1a3d44c11610115578063c1a3d44c14610434578063c23953d01461043c578063c31c9c0714610444578063c7b9d5301461044c578063c87d677914610472578063caa648b41461047a57610274565b8063a59a9973146103b2578063a7d347c1146103ba578063b6b55f25146103d7578063b8e5dbc4146103f4578063b98686b61461041757610274565b8063455166a2116101ea57806378cc43a8116101ae57806378cc43a81461036d5780638da5cb5b1461038a578063929eca5b146103925780639bb1a99c1461039a5780639ec5a894146103a2578063a0c1f15e146103aa57610274565b8063455166a21461032a578063477c736b146103325780634adc9d5b146103555780635a01f33d1461035d578063715018a61461036557610274565b80632954018c1161023c5780632954018c146102d15780632e1a7d4d146102d9578063313ce567146102f6578063326f9169146102fe5780633905a3a114610306578063421715c21461032257610274565b8063058aace11461027957806313639aeb146102835780631b99d9d61461029d5780631f1fcd51146102a55780631fe4a686146102c9575b600080fd5b610281610555565b005b61028b6105cf565b60408051918252519081900360200190f35b61028161070f565b6102ad610884565b604080516001600160a01b039092168252519081900360200190f35b6102ad6108a8565b6102ad6108b7565b61028b600480360360208110156102ef57600080fd5b50356108db565b61028b610a34565b61028b610a58565b61030e610a7c565b604080519115158252519081900360200190f35b61028b610aff565b61028b610c19565b61028b6004803603604081101561034857600080fd5b5080359060200135610c1f565b6102ad610ca4565b61028b610cbc565b610281610d6e565b6102816004803603602081101561038357600080fd5b5035610e22565b6102ad610e9e565b61030e610ead565b6102ad610f30565b6102ad610f54565b6102ad610f78565b6102ad610f9c565b610281600480360360208110156103d057600080fd5b5035610fc0565b61028b600480360360208110156103ed57600080fd5b5035611035565b61028b6004803603604081101561040a57600080fd5b5080359060200135611104565b6102816004803603602081101561042d57600080fd5b5035611278565b61028b6112ed565b61028b61138d565b6102ad611393565b6102816004803603602081101561046257600080fd5b50356001600160a01b03166113a2565b61028b61142e565b61028b61149d565b61048a6114c8565b604080519687526020870195909552858501939093526060850191909152608084015260a0830152519081900360c00190f35b610281600480360360208110156104d357600080fd5b5035611598565b61028b6119f4565b6102816119fa565b61028b611a72565b61028b611bf6565b6102816004803603602081101561051057600080fd5b50356001600160a01b0316611c65565b6102ad611d6f565b61028b611d93565b61028b611ecf565b6102816004803603602081101561054e57600080fd5b5035611ed5565b61055d610e9e565b6001600160a01b0316336001600160a01b0316148061058657506005546001600160a01b031633145b6105c5576040805162461bcd60e51b81526020600482015260116024820152600080516020612d70833981519152604482015290519081900360640190fd5b6105cd611f4a565b565b60008060008060008060007f00000000000000000000000000000000000000000000000000000000000000006001600160a01b031663bf92857c306040518263ffffffff1660e01b815260040180826001600160a01b0316815260200191505060c06040518083038186803b15801561064757600080fd5b505afa15801561065b573d6000803e3d6000fd5b505050506040513d60c081101561067157600080fd5b508051602082015160408301516060840151608085015160a090950151600254949b5092995090975095509193509091508110156107015760006106db6127106106d56002546106d5670de0b6b3a76400006106cf896106cf611bf6565b90611f52565b90611fab565b905060006106f1826106eb61142e565b90611fed565b985061070c975050505050505050565b600096505050505050505b90565b610717610e9e565b6001600160a01b0316336001600160a01b0316148061074057506005546001600160a01b031633145b61077f576040805162461bcd60e51b81526020600482015260116024820152600080516020612d70833981519152604482015290519081900360640190fd5b60006107896105cf565b905060006107956112ed565b90506000818310156107a757826107a9565b815b9050821561087f576040805163573ade8160e01b81526001600160a01b037f000000000000000000000000000000000000000000000000000000000000000081166004830152602482018490526002604483015230606483015291517f00000000000000000000000000000000000000000000000000000000000000009092169163573ade81916084808201926020929091908290030181600087803b15801561085257600080fd5b505af1158015610866573d6000803e3d6000fd5b505050506040513d602081101561087c57600080fd5b50505b505050565b7f000000000000000000000000000000000000000000000000000000000000000081565b6005546001600160a01b031681565b7f000000000000000000000000000000000000000000000000000000000000000081565b6000336001600160a01b037f0000000000000000000000000000000000000000000000000000000000000000161461095a576040805162461bcd60e51b815260206004820152601760248201527f4f6e6c79205661756c742063616e205769746864726177000000000000000000604482015290519081900360640190fd5b610962611f4a565b61096a6112ed565b8210156109d2576109c56001600160a01b037f0000000000000000000000000000000000000000000000000000000000000000167f00000000000000000000000000000000000000000000000000000000000000008461202f565b6109cd612081565b610a2f565b610a2f7f00000000000000000000000000000000000000000000000000000000000000006109fe6112ed565b6001600160a01b037f000000000000000000000000000000000000000000000000000000000000000016919061202f565b919050565b7f000000000000000000000000000000000000000000000000000000000000000081565b7f000000000000000000000000000000000000000000000000000000000000000081565b6000610a86610e9e565b6001600160a01b0316336001600160a01b03161480610aaf57506005546001600160a01b031633145b610aee576040805162461bcd60e51b81526020600482015260116024820152600080516020612d70833981519152604482015290519081900360640190fd5b600454610af9610aff565b11905090565b60008060008060008060007f00000000000000000000000000000000000000000000000000000000000000006001600160a01b031663bf92857c306040518263ffffffff1660e01b815260040180826001600160a01b0316815260200191505060c06040518083038186803b158015610b7757600080fd5b505afa158015610b8b573d6000803e3d6000fd5b505050506040513d60c0811015610ba157600080fd5b508051602082015160408301516060840151608085015160a090950151600254949b509299509097509550919350909150811115610701576000610c0a610be661142e565b6106eb6127106106d56002546106d5670de0b6b3a76400006106cf8b6106cf611bf6565b975061070c9650505050505050565b60025481565b6000610c29610e9e565b6001600160a01b0316336001600160a01b03161480610c5257506005546001600160a01b031633145b610c91576040805162461bcd60e51b81526020600482015260116024820152600080516020612d70833981519152604482015290519081900360640190fd5b610c9b8383612144565b90505b92915050565b73357d51124f59836ded84c8a1730d72b749d8bc2381565b60008060008060008060007f00000000000000000000000000000000000000000000000000000000000000006001600160a01b031663bf92857c306040518263ffffffff1660e01b815260040180826001600160a01b0316815260200191505060c06040518083038186803b158015610d3457600080fd5b505afa158015610d48573d6000803e3d6000fd5b505050506040513d60c0811015610d5e57600080fd5b5060a00151965050505050505090565b610d766123d3565b6000546001600160a01b03908116911614610dd8576040805162461bcd60e51b815260206004820181905260248201527f4f776e61626c653a2063616c6c6572206973206e6f7420746865206f776e6572604482015290519081900360640190fd5b600080546040516001600160a01b03909116907f8be0079c531659141344cd1fd0a4f28419497f9722a3daafe3b4186f6b6457e0908390a3600080546001600160a01b0319169055565b610e2a610e9e565b6001600160a01b0316336001600160a01b03161480610e5357506005546001600160a01b031633145b610e92576040805162461bcd60e51b81526020600482015260116024820152600080516020612d70833981519152604482015290519081900360640190fd5b610e9b816123d7565b50565b6000546001600160a01b031690565b6000610eb7610e9e565b6001600160a01b0316336001600160a01b03161480610ee057506005546001600160a01b031633145b610f1f576040805162461bcd60e51b81526020600482015260116024820152600080516020612d70833981519152604482015290519081900360640190fd5b600254610f2a610cbc565b10905090565b7f000000000000000000000000000000000000000000000000000000000000000081565b7f000000000000000000000000000000000000000000000000000000000000000081565b7f000000000000000000000000000000000000000000000000000000000000000081565b7f000000000000000000000000000000000000000000000000000000000000000081565b610fc8610e9e565b6001600160a01b0316336001600160a01b03161480610ff157506005546001600160a01b031633145b611030576040805162461bcd60e51b81526020600482015260116024820152600080516020612d70833981519152604482015290519081900360640190fd5b600655565b600061103f610e9e565b6001600160a01b0316336001600160a01b0316148061106857506005546001600160a01b031633145b6110a7576040805162461bcd60e51b81526020600482015260116024820152600080516020612d70833981519152604482015290519081900360640190fd5b6110fc6001600160a01b037f0000000000000000000000000000000000000000000000000000000000000000167f0000000000000000000000000000000000000000000000000000000000000000308561257c565b610a2f612081565b60008061112d60646106d560636106cf876106d5600654600a0a8b611f5290919063ffffffff16565b90507f00000000000000000000000000000000000000000000000000000000000000007f000000000000000000000000000000000000000000000000000000000000000010156111d1576111ce6111c47f00000000000000000000000000000000000000000000000000000000000000007f0000000000000000000000000000000000000000000000000000000000000000611fed565b8290600a0a611fab565b90505b7f00000000000000000000000000000000000000000000000000000000000000007f00000000000000000000000000000000000000000000000000000000000000001115610c9b576112706112667f00000000000000000000000000000000000000000000000000000000000000007f0000000000000000000000000000000000000000000000000000000000000000611fed565b8290600a0a611f52565b949350505050565b611280610e9e565b6001600160a01b0316336001600160a01b031614806112a957506005546001600160a01b031633145b6112e8576040805162461bcd60e51b81526020600482015260116024820152600080516020612d70833981519152604482015290519081900360640190fd5b600255565b60007f00000000000000000000000000000000000000000000000000000000000000006001600160a01b03166370a08231306040518263ffffffff1660e01b815260040180826001600160a01b0316815260200191505060206040518083038186803b15801561135c57600080fd5b505afa158015611370573d6000803e3d6000fd5b505050506040513d602081101561138657600080fd5b5051905090565b60065481565b6003546001600160a01b031681565b6113aa6123d3565b6000546001600160a01b0390811691161461140c576040805162461bcd60e51b815260206004820181905260248201527f4f776e61626c653a2063616c6c6572206973206e6f7420746865206f776e6572604482015290519081900360640190fd5b600580546001600160a01b0319166001600160a01b0392909216919091179055565b60007f00000000000000000000000000000000000000000000000000000000000000006001600160a01b03166370a08231306040518263ffffffff1660e01b815260040180826001600160a01b0316815260200191505060206040518083038186803b15801561135c57600080fd5b60006114c36114aa61142e565b6106eb6114b5611bf6565b6114bd6112ed565b906125dc565b905090565b6000806000806000807f00000000000000000000000000000000000000000000000000000000000000006001600160a01b031663bf92857c306040518263ffffffff1660e01b815260040180826001600160a01b0316815260200191505060c06040518083038186803b15801561153e57600080fd5b505afa158015611552573d6000803e3d6000fd5b505050506040513d60c081101561156857600080fd5b508051602082015160408301516060840151608085015160a090950151939b929a50909850965091945092509050565b6115a0610e9e565b6001600160a01b0316336001600160a01b031614806115c957506005546001600160a01b031633145b611608576040805162461bcd60e51b81526020600482015260116024820152600080516020612d70833981519152604482015290519081900360640190fd5b60408051600280825260608083018452926020830190803683370190505090507f00000000000000000000000000000000000000000000000000000000000000008160008151811061165657fe5b60200260200101906001600160a01b031690816001600160a01b0316815250507f0000000000000000000000000000000000000000000000000000000000000000816001815181106116a457fe5b6001600160a01b03909216602092830291909101820152604080516345accf9360e11b815230602482018190526004820192835284516044830152845160009473357d51124f59836ded84c8a1730d72b749d8bc2394638b599f26948894939192839260649092019186820191028083838c5b8381101561172f578181015183820152602001611717565b50505050905001935050505060206040518083038186803b15801561175357600080fd5b505afa158015611767573d6000803e3d6000fd5b505050506040513d602081101561177d57600080fd5b5051604051633111e7b360e01b815260248101829052306044820181905260606004830190815285516064840152855193945073357d51124f59836ded84c8a1730d72b749d8bc2393633111e7b393879387939092909182916084909101906020878101910280838360005b838110156118015781810151838201526020016117e9565b50505050905001945050505050602060405180830381600087803b15801561182857600080fd5b505af115801561183c573d6000803e3d6000fd5b505050506040513d602081101561185257600080fd5b50600090506118618285612144565b9050600061186d6105cf565b905060008282101561187f5781611881565b825b9050600061188f8483611fed565b90508215611965576040805163573ade8160e01b81526001600160a01b037f000000000000000000000000000000000000000000000000000000000000000081166004830152602482018590526002604483015230606483015291517f00000000000000000000000000000000000000000000000000000000000000009092169163573ade81916084808201926020929091908290030181600087803b15801561193857600080fd5b505af115801561194c573d6000803e3d6000fd5b505050506040513d602081101561196257600080fd5b50505b7f00000000000000000000000000000000000000000000000000000000000000006001600160a01b031663dc7da299826040518263ffffffff1660e01b815260040180828152602001915050600060405180830381600087803b1580156119cb57600080fd5b505af11580156119df573d6000803e3d6000fd5b505050506119eb612081565b50505050505050565b60045481565b611a02610e9e565b6001600160a01b0316336001600160a01b03161480611a2b57506005546001600160a01b031633145b611a6a576040805162461bcd60e51b81526020600482015260116024820152600080516020612d70833981519152604482015290519081900360640190fd5b6105cd612636565b60408051600280825260608083018452600093909291906020830190803683370190505090507f000000000000000000000000000000000000000000000000000000000000000081600081518110611ac657fe5b60200260200101906001600160a01b031690816001600160a01b0316815250507f000000000000000000000000000000000000000000000000000000000000000081600181518110611b1457fe5b6001600160a01b03909216602092830291909101820152604080516345accf9360e11b815230602482018190526004820192835284516044830152845160009473357d51124f59836ded84c8a1730d72b749d8bc2394638b599f26948894939192839260649092019186820191028083838c5b83811015611b9f578181015183820152602001611b87565b50505050905001935050505060206040518083038186803b158015611bc357600080fd5b505afa158015611bd7573d6000803e3d6000fd5b505050506040513d6020811015611bed57600080fd5b50519250505090565b60007f00000000000000000000000000000000000000000000000000000000000000006001600160a01b03166370a08231306040518263ffffffff1660e01b815260040180826001600160a01b0316815260200191505060206040518083038186803b15801561135c57600080fd5b611c6d6123d3565b6000546001600160a01b03908116911614611ccf576040805162461bcd60e51b815260206004820181905260248201527f4f776e61626c653a2063616c6c6572206973206e6f7420746865206f776e6572604482015290519081900360640190fd5b6001600160a01b038116611d145760405162461bcd60e51b8152600401808060200182810382526026815260200180612cc96026913960400191505060405180910390fd5b600080546040516001600160a01b03808516939216917f8be0079c531659141344cd1fd0a4f28419497f9722a3daafe3b4186f6b6457e091a3600080546001600160a01b0319166001600160a01b0392909216919091179055565b7f000000000000000000000000000000000000000000000000000000000000000081565b60008060008060008060007f00000000000000000000000000000000000000000000000000000000000000006001600160a01b031663bf92857c306040518263ffffffff1660e01b815260040180826001600160a01b0316815260200191505060c06040518083038186803b158015611e0b57600080fd5b505afa158015611e1f573d6000803e3d6000fd5b505050506040513d60c0811015611e3557600080fd5b508051602082015160408301516060840151608085015160a090950151939a509198509650945090925090506000611e6b611bf6565b90506000611e7761142e565b905080611e90576000199850505050505050505061070c565b6000611eac611ea5876106d585612710611f52565b8490611fed565b90506000611ec060646106d584605f611f52565b9a505050505050505050505090565b61271081565b611edd610e9e565b6001600160a01b0316336001600160a01b03161480611f0657506005546001600160a01b031633145b611f45576040805162461bcd60e51b81526020600482015260116024820152600080516020612d70833981519152604482015290519081900360640190fd5b600455565b6105cd6127e0565b600082611f6157506000610c9e565b82820282848281611f6e57fe5b0414610c9b5760405162461bcd60e51b8152600401808060200182810382526021815260200180612cef6021913960400191505060405180910390fd5b6000610c9b83836040518060400160405280601a81526020017f536166654d6174683a206469766973696f6e206279207a65726f0000000000008152506128c8565b6000610c9b83836040518060400160405280601e81526020017f536166654d6174683a207375627472616374696f6e206f766572666c6f77000081525061296a565b604080516001600160a01b038416602482015260448082018490528251808303909101815260649091019091526020810180516001600160e01b031663a9059cbb60e01b17905261087f9084906129c4565b600061208b6112ed565b90508015610e9b576040805163e8eda9df60e01b81526001600160a01b037f0000000000000000000000000000000000000000000000000000000000000000811660048301526024820184905230604483015260006064830181905292517f00000000000000000000000000000000000000000000000000000000000000009091169263e8eda9df926084808201939182900301818387803b15801561213057600080fd5b505af115801561087c573d6000803e3d6000fd5b60408051600280825260608083018452600093909291906020830190803683370190505090507f00000000000000000000000000000000000000000000000000000000000000008160008151811061219857fe5b60200260200101906001600160a01b031690816001600160a01b0316815250507f0000000000000000000000000000000000000000000000000000000000000000816001815181106121e657fe5b6001600160a01b03928316602091820292909201015260035461222e917f00000000000000000000000000000000000000000000000000000000000000008116911686612b7c565b6003546060906001600160a01b03166338ed17398661224d8188611104565b8530426040518663ffffffff1660e01b81526004018086815260200185815260200180602001846001600160a01b03168152602001838152602001828103825285818151815260200191508051906020019060200280838360005b838110156122c05781810151838201526020016122a8565b505050509050019650505050505050600060405180830381600087803b1580156122e957600080fd5b505af11580156122fd573d6000803e3d6000fd5b505050506040513d6000823e601f3d908101601f19168201604052602081101561232657600080fd5b810190808051604051939291908464010000000082111561234657600080fd5b90830190602082018581111561235b57600080fd5b825186602082028301116401000000008211171561237857600080fd5b82525081516020918201928201910280838360005b838110156123a557818101518382015260200161238d565b505050509050016040525050509050806001815181106123c157fe5b60200260200101519250505092915050565b3390565b8015610e9b577f00000000000000000000000000000000000000000000000000000000000000006001600160a01b03166369328dec7f000000000000000000000000000000000000000000000000000000000000000083306040518463ffffffff1660e01b815260040180846001600160a01b03168152602001838152602001826001600160a01b031681526020019350505050602060405180830381600087803b15801561248557600080fd5b505af1158015612499573d6000803e3d6000fd5b505050506040513d60208110156124af57600080fd5b50506040805163573ade8160e01b81526001600160a01b037f000000000000000000000000000000000000000000000000000000000000000081166004830152602482018490526002604483015230606483015291517f00000000000000000000000000000000000000000000000000000000000000009092169163573ade81916084808201926020929091908290030181600087803b15801561255257600080fd5b505af1158015612566573d6000803e3d6000fd5b505050506040513d602081101561087f57600080fd5b604080516001600160a01b0380861660248301528416604482015260648082018490528251808303909101815260849091019091526020810180516001600160e01b03166323b872dd60e01b1790526125d69085906129c4565b50505050565b600082820183811015610c9b576040805162461bcd60e51b815260206004820152601b60248201527f536166654d6174683a206164646974696f6e206f766572666c6f770000000000604482015290519081900360640190fd5b600560005b818110156127dc57600061264d610aff565b905080156127cb576040805163a415bcad60e01b81526001600160a01b037f000000000000000000000000000000000000000000000000000000000000000081166004830152602482018490526002604483015260006064830181905230608484015292517f00000000000000000000000000000000000000000000000000000000000000009091169263a415bcad9260a4808201939182900301818387803b1580156126f957600080fd5b505af115801561270d573d6000803e3d6000fd5b50506040805163e8eda9df60e01b81526001600160a01b037f0000000000000000000000000000000000000000000000000000000000000000811660048301526024820186905230604483015260006064830181905292517f0000000000000000000000000000000000000000000000000000000000000000909116945063e8eda9df93506084808301939282900301818387803b1580156127ae57600080fd5b505af11580156127c2573d6000803e3d6000fd5b505050506127d3565b5050506105cd565b5060010161263b565b5050565b60006127ea611d93565b90505b600019811461280e576127ff816123d7565b612807611d93565b90506127ed565b6000612818611bf6565b1115610e9b577f00000000000000000000000000000000000000000000000000000000000000006001600160a01b03166369328dec7f0000000000000000000000000000000000000000000000000000000000000000600019306040518463ffffffff1660e01b815260040180846001600160a01b03168152602001838152602001826001600160a01b031681526020019350505050602060405180830381600087803b15801561255257600080fd5b600081836129545760405162461bcd60e51b81526004018080602001828103825283818151815260200191508051906020019080838360005b83811015612919578181015183820152602001612901565b50505050905090810190601f1680156129465780820380516001836020036101000a031916815260200191505b509250505060405180910390fd5b50600083858161296057fe5b0495945050505050565b600081848411156129bc5760405162461bcd60e51b8152602060048201818152835160248401528351909283926044909101919085019080838360008315612919578181015183820152602001612901565b505050900390565b6129d6826001600160a01b0316612c8f565b612a27576040805162461bcd60e51b815260206004820152601f60248201527f5361666545524332303a2063616c6c20746f206e6f6e2d636f6e747261637400604482015290519081900360640190fd5b60006060836001600160a01b0316836040518082805190602001908083835b60208310612a655780518252601f199092019160209182019101612a46565b6001836020036101000a0380198251168184511680821785525050505050509050019150506000604051808303816000865af19150503d8060008114612ac7576040519150601f19603f3d011682016040523d82523d6000602084013e612acc565b606091505b509150915081612b23576040805162461bcd60e51b815260206004820181905260248201527f5361666545524332303a206c6f772d6c6576656c2063616c6c206661696c6564604482015290519081900360640190fd5b8051156125d657808060200190516020811015612b3f57600080fd5b50516125d65760405162461bcd60e51b815260040180806020018281038252602a815260200180612d10602a913960400191505060405180910390fd5b801580612c02575060408051636eb1769f60e11b81523060048201526001600160a01b03848116602483015291519185169163dd62ed3e91604480820192602092909190829003018186803b158015612bd457600080fd5b505afa158015612be8573d6000803e3d6000fd5b505050506040513d6020811015612bfe57600080fd5b5051155b612c3d5760405162461bcd60e51b8152600401808060200182810382526036815260200180612d3a6036913960400191505060405180910390fd5b604080516001600160a01b038416602482015260448082018490528251808303909101815260649091019091526020810180516001600160e01b031663095ea7b360e01b17905261087f9084906129c4565b6000813f7fc5d2460186f7233c927e7db2dcc703c0e500b653ca82273b7bfad8045d85a47081811480159061127057505015159291505056fe4f776e61626c653a206e6577206f776e657220697320746865207a65726f2061646472657373536166654d6174683a206d756c7469706c69636174696f6e206f766572666c6f775361666545524332303a204552433230206f7065726174696f6e20646964206e6f7420737563636565645361666545524332303a20617070726f76652066726f6d206e6f6e2d7a65726f20746f206e6f6e2d7a65726f20616c6c6f77616e63654e6f7420696e204d616e6167656d656e74000000000000000000000000000000a264697066735822122059b74a23d9e2fc84f10c405dfb393fb078c3413acec3bd3e1d6bacd418f241fb64736f6c63430007050033",
  "devdoc": {
    "kind": "dev",
    "methods": {
      "owner()": {
        "details": "Returns the address of the current owner."
      },
      "renounceOwnership()": {
        "details": "Leaves the contract without owner. It will not be possible to call `onlyOwner` functions anymore. Can only be called by the current owner. NOTE: Renouncing ownership will leave the contract without an owner, thereby removing any functionality that is only available to the owner."
      },
      "transferOwnership(address)": {
        "details": "Transfers ownership of the contract to a new account (`newOwner`). Can only be called by the current owner."
      }
    },
    "version": 1
  },
  "userdoc": {
    "kind": "user",
    "methods": {
      "deposit(uint256)": {
        "notice": "IStrategy "
      },
      "stats()": {
        "notice": "AAVE View Functions *"
      }
    },
    "version": 1
  },
  "storageLayout": {
    "storage": [
      {
        "astId": 7815,
        "contract": "contracts/strats/USDC/AAVEUSDCRewards.sol:AAVEUSDCRewards",
        "label": "_owner",
        "offset": 0,
        "slot": "0",
        "type": "t_address"
      },
      {
        "astId": 7971,
        "contract": "contracts/strats/USDC/AAVEUSDCRewards.sol:AAVEUSDCRewards",
        "label": "_status",
        "offset": 0,
        "slot": "1",
        "type": "t_uint256"
      },
      {
        "astId": 13072,
        "contract": "contracts/strats/USDC/AAVEUSDCRewards.sol:AAVEUSDCRewards",
        "label": "minHealth",
        "offset": 0,
        "slot": "2",
        "type": "t_uint256"
      },
      {
        "astId": 13075,
        "contract": "contracts/strats/USDC/AAVEUSDCRewards.sol:AAVEUSDCRewards",
        "label": "swapRouter",
        "offset": 0,
        "slot": "3",
        "type": "t_address"
      },
      {
        "astId": 13078,
        "contract": "contracts/strats/USDC/AAVEUSDCRewards.sol:AAVEUSDCRewards",
        "label": "minRebalanceAmount",
        "offset": 0,
        "slot": "4",
        "type": "t_uint256"
      },
      {
        "astId": 13080,
        "contract": "contracts/strats/USDC/AAVEUSDCRewards.sol:AAVEUSDCRewards",
        "label": "strategist",
        "offset": 0,
        "slot": "5",
        "type": "t_address"
      },
      {
        "astId": 13083,
        "contract": "contracts/strats/USDC/AAVEUSDCRewards.sol:AAVEUSDCRewards",
        "label": "feedDecimals",
        "offset": 0,
        "slot": "6",
        "type": "t_uint256"
      }
    ],
    "types": {
      "t_address": {
        "encoding": "inplace",
        "label": "address",
        "numberOfBytes": "20"
      },
      "t_uint256": {
        "encoding": "inplace",
        "label": "uint256",
        "numberOfBytes": "32"
      }
    }
  }
}