{
  "address": "0x7484D5d748Dd25cBfE67209a31FAE8B7572B221E",
  "abi": [
    {
      "inputs": [],
      "stateMutability": "nonpayable",
      "type": "constructor"
    },
    {
      "anonymous": false,
      "inputs": [
        {
          "indexed": true,
          "internalType": "address",
          "name": "owner",
          "type": "address"
        },
        {
          "indexed": true,
          "internalType": "address",
          "name": "spender",
          "type": "address"
        },
        {
          "indexed": false,
          "internalType": "uint256",
          "name": "value",
          "type": "uint256"
        }
      ],
      "name": "Approval",
      "type": "event"
    },
    {
      "anonymous": false,
      "inputs": [
        {
          "indexed": true,
          "internalType": "address",
          "name": "previousOwner",
          "type": "address"
        },
        {
          "indexed": true,
          "internalType": "address",
          "name": "newOwner",
          "type": "address"
        }
      ],
      "name": "OwnershipTransferred",
      "type": "event"
    },
    {
      "anonymous": false,
      "inputs": [
        {
          "indexed": true,
          "internalType": "address",
          "name": "from",
          "type": "address"
        },
        {
          "indexed": true,
          "internalType": "address",
          "name": "to",
          "type": "address"
        },
        {
          "indexed": false,
          "internalType": "uint256",
          "name": "value",
          "type": "uint256"
        }
      ],
      "name": "Transfer",
      "type": "event"
    },
    {
      "inputs": [],
      "name": "ADDRES_PROVIDER",
      "outputs": [
        {
          "internalType": "address",
          "name": "",
          "type": "address"
        }
      ],
      "stateMutability": "view",
      "type": "function"
    },
    {
      "inputs": [],
      "name": "FLOAT",
      "outputs": [
        {
          "internalType": "uint256",
          "name": "",
          "type": "uint256"
        }
      ],
      "stateMutability": "view",
      "type": "function"
    },
    {
      "inputs": [],
      "name": "LENDING_POOL",
      "outputs": [
        {
          "internalType": "address",
          "name": "",
          "type": "address"
        }
      ],
      "stateMutability": "view",
      "type": "function"
    },
    {
      "inputs": [],
      "name": "MATIC_REWARDS",
      "outputs": [
        {
          "internalType": "address",
          "name": "",
          "type": "address"
        }
      ],
      "stateMutability": "view",
      "type": "function"
    },
    {
      "inputs": [],
      "name": "MIN_HEALTH",
      "outputs": [
        {
          "internalType": "uint256",
          "name": "",
          "type": "uint256"
        }
      ],
      "stateMutability": "view",
      "type": "function"
    },
    {
      "inputs": [
        {
          "internalType": "address",
          "name": "owner",
          "type": "address"
        },
        {
          "internalType": "address",
          "name": "spender",
          "type": "address"
        }
      ],
      "name": "allowance",
      "outputs": [
        {
          "internalType": "uint256",
          "name": "",
          "type": "uint256"
        }
      ],
      "stateMutability": "view",
      "type": "function"
    },
    {
      "inputs": [
        {
          "internalType": "address",
          "name": "spender",
          "type": "address"
        },
        {
          "internalType": "uint256",
          "name": "amount",
          "type": "uint256"
        }
      ],
      "name": "approve",
      "outputs": [
        {
          "internalType": "bool",
          "name": "",
          "type": "bool"
        }
      ],
      "stateMutability": "nonpayable",
      "type": "function"
    },
    {
      "inputs": [
        {
          "internalType": "address",
          "name": "account",
          "type": "address"
        }
      ],
      "name": "balanceOf",
      "outputs": [
        {
          "internalType": "uint256",
          "name": "",
          "type": "uint256"
        }
      ],
      "stateMutability": "view",
      "type": "function"
    },
    {
      "inputs": [],
      "name": "balanceOfWant",
      "outputs": [
        {
          "internalType": "uint256",
          "name": "",
          "type": "uint256"
        }
      ],
      "stateMutability": "view",
      "type": "function"
    },
    {
      "inputs": [],
      "name": "canBorrow",
      "outputs": [
        {
          "internalType": "uint256",
          "name": "",
          "type": "uint256"
        }
      ],
      "stateMutability": "view",
      "type": "function"
    },
    {
      "inputs": [],
      "name": "canRepay",
      "outputs": [
        {
          "internalType": "uint256",
          "name": "",
          "type": "uint256"
        }
      ],
      "stateMutability": "view",
      "type": "function"
    },
    {
      "inputs": [],
      "name": "decimals",
      "outputs": [
        {
          "internalType": "uint8",
          "name": "",
          "type": "uint8"
        }
      ],
      "stateMutability": "view",
      "type": "function"
    },
    {
      "inputs": [
        {
          "internalType": "address",
          "name": "spender",
          "type": "address"
        },
        {
          "internalType": "uint256",
          "name": "subtractedValue",
          "type": "uint256"
        }
      ],
      "name": "decreaseAllowance",
      "outputs": [
        {
          "internalType": "bool",
          "name": "",
          "type": "bool"
        }
      ],
      "stateMutability": "nonpayable",
      "type": "function"
    },
    {
      "inputs": [
        {
          "internalType": "uint256",
          "name": "amount",
          "type": "uint256"
        }
      ],
      "name": "deposit",
      "outputs": [
        {
          "internalType": "uint256",
          "name": "",
          "type": "uint256"
        }
      ],
      "stateMutability": "nonpayable",
      "type": "function"
    },
    {
      "inputs": [],
      "name": "deposited",
      "outputs": [
        {
          "internalType": "uint256",
          "name": "",
          "type": "uint256"
        }
      ],
      "stateMutability": "view",
      "type": "function"
    },
    {
      "inputs": [
        {
          "internalType": "uint256",
          "name": "amount",
          "type": "uint256"
        }
      ],
      "name": "divestFromAAVE",
      "outputs": [],
      "stateMutability": "nonpayable",
      "type": "function"
    },
    {
      "inputs": [],
      "name": "getRate",
      "outputs": [
        {
          "internalType": "uint256",
          "name": "",
          "type": "uint256"
        }
      ],
      "stateMutability": "view",
      "type": "function"
    },
    {
      "inputs": [],
      "name": "getRewardsBalance",
      "outputs": [
        {
          "internalType": "uint256",
          "name": "",
          "type": "uint256"
        }
      ],
      "stateMutability": "view",
      "type": "function"
    },
    {
      "inputs": [],
      "name": "getTotalValue",
      "outputs": [
        {
          "internalType": "uint256",
          "name": "",
          "type": "uint256"
        }
      ],
      "stateMutability": "view",
      "type": "function"
    },
    {
      "inputs": [
        {
          "internalType": "address",
          "name": "spender",
          "type": "address"
        },
        {
          "internalType": "uint256",
          "name": "addedValue",
          "type": "uint256"
        }
      ],
      "name": "increaseAllowance",
      "outputs": [
        {
          "internalType": "bool",
          "name": "",
          "type": "bool"
        }
      ],
      "stateMutability": "nonpayable",
      "type": "function"
    },
    {
      "inputs": [],
      "name": "name",
      "outputs": [
        {
          "internalType": "string",
          "name": "",
          "type": "string"
        }
      ],
      "stateMutability": "view",
      "type": "function"
    },
    {
      "inputs": [],
      "name": "owed",
      "outputs": [
        {
          "internalType": "uint256",
          "name": "",
          "type": "uint256"
        }
      ],
      "stateMutability": "view",
      "type": "function"
    },
    {
      "inputs": [],
      "name": "owner",
      "outputs": [
        {
          "internalType": "address",
          "name": "",
          "type": "address"
        }
      ],
      "stateMutability": "view",
      "type": "function"
    },
    {
      "inputs": [],
      "name": "rebalance",
      "outputs": [],
      "stateMutability": "nonpayable",
      "type": "function"
    },
    {
      "inputs": [],
      "name": "reinvestRewards",
      "outputs": [],
      "stateMutability": "nonpayable",
      "type": "function"
    },
    {
      "inputs": [],
      "name": "renounceOwnership",
      "outputs": [],
      "stateMutability": "nonpayable",
      "type": "function"
    },
    {
      "inputs": [
        {
          "internalType": "uint256",
          "name": "amount",
          "type": "uint256"
        }
      ],
      "name": "repayAAVE",
      "outputs": [],
      "stateMutability": "nonpayable",
      "type": "function"
    },
    {
      "inputs": [
        {
          "internalType": "address",
          "name": "asset",
          "type": "address"
        },
        {
          "internalType": "address",
          "name": "destination",
          "type": "address"
        }
      ],
      "name": "rug",
      "outputs": [
        {
          "internalType": "uint256",
          "name": "",
          "type": "uint256"
        }
      ],
      "stateMutability": "nonpayable",
      "type": "function"
    },
    {
      "inputs": [],
      "name": "symbol",
      "outputs": [
        {
          "internalType": "string",
          "name": "",
          "type": "string"
        }
      ],
      "stateMutability": "view",
      "type": "function"
    },
    {
      "inputs": [],
      "name": "totalSupply",
      "outputs": [
        {
          "internalType": "uint256",
          "name": "",
          "type": "uint256"
        }
      ],
      "stateMutability": "view",
      "type": "function"
    },
    {
      "inputs": [
        {
          "internalType": "address",
          "name": "recipient",
          "type": "address"
        },
        {
          "internalType": "uint256",
          "name": "amount",
          "type": "uint256"
        }
      ],
      "name": "transfer",
      "outputs": [
        {
          "internalType": "bool",
          "name": "",
          "type": "bool"
        }
      ],
      "stateMutability": "nonpayable",
      "type": "function"
    },
    {
      "inputs": [
        {
          "internalType": "address",
          "name": "sender",
          "type": "address"
        },
        {
          "internalType": "address",
          "name": "recipient",
          "type": "address"
        },
        {
          "internalType": "uint256",
          "name": "amount",
          "type": "uint256"
        }
      ],
      "name": "transferFrom",
      "outputs": [
        {
          "internalType": "bool",
          "name": "",
          "type": "bool"
        }
      ],
      "stateMutability": "nonpayable",
      "type": "function"
    },
    {
      "inputs": [
        {
          "internalType": "address",
          "name": "newOwner",
          "type": "address"
        }
      ],
      "name": "transferOwnership",
      "outputs": [],
      "stateMutability": "nonpayable",
      "type": "function"
    },
    {
      "inputs": [],
      "name": "want",
      "outputs": [
        {
          "internalType": "address",
          "name": "",
          "type": "address"
        }
      ],
      "stateMutability": "view",
      "type": "function"
    },
    {
      "inputs": [
        {
          "internalType": "uint256",
          "name": "amount",
          "type": "uint256"
        }
      ],
      "name": "withdraw",
      "outputs": [
        {
          "internalType": "uint256",
          "name": "",
          "type": "uint256"
        }
      ],
      "stateMutability": "nonpayable",
      "type": "function"
    },
    {
      "inputs": [
        {
          "internalType": "uint256",
          "name": "amount",
          "type": "uint256"
        }
      ],
      "name": "withdrawFromAAVE",
      "outputs": [],
      "stateMutability": "nonpayable",
      "type": "function"
    },
    {
      "inputs": [
        {
          "internalType": "uint256",
          "name": "canRepay",
          "type": "uint256"
        }
      ],
      "name": "withdrawStepFromAAVE",
      "outputs": [],
      "stateMutability": "nonpayable",
      "type": "function"
    }
  ],
  "transactionHash": "0x8863484d91c238c3b9b3004cae878c9eec695a5c431a11891b17ca6c4ea852ba",
  "args": [],
  "solcInputHash": "0b6cb9411ba6f289c3d45aaaf11c4177",
  "bytecode": "0x60806040523480156200001157600080fd5b50604080518082018252601081526f26bca6b0ba34b1a837b7b62a37b5b2b760811b60208083019182528351808501909452600584526426bca6a81960d91b9084015281519192916012916200006b9160039190620001a4565b50815162000081906004906020850190620001a4565b506005805460ff191660ff929092169190911790555060009050620000a5620001a0565b60058054610100600160a81b0319166101006001600160a01b03841690810291909117909155604051919250906000907f8be0079c531659141344cd1fd0a4f28419497f9722a3daafe3b4186f6b6457e0908290a3506040805163095ea7b360e01b8152738dff5e27ea6b7ac08ebfdf9eb090f32ee9a30fcf600482015260001960248201529051730d500b1d8e8ef31e21c99d1db9a6444d3adf12709163095ea7b39160448083019260209291908290030181600087803b1580156200016b57600080fd5b505af115801562000180573d6000803e3d6000fd5b505050506040513d60208110156200019757600080fd5b50620002509050565b3390565b828054600181600116156101000203166002900490600052602060002090601f016020900481019282620001dc576000855562000227565b82601f10620001f757805160ff191683800117855562000227565b8280016001018555821562000227579182015b82811115620002275782518255916020019190600101906200020a565b506200023592915062000239565b5090565b5b808211156200023557600081556001016200023a565b6129f580620002606000396000f3fe608060405234801561001057600080fd5b50600436106102275760003560e01c8063858a135d11610130578063b6b55f25116100b8578063dd62ed3e1161007c578063dd62ed3e1461055e578063e638ca991461058c578063eef49ee314610594578063f2fde38b1461059c578063fc2804c0146105c257610227565b8063b6b55f251461050c578063c1a3d44c14610529578063c6ceb6f514610531578063c87d67791461054e578063caa648b41461055657610227565b8063a364a57a116100ff578063a364a57a14610477578063a457c2d7146104a4578063a9059cbb146104d0578063b4dcfc77146104fc578063b5f4d38c1461050457610227565b8063858a135d1461046f57806385f158ea146104775780638da5cb5b1461049457806395d89b411461049c57610227565b8063421715c2116101b35780636a3b7ec2116101825780636a3b7ec2146103ec57806370a082311461041a578063715018a61461044057806378cc43a81461044a5780637d7c2a1c1461046757610227565b8063421715c2146103cc5780634adc9d5b146103d4578063679aefce146103dc57806368cf06e4146103e457610227565b80631f1fcd51116101fa5780631f1fcd511461030b57806323b872dd1461032f5780632e1a7d4d14610365578063313ce5671461038257806339509351146103a057610227565b806306fdde031461022c578063095ea7b3146102a957806314f9a9d5146102e957806318160ddd14610303575b600080fd5b6102346105ca565b6040805160208082528351818301528351919283929083019185019080838360005b8381101561026e578181015183820152602001610256565b50505050905090810190601f16801561029b5780820380516001836020036101000a031916815260200191505b509250505060405180910390f35b6102d5600480360360408110156102bf57600080fd5b506001600160a01b038135169060200135610661565b604080519115158252519081900360200190f35b6102f161067f565b60408051918252519081900360200190f35b6102f161068b565b610313610691565b604080516001600160a01b039092168252519081900360200190f35b6102d56004803603606081101561034557600080fd5b506001600160a01b038135811691602081013590911690604001356106a3565b6102f16004803603602081101561037b57600080fd5b503561072a565b61038a61085b565b6040805160ff9092168252519081900360200190f35b6102d5600480360360408110156103b657600080fd5b506001600160a01b038135169060200135610864565b6102f16108b2565b6103136109ca565b6102f16109e2565b6102f1610ae8565b6102f16004803603604081101561040257600080fd5b506001600160a01b0381358116916020013516610af4565b6102f16004803603602081101561043057600080fd5b50356001600160a01b0316610c5e565b610448610c79565b005b6104486004803603602081101561046057600080fd5b5035610d26565b610448610ebc565b6102f1611062565b6104486004803603602081101561048d57600080fd5b50356112c5565b610313611391565b6102346113a5565b6102d5600480360360408110156104ba57600080fd5b506001600160a01b038135169060200135611406565b6102d5600480360360408110156104e657600080fd5b506001600160a01b03813516906020013561146e565b610313611482565b610448611494565b6102f16004803603602081101561052257600080fd5b50356117f8565b6102f161196b565b6104486004803603602081101561054757600080fd5b50356119eb565b6102f1611b79565b6102f1611c5d565b6102f16004803603604081101561057457600080fd5b506001600160a01b0381358116916020013516611c8e565b610313611cb9565b6102f1611cd1565b610448600480360360208110156105b257600080fd5b50356001600160a01b0316611daa565b6102f1611eb3565b60038054604080516020601f60026000196101006001881615020190951694909404938401819004810282018101909252828152606093909290918301828280156106565780601f1061062b57610100808354040283529160200191610656565b820191906000526020600020905b81548152906001019060200180831161063957829003601f168201915b505050505090505b90565b600061067561066e612037565b848461203b565b5060015b92915050565b670de0b6b3a764000081565b60025490565b6000805160206129a083398151915281565b60006106b0848484612127565b610720846106bc612037565b61071b85604051806060016040528060288152602001612885602891396001600160a01b038a166000908152600160205260408120906106fa612037565b6001600160a01b031681526020810191909152604001600020549190612282565b61203b565b5060019392505050565b6000610734612037565b60055461010090046001600160a01b03908116911614610789576040805162461bcd60e51b815260206004820181905260248201526000805160206128ad833981519152604482015290519081900360640190fd5b60006107ae61079661068b565b6107a8856107a2611c5d565b90612319565b90612379565b90506107ba33846123bb565b806107c361196b565b10156107d2576107d2816119eb565b6040805163a9059cbb60e01b81523360048201526024810183905290516000805160206129a08339815191529163a9059cbb9160448083019260209291908290030181600087803b15801561082657600080fd5b505af115801561083a573d6000803e3d6000fd5b505050506040513d602081101561085057600080fd5b50909150505b919050565b60055460ff1690565b6000610675610871612037565b8461071b8560016000610882612037565b6001600160a01b03908116825260208083019390935260409182016000908120918c1681529252902054906124b7565b600080600080600080600060008051602061295b8339815191526001600160a01b031663bf92857c306040518263ffffffff1660e01b815260040180826001600160a01b0316815260200191505060c06040518083038186803b15801561091857600080fd5b505afa15801561092c573d6000803e3d6000fd5b505050506040513d60c081101561094257600080fd5b508051602082015160408301516060840151608085015160a090950151939a5091985096509450909250905067120a871cc00200008111156109bd57600061099060646107a887605f612319565b90506109af61099d6109e2565b6107a883670de0b6b3a7640000612319565b97505050505050505061065e565b6000965050505050505090565b73357d51124f59836ded84c8a1730d72b749d8bc2381565b60008073d05e3e715d945b59290df0ae8ef85c1bdb6847446001600160a01b031663fca513a86040518163ffffffff1660e01b815260040160206040518083038186803b158015610a3257600080fd5b505afa158015610a46573d6000803e3d6000fd5b505050506040513d6020811015610a5c57600080fd5b50516040805163b3596f0760e01b81526000805160206129a0833981519152600482015290519192506001600160a01b0383169163b3596f0791602480820192602092909190829003018186803b158015610ab657600080fd5b505afa158015610aca573d6000803e3d6000fd5b505050506040513d6020811015610ae057600080fd5b505191505090565b67120a871cc002000081565b6000610afe612037565b60055461010090046001600160a01b03908116911614610b53576040805162461bcd60e51b815260206004820181905260248201526000805160206128ad833981519152604482015290519081900360640190fd5b6000836001600160a01b03166370a08231306040518263ffffffff1660e01b815260040180826001600160a01b0316815260200191505060206040518083038186803b158015610ba257600080fd5b505afa158015610bb6573d6000803e3d6000fd5b505050506040513d6020811015610bcc57600080fd5b5051604080516323b872dd60e01b81523060048201526001600160a01b038681166024830152604482018490529151929350908616916323b872dd916064808201926020929091908290030181600087803b158015610c2a57600080fd5b505af1158015610c3e573d6000803e3d6000fd5b505050506040513d6020811015610c5457600080fd5b5090949350505050565b6001600160a01b031660009081526020819052604090205490565b610c81612037565b60055461010090046001600160a01b03908116911614610cd6576040805162461bcd60e51b815260206004820181905260248201526000805160206128ad833981519152604482015290519081900360640190fd5b60055460405160009161010090046001600160a01b0316907f8be0079c531659141344cd1fd0a4f28419497f9722a3daafe3b4186f6b6457e0908390a360058054610100600160a81b0319169055565b610d2e612037565b60055461010090046001600160a01b03908116911614610d83576040805162461bcd60e51b815260206004820181905260248201526000805160206128ad833981519152604482015290519081900360640190fd5b8015610eb95760408051631a4ca37b60e21b81526000805160206129a0833981519152600482015260248101839052306044820152905160008051602061295b833981519152916369328dec9160648083019260209291908290030181600087803b158015610df157600080fd5b505af1158015610e05573d6000803e3d6000fd5b505050506040513d6020811015610e1b57600080fd5b50506040805163573ade8160e01b81526000805160206129a083398151915260048201526024810183905260026044820152306064820152905160008051602061295b8339815191529163573ade819160848083019260209291908290030181600087803b158015610e8c57600080fd5b505af1158015610ea0573d6000803e3d6000fd5b505050506040513d6020811015610eb657600080fd5b50505b50565b610ec4612037565b60055461010090046001600160a01b03908116911614610f19576040805162461bcd60e51b815260206004820181905260248201526000805160206128ad833981519152604482015290519081900360640190fd5b600560005b8181101561105d576000610f306108b2565b9050801561104c576040805163a415bcad60e01b81526000805160206129a083398151915260048201526024810183905260026044820152600060648201819052306084830152915160008051602061295b8339815191529263a415bcad9260a4808201939182900301818387803b158015610fab57600080fd5b505af1158015610fbf573d6000803e3d6000fd5b50506040805163e8eda9df60e01b81526000805160206129a0833981519152600482015260248101859052306044820152600060648201819052915160008051602061295b833981519152945063e8eda9df93506084808301939282900301818387803b15801561102f57600080fd5b505af1158015611043573d6000803e3d6000fd5b50505050611054565b505050611060565b50600101610f1e565b50505b565b60008073d05e3e715d945b59290df0ae8ef85c1bdb6847446001600160a01b03166321f8a7216040518163ffffffff1660e01b815260040180806230783160e81b815250602001905060206040518083038186803b1580156110c357600080fd5b505afa1580156110d7573d6000803e3d6000fd5b505050506040513d60208110156110ed57600080fd5b5051604080516334924edb60e21b81526000805160206129a08339815191526004820152905191925060009182916001600160a01b0385169163d2493b6c91602480820192606092909190829003018186803b15801561114c57600080fd5b505afa158015611160573d6000803e3d6000fd5b505050506040513d606081101561117657600080fd5b5080516040918201518251600280825260608083018652939650919450919260208301908036833701905050905082816000815181106111b257fe5b60200260200101906001600160a01b031690816001600160a01b03168152505081816001815181106111e057fe5b6001600160a01b03909216602092830291909101820152604080516345accf9360e11b815230602482018190526004820192835284516044830152845160009473357d51124f59836ded84c8a1730d72b749d8bc2394638b599f26948894939192839260649092019186820191028083838c5b8381101561126b578181015183820152602001611253565b50505050905001935050505060206040518083038186803b15801561128f57600080fd5b505afa1580156112a3573d6000803e3d6000fd5b505050506040513d60208110156112b957600080fd5b50519550505050505090565b6112cd612037565b60055461010090046001600160a01b03908116911614611322576040805162461bcd60e51b815260206004820181905260248201526000805160206128ad833981519152604482015290519081900360640190fd5b6040805163573ade8160e01b81526000805160206129a083398151915260048201526024810183905260026044820152306064820152905160008051602061295b8339815191529163573ade819160848083019260209291908290030181600087803b158015610e8c57600080fd5b60055461010090046001600160a01b031690565b60048054604080516020601f60026000196101006001881615020190951694909404938401819004810282018101909252828152606093909290918301828280156106565780601f1061062b57610100808354040283529160200191610656565b6000610675611413612037565b8461071b8560405180606001604052806025815260200161297b602591396001600061143d612037565b6001600160a01b03908116825260208083019390935260409182016000908120918d16815292529020549190612282565b600061067561147b612037565b8484612127565b60008051602061295b83398151915281565b61149c612037565b60055461010090046001600160a01b039081169116146114f1576040805162461bcd60e51b815260206004820181905260248201526000805160206128ad833981519152604482015290519081900360640190fd5b600073d05e3e715d945b59290df0ae8ef85c1bdb6847446001600160a01b03166321f8a7216040518163ffffffff1660e01b815260040180806230783160e81b815250602001905060206040518083038186803b15801561155157600080fd5b505afa158015611565573d6000803e3d6000fd5b505050506040513d602081101561157b57600080fd5b5051604080516334924edb60e21b81526000805160206129a08339815191526004820152905191925060009182916001600160a01b0385169163d2493b6c91602480820192606092909190829003018186803b1580156115da57600080fd5b505afa1580156115ee573d6000803e3d6000fd5b505050506040513d606081101561160457600080fd5b50805160409182015182516002808252606080830186529396509194509192602083019080368337019050509050828160008151811061164057fe5b60200260200101906001600160a01b031690816001600160a01b031681525050818160018151811061166e57fe5b6001600160a01b03909216602092830291909101820152604051633111e7b360e01b815260001960248201819052306044830181905260606004840190815285516064850152855173357d51124f59836ded84c8a1730d72b749d8bc2395633111e7b39588959493928392608490920191878101910280838360005b838110156117025781810151838201526020016116ea565b50505050905001945050505050602060405180830381600087803b15801561172957600080fd5b505af115801561173d573d6000803e3d6000fd5b505050506040513d602081101561175357600080fd5b5060008051602061295b833981519152905063e8eda9df6000805160206129a083398151915261178161196b565b604080516001600160e01b031960e086901b1681526001600160a01b0390931660048401526024830191909152306044830152600060648301819052905160848084019382900301818387803b1580156117da57600080fd5b505af11580156117ee573d6000803e3d6000fd5b5050505050505050565b6000611802612037565b60055461010090046001600160a01b03908116911614611857576040805162461bcd60e51b815260206004820181905260248201526000805160206128ad833981519152604482015290519081900360640190fd5b604080516323b872dd60e01b81523360048201523060248201526044810184905290516000805160206129a0833981519152916323b872dd9160648083019260209291908290030181600087803b1580156118b157600080fd5b505af11580156118c5573d6000803e3d6000fd5b505050506040513d60208110156118db57600080fd5b50506040805163e8eda9df60e01b81526000805160206129a0833981519152600482015260248101849052306044820152600060648201819052915160008051602061295b8339815191529263e8eda9df926084808201939182900301818387803b15801561194957600080fd5b505af115801561195d573d6000803e3d6000fd5b505050506108563383612511565b604080516370a0823160e01b815230600482015290516000916000805160206129a0833981519152916370a0823191602480820192602092909190829003018186803b1580156119ba57600080fd5b505afa1580156119ce573d6000803e3d6000fd5b505050506040513d60208110156119e457600080fd5b5051905090565b6119f3612037565b60055461010090046001600160a01b03908116911614611a48576040805162461bcd60e51b815260206004820181905260248201526000805160206128ad833981519152604482015290519081900360640190fd5b611a50611c5d565b811115611a8e5760405162461bcd60e51b81526004018080602001828103825260248152602001806128ee6024913960400191505060405180910390fd5b6000611a9861196b565b90506000611aa4611eb3565b90505b8282108015611ab857506000198114155b15611adf57611ac681610d26565b611ace61196b565b9150611ad8611eb3565b9050611aa7565b60408051631a4ca37b60e21b81526000805160206129a083398151915260048201526000196024820152306044820152905160008051602061295b833981519152916369328dec9160648083019260209291908290030181600087803b158015611b4857600080fd5b505af1158015611b5c573d6000803e3d6000fd5b505050506040513d6020811015611b7257600080fd5b5050505050565b600080600080600080600060008051602061295b8339815191526001600160a01b031663bf92857c306040518263ffffffff1660e01b815260040180826001600160a01b0316815260200191505060c06040518083038186803b158015611bdf57600080fd5b505afa158015611bf3573d6000803e3d6000fd5b505050506040513d60c0811015611c0957600080fd5b508051602082015160408301516060840151608085015160a090950151939a50919850965094509092509050611c52611c406109e2565b6107a887670de0b6b3a7640000612319565b965050505050505090565b6000611c89611c6a611b79565b611c83611c75611cd1565b611c7d61196b565b906124b7565b90612601565b905090565b6001600160a01b03918216600090815260016020908152604080832093909416825291909152205490565b73d05e3e715d945b59290df0ae8ef85c1bdb68474481565b600080600080600080600060008051602061295b8339815191526001600160a01b031663bf92857c306040518263ffffffff1660e01b815260040180826001600160a01b0316815260200191505060c06040518083038186803b158015611d3757600080fd5b505afa158015611d4b573d6000803e3d6000fd5b505050506040513d60c0811015611d6157600080fd5b508051602082015160408301516060840151608085015160a090950151939a50919850965094509092509050611c52611d986109e2565b6107a888670de0b6b3a7640000612319565b611db2612037565b60055461010090046001600160a01b03908116911614611e07576040805162461bcd60e51b815260206004820181905260248201526000805160206128ad833981519152604482015290519081900360640190fd5b6001600160a01b038116611e4c5760405162461bcd60e51b81526004018080602001828103825260268152602001806127f66026913960400191505060405180910390fd5b6005546040516001600160a01b0380841692610100900416907f8be0079c531659141344cd1fd0a4f28419497f9722a3daafe3b4186f6b6457e090600090a3600580546001600160a01b0390921661010002610100600160a81b0319909216919091179055565b600080600080600080600060008051602061295b8339815191526001600160a01b031663bf92857c306040518263ffffffff1660e01b815260040180826001600160a01b0316815260200191505060c06040518083038186803b158015611f1957600080fd5b505afa158015611f2d573d6000803e3d6000fd5b505050506040513d60c0811015611f4357600080fd5b508051602082015160408301516060840151608085015160a090950151939a50919850965094509092509050858580611fb857611fa66040518060400160405280600f81526020016e063616e52657061792c206f776e203608c1b815250612643565b6000199850505050505050505061065e565b6000611fd4611fcd876107a885612710612319565b8490612601565b90506000611fed60646107a8605f6107a2611d986109e2565b90506120206040518060400160405280601081526020016f18d85b94995c185e4b081a5b95d85b9d60821b815250612643565b612029816126e9565b995050505050505050505090565b3390565b6001600160a01b0383166120805760405162461bcd60e51b81526004018080602001828103825260248152602001806129376024913960400191505060405180910390fd5b6001600160a01b0382166120c55760405162461bcd60e51b815260040180806020018281038252602281526020018061281c6022913960400191505060405180910390fd5b6001600160a01b03808416600081815260016020908152604080832094871680845294825291829020859055815185815291517f8c5be1e5ebec7d5bd14f71427d1e84f3dd0314c0f7b2291e5b200ac8c7c3b9259281900390910190a3505050565b6001600160a01b03831661216c5760405162461bcd60e51b81526004018080602001828103825260258152602001806129126025913960400191505060405180910390fd5b6001600160a01b0382166121b15760405162461bcd60e51b81526004018080602001828103825260238152602001806127b16023913960400191505060405180910390fd5b6121bc838383610eb6565b6121f98160405180606001604052806026815260200161283e602691396001600160a01b0386166000908152602081905260409020549190612282565b6001600160a01b03808516600090815260208190526040808220939093559084168152205461222890826124b7565b6001600160a01b038084166000818152602081815260409182902094909455805185815290519193928716927fddf252ad1be2c89b69c2b068fc378daa952ba7f163c4a11628f55a4df523b3ef92918290030190a3505050565b600081848411156123115760405162461bcd60e51b81526004018080602001828103825283818151815260200191508051906020019080838360005b838110156122d65781810151838201526020016122be565b50505050905090810190601f1680156123035780820380516001836020036101000a031916815260200191505b509250505060405180910390fd5b505050900390565b60008261232857506000610679565b8282028284828161233557fe5b04146123725760405162461bcd60e51b81526004018080602001828103825260218152602001806128646021913960400191505060405180910390fd5b9392505050565b600061237283836040518060400160405280601a81526020017f536166654d6174683a206469766973696f6e206279207a65726f00000000000081525061272a565b6001600160a01b0382166124005760405162461bcd60e51b81526004018080602001828103825260218152602001806128cd6021913960400191505060405180910390fd5b61240c82600083610eb6565b612449816040518060600160405280602281526020016127d4602291396001600160a01b0385166000908152602081905260409020549190612282565b6001600160a01b03831660009081526020819052604090205560025461246f9082612601565b6002556040805182815290516000916001600160a01b038516917fddf252ad1be2c89b69c2b068fc378daa952ba7f163c4a11628f55a4df523b3ef9181900360200190a35050565b600082820183811015612372576040805162461bcd60e51b815260206004820152601b60248201527f536166654d6174683a206164646974696f6e206f766572666c6f770000000000604482015290519081900360640190fd5b6001600160a01b03821661256c576040805162461bcd60e51b815260206004820152601f60248201527f45524332303a206d696e7420746f20746865207a65726f206164647265737300604482015290519081900360640190fd5b61257860008383610eb6565b60025461258590826124b7565b6002556001600160a01b0382166000908152602081905260409020546125ab90826124b7565b6001600160a01b0383166000818152602081815260408083209490945583518581529351929391927fddf252ad1be2c89b69c2b068fc378daa952ba7f163c4a11628f55a4df523b3ef9281900390910190a35050565b600061237283836040518060400160405280601e81526020017f536166654d6174683a207375627472616374696f6e206f766572666c6f770000815250612282565b610eb9816040516024018080602001828103825283818151815260200191508051906020019080838360005b8381101561268757818101518382015260200161266f565b50505050905090810190601f1680156126b45780820380516001836020036101000a031916815260200191505b5060408051601f198184030181529190526020810180516001600160e01b031663104c13eb60e21b179052925061278f915050565b6040805160248082018490528251808303909101815260449091019091526020810180516001600160e01b031663f5b1bba960e01b179052610eb99061278f565b600081836127795760405162461bcd60e51b81526020600482018181528351602484015283519092839260449091019190850190808383600083156122d65781810151838201526020016122be565b50600083858161278557fe5b0495945050505050565b80516a636f6e736f6c652e6c6f67602083016000808483855afa505050505056fe45524332303a207472616e7366657220746f20746865207a65726f206164647265737345524332303a206275726e20616d6f756e7420657863656564732062616c616e63654f776e61626c653a206e6577206f776e657220697320746865207a65726f206164647265737345524332303a20617070726f766520746f20746865207a65726f206164647265737345524332303a207472616e7366657220616d6f756e7420657863656564732062616c616e6365536166654d6174683a206d756c7469706c69636174696f6e206f766572666c6f7745524332303a207472616e7366657220616d6f756e74206578636565647320616c6c6f77616e63654f776e61626c653a2063616c6c6572206973206e6f7420746865206f776e657245524332303a206275726e2066726f6d20746865207a65726f206164647265737343616e6e6f74207769746864726177206d6f7265207468616e20746f74616c56616c756545524332303a207472616e736665722066726f6d20746865207a65726f206164647265737345524332303a20617070726f76652066726f6d20746865207a65726f20616464726573730000000000000000000000008dff5e27ea6b7ac08ebfdf9eb090f32ee9a30fcf45524332303a2064656372656173656420616c6c6f77616e63652062656c6f77207a65726f0000000000000000000000000d500b1d8e8ef31e21c99d1db9a6444d3adf1270a2646970667358221220003b1f9da9df127caccfa67ecb032874565ac11d945fdf336f1e4f2c1df6331464736f6c63430007050033",
  "devdoc": {
    "kind": "dev",
    "methods": {
      "allowance(address,address)": {
        "details": "returns the allowance of spender on the tokens owned by owner",
        "params": {
          "owner": "the owner of the tokens",
          "spender": "the user allowed to spend the owner's tokens"
        },
        "returns": {
          "_0": "the amount of owner's tokens spender is allowed to spend*"
        }
      },
      "approve(address,uint256)": {
        "details": "allows spender to spend the tokens owned by msg.sender",
        "params": {
          "spender": "the user allowed to spend msg.sender tokens"
        },
        "returns": {
          "_0": "true*"
        }
      },
      "balanceOf(address)": {
        "returns": {
          "_0": "the balance of the token*"
        }
      },
      "decimals()": {
        "returns": {
          "_0": "the decimals of the token*"
        }
      },
      "decreaseAllowance(address,uint256)": {
        "details": "decreases the allowance of spender to spend msg.sender tokens",
        "params": {
          "spender": "the user allowed to spend on behalf of msg.sender",
          "subtractedValue": "the amount being subtracted to the allowance"
        },
        "returns": {
          "_0": "true*"
        }
      },
      "increaseAllowance(address,uint256)": {
        "details": "increases the allowance of spender to spend msg.sender tokens",
        "params": {
          "addedValue": "the amount being added to the allowance",
          "spender": "the user allowed to spend on behalf of msg.sender"
        },
        "returns": {
          "_0": "true*"
        }
      },
      "name()": {
        "returns": {
          "_0": "the name of the token*"
        }
      },
      "owner()": {
        "details": "Returns the address of the current owner."
      },
      "renounceOwnership()": {
        "details": "Leaves the contract without owner. It will not be possible to call `onlyOwner` functions anymore. Can only be called by the current owner. NOTE: Renouncing ownership will leave the contract without an owner, thereby removing any functionality that is only available to the owner."
      },
      "symbol()": {
        "returns": {
          "_0": "the symbol of the token*"
        }
      },
      "totalSupply()": {
        "returns": {
          "_0": "the total supply of the token*"
        }
      },
      "transfer(address,uint256)": {
        "details": "executes a transfer of tokens from msg.sender to recipient",
        "params": {
          "amount": "the amount of tokens being transferred",
          "recipient": "the recipient of the tokens"
        },
        "returns": {
          "_0": "true if the transfer succeeds, false otherwise*"
        }
      },
      "transferFrom(address,address,uint256)": {
        "details": "executes a transfer of token from sender to recipient, if msg.sender is allowed to do so",
        "params": {
          "amount": "the amount of tokens being transferred",
          "recipient": "the recipient of the tokens",
          "sender": "the owner of the tokens"
        },
        "returns": {
          "_0": "true if the transfer succeeds, false otherwise*"
        }
      },
      "transferOwnership(address)": {
        "details": "Transfers ownership of the contract to a new account (`newOwner`). Can only be called by the current owner."
      }
    },
    "version": 1
  },
  "userdoc": {
    "kind": "user",
    "methods": {
      "withdrawFromAAVE(uint256)": {
        "notice": "Basic AAVE Methods "
      }
    },
    "version": 1
  },
  "storageLayout": {
    "storage": [
      {
        "astId": 3727,
        "contract": "contracts/Myield.sol:Myield",
        "label": "_balances",
        "offset": 0,
        "slot": "0",
        "type": "t_mapping(t_address,t_uint256)"
      },
      {
        "astId": 3733,
        "contract": "contracts/Myield.sol:Myield",
        "label": "_allowances",
        "offset": 0,
        "slot": "1",
        "type": "t_mapping(t_address,t_mapping(t_address,t_uint256))"
      },
      {
        "astId": 3735,
        "contract": "contracts/Myield.sol:Myield",
        "label": "_totalSupply",
        "offset": 0,
        "slot": "2",
        "type": "t_uint256"
      },
      {
        "astId": 3737,
        "contract": "contracts/Myield.sol:Myield",
        "label": "_name",
        "offset": 0,
        "slot": "3",
        "type": "t_string_storage"
      },
      {
        "astId": 3739,
        "contract": "contracts/Myield.sol:Myield",
        "label": "_symbol",
        "offset": 0,
        "slot": "4",
        "type": "t_string_storage"
      },
      {
        "astId": 3741,
        "contract": "contracts/Myield.sol:Myield",
        "label": "_decimals",
        "offset": 0,
        "slot": "5",
        "type": "t_uint8"
      },
      {
        "astId": 4658,
        "contract": "contracts/Myield.sol:Myield",
        "label": "_owner",
        "offset": 1,
        "slot": "5",
        "type": "t_address"
      }
    ],
    "types": {
      "t_address": {
        "encoding": "inplace",
        "label": "address",
        "numberOfBytes": "20"
      },
      "t_mapping(t_address,t_mapping(t_address,t_uint256))": {
        "encoding": "mapping",
        "key": "t_address",
        "label": "mapping(address => mapping(address => uint256))",
        "numberOfBytes": "32",
        "value": "t_mapping(t_address,t_uint256)"
      },
      "t_mapping(t_address,t_uint256)": {
        "encoding": "mapping",
        "key": "t_address",
        "label": "mapping(address => uint256)",
        "numberOfBytes": "32",
        "value": "t_uint256"
      },
      "t_string_storage": {
        "encoding": "bytes",
        "label": "string",
        "numberOfBytes": "32"
      },
      "t_uint256": {
        "encoding": "inplace",
        "label": "uint256",
        "numberOfBytes": "32"
      },
      "t_uint8": {
        "encoding": "inplace",
        "label": "uint8",
        "numberOfBytes": "1"
      }
    }
  }
}