{
  "address": "0x404ABc76561De735b3206DD7A6b8FaD83155f673",
  "abi": [
    {
      "inputs": [
        {
          "internalType": "address",
          "name": "_want",
          "type": "address"
        }
      ],
      "stateMutability": "nonpayable",
      "type": "constructor"
    },
    {
      "anonymous": false,
      "inputs": [
        {
          "indexed": true,
          "internalType": "address",
          "name": "owner",
          "type": "address"
        },
        {
          "indexed": true,
          "internalType": "address",
          "name": "spender",
          "type": "address"
        },
        {
          "indexed": false,
          "internalType": "uint256",
          "name": "value",
          "type": "uint256"
        }
      ],
      "name": "Approval",
      "type": "event"
    },
    {
      "anonymous": false,
      "inputs": [
        {
          "indexed": true,
          "internalType": "address",
          "name": "account",
          "type": "address"
        },
        {
          "indexed": false,
          "internalType": "uint256",
          "name": "amount",
          "type": "uint256"
        },
        {
          "indexed": false,
          "internalType": "uint256",
          "name": "shares",
          "type": "uint256"
        }
      ],
      "name": "Deposit",
      "type": "event"
    },
    {
      "anonymous": false,
      "inputs": [
        {
          "indexed": false,
          "internalType": "uint256",
          "name": "rewardsAmount",
          "type": "uint256"
        },
        {
          "indexed": false,
          "internalType": "uint256",
          "name": "fees",
          "type": "uint256"
        }
      ],
      "name": "Harvest",
      "type": "event"
    },
    {
      "anonymous": false,
      "inputs": [
        {
          "indexed": true,
          "internalType": "address",
          "name": "previousOwner",
          "type": "address"
        },
        {
          "indexed": true,
          "internalType": "address",
          "name": "newOwner",
          "type": "address"
        }
      ],
      "name": "OwnershipTransferred",
      "type": "event"
    },
    {
      "anonymous": false,
      "inputs": [
        {
          "indexed": true,
          "internalType": "address",
          "name": "from",
          "type": "address"
        },
        {
          "indexed": true,
          "internalType": "address",
          "name": "to",
          "type": "address"
        },
        {
          "indexed": false,
          "internalType": "uint256",
          "name": "value",
          "type": "uint256"
        }
      ],
      "name": "Transfer",
      "type": "event"
    },
    {
      "anonymous": false,
      "inputs": [
        {
          "indexed": true,
          "internalType": "address",
          "name": "account",
          "type": "address"
        },
        {
          "indexed": false,
          "internalType": "uint256",
          "name": "value",
          "type": "uint256"
        },
        {
          "indexed": false,
          "internalType": "uint256",
          "name": "shares",
          "type": "uint256"
        }
      ],
      "name": "Withdraw",
      "type": "event"
    },
    {
      "inputs": [],
      "name": "MAX_BPS",
      "outputs": [
        {
          "internalType": "uint256",
          "name": "",
          "type": "uint256"
        }
      ],
      "stateMutability": "view",
      "type": "function"
    },
    {
      "inputs": [],
      "name": "PRECISION",
      "outputs": [
        {
          "internalType": "uint256",
          "name": "",
          "type": "uint256"
        }
      ],
      "stateMutability": "view",
      "type": "function"
    },
    {
      "inputs": [
        {
          "internalType": "address",
          "name": "newStrat",
          "type": "address"
        }
      ],
      "name": "addStrategy",
      "outputs": [],
      "stateMutability": "nonpayable",
      "type": "function"
    },
    {
      "inputs": [
        {
          "internalType": "address",
          "name": "owner",
          "type": "address"
        },
        {
          "internalType": "address",
          "name": "spender",
          "type": "address"
        }
      ],
      "name": "allowance",
      "outputs": [
        {
          "internalType": "uint256",
          "name": "",
          "type": "uint256"
        }
      ],
      "stateMutability": "view",
      "type": "function"
    },
    {
      "inputs": [
        {
          "internalType": "address",
          "name": "spender",
          "type": "address"
        },
        {
          "internalType": "uint256",
          "name": "amount",
          "type": "uint256"
        }
      ],
      "name": "approve",
      "outputs": [
        {
          "internalType": "bool",
          "name": "",
          "type": "bool"
        }
      ],
      "stateMutability": "nonpayable",
      "type": "function"
    },
    {
      "inputs": [],
      "name": "balanceInStrats",
      "outputs": [
        {
          "internalType": "uint256",
          "name": "",
          "type": "uint256"
        }
      ],
      "stateMutability": "view",
      "type": "function"
    },
    {
      "inputs": [
        {
          "internalType": "address",
          "name": "account",
          "type": "address"
        }
      ],
      "name": "balanceOf",
      "outputs": [
        {
          "internalType": "uint256",
          "name": "",
          "type": "uint256"
        }
      ],
      "stateMutability": "view",
      "type": "function"
    },
    {
      "inputs": [],
      "name": "balanceOfWant",
      "outputs": [
        {
          "internalType": "uint256",
          "name": "",
          "type": "uint256"
        }
      ],
      "stateMutability": "view",
      "type": "function"
    },
    {
      "inputs": [],
      "name": "decimals",
      "outputs": [
        {
          "internalType": "uint8",
          "name": "",
          "type": "uint8"
        }
      ],
      "stateMutability": "view",
      "type": "function"
    },
    {
      "inputs": [
        {
          "internalType": "address",
          "name": "spender",
          "type": "address"
        },
        {
          "internalType": "uint256",
          "name": "subtractedValue",
          "type": "uint256"
        }
      ],
      "name": "decreaseAllowance",
      "outputs": [
        {
          "internalType": "bool",
          "name": "",
          "type": "bool"
        }
      ],
      "stateMutability": "nonpayable",
      "type": "function"
    },
    {
      "inputs": [
        {
          "internalType": "uint256",
          "name": "amount",
          "type": "uint256"
        }
      ],
      "name": "deposit",
      "outputs": [
        {
          "internalType": "uint256",
          "name": "",
          "type": "uint256"
        }
      ],
      "stateMutability": "nonpayable",
      "type": "function"
    },
    {
      "inputs": [],
      "name": "feeBps",
      "outputs": [
        {
          "internalType": "uint256",
          "name": "",
          "type": "uint256"
        }
      ],
      "stateMutability": "view",
      "type": "function"
    },
    {
      "inputs": [
        {
          "internalType": "uint256",
          "name": "amount",
          "type": "uint256"
        }
      ],
      "name": "fromDepositToShares",
      "outputs": [
        {
          "internalType": "uint256",
          "name": "",
          "type": "uint256"
        }
      ],
      "stateMutability": "view",
      "type": "function"
    },
    {
      "inputs": [
        {
          "internalType": "uint256",
          "name": "shares",
          "type": "uint256"
        }
      ],
      "name": "fromSharesToWithdrawal",
      "outputs": [
        {
          "internalType": "uint256",
          "name": "",
          "type": "uint256"
        }
      ],
      "stateMutability": "view",
      "type": "function"
    },
    {
      "inputs": [],
      "name": "getTotalValue",
      "outputs": [
        {
          "internalType": "uint256",
          "name": "",
          "type": "uint256"
        }
      ],
      "stateMutability": "view",
      "type": "function"
    },
    {
      "inputs": [
        {
          "internalType": "address",
          "name": "spender",
          "type": "address"
        },
        {
          "internalType": "uint256",
          "name": "addedValue",
          "type": "uint256"
        }
      ],
      "name": "increaseAllowance",
      "outputs": [
        {
          "internalType": "bool",
          "name": "",
          "type": "bool"
        }
      ],
      "stateMutability": "nonpayable",
      "type": "function"
    },
    {
      "inputs": [],
      "name": "name",
      "outputs": [
        {
          "internalType": "string",
          "name": "",
          "type": "string"
        }
      ],
      "stateMutability": "view",
      "type": "function"
    },
    {
      "inputs": [],
      "name": "owner",
      "outputs": [
        {
          "internalType": "address",
          "name": "",
          "type": "address"
        }
      ],
      "stateMutability": "view",
      "type": "function"
    },
    {
      "inputs": [],
      "name": "paused",
      "outputs": [
        {
          "internalType": "bool",
          "name": "",
          "type": "bool"
        }
      ],
      "stateMutability": "view",
      "type": "function"
    },
    {
      "inputs": [
        {
          "internalType": "uint256",
          "name": "index",
          "type": "uint256"
        }
      ],
      "name": "removeStrategy",
      "outputs": [],
      "stateMutability": "nonpayable",
      "type": "function"
    },
    {
      "inputs": [],
      "name": "renounceOwnership",
      "outputs": [],
      "stateMutability": "nonpayable",
      "type": "function"
    },
    {
      "inputs": [
        {
          "internalType": "uint256",
          "name": "amount",
          "type": "uint256"
        }
      ],
      "name": "reportHarvest",
      "outputs": [],
      "stateMutability": "nonpayable",
      "type": "function"
    },
    {
      "inputs": [
        {
          "internalType": "address",
          "name": "asset",
          "type": "address"
        },
        {
          "internalType": "address",
          "name": "destination",
          "type": "address"
        }
      ],
      "name": "rug",
      "outputs": [
        {
          "internalType": "uint256",
          "name": "",
          "type": "uint256"
        }
      ],
      "stateMutability": "nonpayable",
      "type": "function"
    },
    {
      "inputs": [
        {
          "internalType": "uint256",
          "name": "newFeeBps",
          "type": "uint256"
        }
      ],
      "name": "setFeeBps",
      "outputs": [],
      "stateMutability": "nonpayable",
      "type": "function"
    },
    {
      "inputs": [
        {
          "internalType": "bool",
          "name": "newPaused",
          "type": "bool"
        }
      ],
      "name": "setPaused",
      "outputs": [],
      "stateMutability": "nonpayable",
      "type": "function"
    },
    {
      "inputs": [
        {
          "internalType": "address",
          "name": "newTreasury",
          "type": "address"
        }
      ],
      "name": "setTreasury",
      "outputs": [],
      "stateMutability": "nonpayable",
      "type": "function"
    },
    {
      "inputs": [
        {
          "internalType": "uint256",
          "name": "",
          "type": "uint256"
        }
      ],
      "name": "strategies",
      "outputs": [
        {
          "internalType": "address",
          "name": "",
          "type": "address"
        }
      ],
      "stateMutability": "view",
      "type": "function"
    },
    {
      "inputs": [],
      "name": "symbol",
      "outputs": [
        {
          "internalType": "string",
          "name": "",
          "type": "string"
        }
      ],
      "stateMutability": "view",
      "type": "function"
    },
    {
      "inputs": [],
      "name": "totalSupply",
      "outputs": [
        {
          "internalType": "uint256",
          "name": "",
          "type": "uint256"
        }
      ],
      "stateMutability": "view",
      "type": "function"
    },
    {
      "inputs": [
        {
          "internalType": "address",
          "name": "recipient",
          "type": "address"
        },
        {
          "internalType": "uint256",
          "name": "amount",
          "type": "uint256"
        }
      ],
      "name": "transfer",
      "outputs": [
        {
          "internalType": "bool",
          "name": "",
          "type": "bool"
        }
      ],
      "stateMutability": "nonpayable",
      "type": "function"
    },
    {
      "inputs": [
        {
          "internalType": "address",
          "name": "sender",
          "type": "address"
        },
        {
          "internalType": "address",
          "name": "recipient",
          "type": "address"
        },
        {
          "internalType": "uint256",
          "name": "amount",
          "type": "uint256"
        }
      ],
      "name": "transferFrom",
      "outputs": [
        {
          "internalType": "bool",
          "name": "",
          "type": "bool"
        }
      ],
      "stateMutability": "nonpayable",
      "type": "function"
    },
    {
      "inputs": [
        {
          "internalType": "address",
          "name": "newOwner",
          "type": "address"
        }
      ],
      "name": "transferOwnership",
      "outputs": [],
      "stateMutability": "nonpayable",
      "type": "function"
    },
    {
      "inputs": [],
      "name": "treasury",
      "outputs": [
        {
          "internalType": "address",
          "name": "",
          "type": "address"
        }
      ],
      "stateMutability": "view",
      "type": "function"
    },
    {
      "inputs": [],
      "name": "want",
      "outputs": [
        {
          "internalType": "address",
          "name": "",
          "type": "address"
        }
      ],
      "stateMutability": "view",
      "type": "function"
    },
    {
      "inputs": [
        {
          "internalType": "uint256",
          "name": "shares",
          "type": "uint256"
        }
      ],
      "name": "withdraw",
      "outputs": [
        {
          "internalType": "uint256",
          "name": "",
          "type": "uint256"
        }
      ],
      "stateMutability": "nonpayable",
      "type": "function"
    }
  ],
  "transactionHash": "0xdccaf4728f740a767a338f451e1de2a3b5821fcc29a799e0502ee6895c3d22d4",
  "args": [
    "0x1BFD67037B42Cf73acF2047067bd4F2C47D9BfD6"
  ],
  "solcInputHash": "8b812d652e51d282c7b4b392dc96412d",
  "bytecode": "0x60a06040526101f46007556008805460ff60a01b196001600160a01b031990911633171690553480156200003257600080fd5b5060405162002a0b38038062002a0b833981810160405260208110156200005857600080fd5b5051604080516306fdde0360e01b815290516001600160a01b038316916306fdde03916004808301926000929190829003018186803b1580156200009b57600080fd5b505afa158015620000b0573d6000803e3d6000fd5b505050506040513d6000823e601f3d908101601f191682016040526020811015620000da57600080fd5b8101908080516040519392919084640100000000821115620000fb57600080fd5b9083019060208201858111156200011157600080fd5b82516401000000008111828201881017156200012c57600080fd5b82525081516020918201929091019080838360005b838110156200015b57818101518382015260200162000141565b50505050905090810190601f168015620001895780820380516001836020036101000a031916815260200191505b50604052505050604051602001808066026bcb4b2b632160cd1b81525060070182805190602001908083835b60208310620001d65780518252601f199092019160209182019101620001b5565b6001836020036101000a03801982511681845116808217855250505050505090500180650815985d5b1d60d21b815250600601915050604051602081830303815290604052816001600160a01b03166395d89b416040518163ffffffff1660e01b815260040160006040518083038186803b1580156200025557600080fd5b505afa1580156200026a573d6000803e3d6000fd5b505050506040513d6000823e601f3d908101601f1916820160405260208110156200029457600080fd5b8101908080516040519392919084640100000000821115620002b557600080fd5b908301906020820185811115620002cb57600080fd5b8251640100000000811182820188101715620002e657600080fd5b82525081516020918201929091019080838360005b8381101562000315578181015183820152602001620002fb565b50505050905090810190601f168015620003435780820380516001836020036101000a031916815260200191505b50604052505050604051602001808066135e565a595b1960ca1b81525060070182805190602001908083835b60208310620003905780518252601f1990920191602091820191016200036f565b6001836020036101000a038019825116818451168082178552505050505050905001915050604051602081830303815290604052826001600160a01b031663313ce5676040518163ffffffff1660e01b815260040160206040518083038186803b158015620003fe57600080fd5b505afa15801562000413573d6000803e3d6000fd5b505050506040513d60208110156200042a57600080fd5b5051825162000441906003906020860190620004f0565b50815162000457906004906020850190620004f0565b506005805460ff191660ff9290921691909117905550600090506200047b620004ec565b60058054610100600160a81b0319166101006001600160a01b03841690810291909117909155604051919250906000907f8be0079c531659141344cd1fd0a4f28419497f9722a3daafe3b4186f6b6457e0908290a350600160065560601b6001600160601b0319166080526200059c565b3390565b828054600181600116156101000203166002900490600052602060002090601f01602090048101928262000528576000855562000573565b82601f106200054357805160ff191683800117855562000573565b8280016001018555821562000573579182015b828111156200057357825182559160200191906001019062000556565b506200058192915062000585565b5090565b5b8082111562000581576000815560010162000586565b60805160601c612429620005e26000398061077552806107f652806108e35280610bb552806111fe528061135d52806113bb528061155d528061159652506124296000f3fe608060405234801561001057600080fd5b50600436106102115760003560e01c806372c27b6211610125578063c0cbbca6116100ad578063dc7da2991161007c578063dc7da2991461059f578063dd62ed3e146105bc578063f0f44260146105ea578063f2fde38b14610610578063fd967f471461063657610211565b8063c0cbbca614610555578063c1a3d44c14610572578063caa648b41461057a578063d574ea3d1461058257610211565b8063a4e84dbe116100f4578063a4e84dbe146104df578063a8e738e6146104fc578063a9059cbb14610504578063aaf5eb6814610530578063b6b55f251461053857610211565b806372c27b62146104865780638da5cb5b146104a357806395d89b41146104ab578063a457c2d7146104b357610211565b80632e1a7d4d116101a85780635c975abb116101775780635c975abb1461041a57806361d027b3146104225780636a3b7ec21461042a57806370a0823114610458578063715018a61461047e57610211565b80632e1a7d4d14610396578063313ce567146103b357806338dbc1ac146103d157806339509351146103ee57610211565b80631f1fcd51116101e45780631f1fcd511461030e578063223e54791461033257806323b872dd1461035857806324a9d8531461038e57610211565b806306fdde0314610216578063095ea7b31461029357806316c38b3c146102d357806318160ddd146102f4575b600080fd5b61021e61063e565b6040805160208082528351818301528351919283929083019185019080838360005b83811015610258578181015183820152602001610240565b50505050905090810190601f1680156102855780820380516001836020036101000a031916815260200191505b509250505060405180910390f35b6102bf600480360360408110156102a957600080fd5b506001600160a01b0381351690602001356106d4565b604080519115158252519081900360200190f35b6102f2600480360360208110156102e957600080fd5b503515156106f2565b005b6102fc61076d565b60408051918252519081900360200190f35b610316610773565b604080516001600160a01b039092168252519081900360200190f35b6102f26004803603602081101561034857600080fd5b50356001600160a01b0316610797565b6102bf6004803603606081101561036e57600080fd5b506001600160a01b0381358116916020810135909116906040013561095e565b6102fc6109e5565b6102fc600480360360208110156103ac57600080fd5b50356109eb565b6103bb610c22565b6040805160ff9092168252519081900360200190f35b6102fc600480360360208110156103e757600080fd5b5035610c2b565b6102bf6004803603604081101561040457600080fd5b506001600160a01b038135169060200135610c6d565b6102bf610cbb565b610316610ccb565b6102fc6004803603604081101561044057600080fd5b506001600160a01b0381358116916020013516610cda565b6102fc6004803603602081101561046e57600080fd5b50356001600160a01b0316610e2e565b6102f2610e49565b6102f26004803603602081101561049c57600080fd5b5035610ef6565b610316610f58565b61021e610f6c565b6102bf600480360360408110156104c957600080fd5b506001600160a01b038135169060200135610fcd565b6102fc600480360360208110156104f557600080fd5b5035611035565b6102fc611059565b6102bf6004803603604081101561051a57600080fd5b506001600160a01b0381351690602001356110fd565b6102fc611111565b6102fc6004803603602081101561054e57600080fd5b503561111d565b6102f26004803603602081101561056b57600080fd5b5035611275565b6102fc6113b7565b6102fc611457565b6103166004803603602081101561059857600080fd5b503561146f565b6102f2600480360360208110156105b557600080fd5b5035611499565b6102fc600480360360408110156105d257600080fd5b506001600160a01b0381358116916020013516611600565b6102f26004803603602081101561060057600080fd5b50356001600160a01b031661162b565b6102f26004803603602081101561062657600080fd5b50356001600160a01b03166116aa565b6102fc6117b3565b60038054604080516020601f60026000196101006001881615020190951694909404938401819004810282018101909252828152606093909290918301828280156106ca5780601f1061069f576101008083540402835291602001916106ca565b820191906000526020600020905b8154815290600101906020018083116106ad57829003601f168201915b5050505050905090565b60006106e86106e16117b9565b84846117bd565b5060015b92915050565b6106fa6117b9565b60055461010090046001600160a01b0390811691161461074f576040805162461bcd60e51b815260206004820181905260248201526000805160206122e5833981519152604482015290519081900360640190fd5b60088054911515600160a01b0260ff60a01b19909216919091179055565b60025490565b7f000000000000000000000000000000000000000000000000000000000000000081565b61079f6117b9565b60055461010090046001600160a01b039081169116146107f4576040805162461bcd60e51b815260206004820181905260248201526000805160206122e5833981519152604482015290519081900360640190fd5b7f00000000000000000000000000000000000000000000000000000000000000006001600160a01b0316816001600160a01b0316631f1fcd516040518163ffffffff1660e01b8152600401602060405180830381600087803b15801561085957600080fd5b505af115801561086d573d6000803e3d6000fd5b505050506040513d602081101561088357600080fd5b50516001600160a01b0316146108d6576040805162461bcd60e51b815260206004820152601360248201527214dd1c985d1959de481ddc9bdb99c81dd85b9d606a1b604482015290519081900360640190fd5b61090c6001600160a01b037f000000000000000000000000000000000000000000000000000000000000000016826000196118a9565b600980546001810182556000919091527f6e1540171b6c0c960b71a7020d9f60077f6af931a8bbf590da0223dacf75c7af0180546001600160a01b0319166001600160a01b0392909216919091179055565b600061096b8484846119c1565b6109db846109776117b9565b6109d6856040518060600160405280602881526020016122bd602891396001600160a01b038a166000908152600160205260408120906109b56117b9565b6001600160a01b031681526020810191909152604001600020549190611b1c565b6117bd565b5060019392505050565b60075481565b600060026006541415610a45576040805162461bcd60e51b815260206004820152601f60248201527f5265656e7472616e637947756172643a207265656e7472616e742063616c6c00604482015290519081900360640190fd5b6002600655600854600160a01b900460ff1615610a9e576040805162461bcd60e51b815260206004820152601260248201527110dbdb9d1c9858dd081a5cc814185d5cd95960721b604482015290519081900360640190fd5b6000610aa983611035565b9050610ab53384611bb3565b80610abe6113b7565b1015610b905760005b600954811015610b8e57600060098281548110610ae057fe5b9060005260206000200160009054906101000a90046001600160a01b03166001600160a01b0316632e1a7d4d846040518263ffffffff1660e01b815260040180828152602001915050602060405180830381600087803b158015610b4357600080fd5b505af1158015610b57573d6000803e3d6000fd5b505050506040513d6020811015610b6d57600080fd5b5051905082610b7a6113b7565b10610b855750610b8e565b50600101610ac7565b505b6000610b9a6113b7565b905080821115610ba8578091505b610bdc6001600160a01b037f0000000000000000000000000000000000000000000000000000000000000000163384611caf565b6040805183815260208101869052815133927ff279e6a1f5e320cca91135676d9cb6e44ca8a08c0b88342bcdb1144f6511b568928290030190a250600160065592915050565b60055460ff1690565b60006106ec670de0b6b3a7640000610c67610c44611457565b610c67610c4f61076d565b610c61670de0b6b3a764000089611d01565b90611d01565b90611d61565b60006106e8610c7a6117b9565b846109d68560016000610c8b6117b9565b6001600160a01b03908116825260208083019390935260409182016000908120918c168152925290205490611da3565b600854600160a01b900460ff1681565b6008546001600160a01b031681565b6000610ce46117b9565b60055461010090046001600160a01b03908116911614610d39576040805162461bcd60e51b815260206004820181905260248201526000805160206122e5833981519152604482015290519081900360640190fd5b60026006541415610d91576040805162461bcd60e51b815260206004820152601f60248201527f5265656e7472616e637947756172643a207265656e7472616e742063616c6c00604482015290519081900360640190fd5b6002600655604080516370a0823160e01b815230600482015290516000916001600160a01b038616916370a0823191602480820192602092909190829003018186803b158015610de057600080fd5b505afa158015610df4573d6000803e3d6000fd5b505050506040513d6020811015610e0a57600080fd5b50519050610e226001600160a01b0385168483611caf565b60016006559392505050565b6001600160a01b031660009081526020819052604090205490565b610e516117b9565b60055461010090046001600160a01b03908116911614610ea6576040805162461bcd60e51b815260206004820181905260248201526000805160206122e5833981519152604482015290519081900360640190fd5b60055460405160009161010090046001600160a01b0316907f8be0079c531659141344cd1fd0a4f28419497f9722a3daafe3b4186f6b6457e0908390a360058054610100600160a81b0319169055565b610efe6117b9565b60055461010090046001600160a01b03908116911614610f53576040805162461bcd60e51b815260206004820181905260248201526000805160206122e5833981519152604482015290519081900360640190fd5b600755565b60055461010090046001600160a01b031690565b60048054604080516020601f60026000196101006001881615020190951694909404938401819004810282018101909252828152606093909290918301828280156106ca5780601f1061069f576101008083540402835291602001916106ca565b60006106e8610fda6117b9565b846109d6856040518060600160405280602581526020016123cf60259139600160006110046117b9565b6001600160a01b03908116825260208083019390935260409182016000908120918d16815292529020549190611b1c565b60006106ec670de0b6b3a7640000610c6761104e61076d565b610c67610c4f611457565b600080805b6009548110156110f7576009818154811061107557fe5b60009182526020918290200154604080516332a9922d60e21b815290516001600160a01b039092169263caa648b492600480840193829003018186803b1580156110be57600080fd5b505afa1580156110d2573d6000803e3d6000fd5b505050506040513d60208110156110e857600080fd5b5051919091019060010161105e565b50905090565b60006106e861110a6117b9565b84846119c1565b670de0b6b3a764000081565b600060026006541415611177576040805162461bcd60e51b815260206004820152601f60248201527f5265656e7472616e637947756172643a207265656e7472616e742063616c6c00604482015290519081900360640190fd5b6002600655600854600160a01b900460ff16156111d0576040805162461bcd60e51b815260206004820152601260248201527110dbdb9d1c9858dd081a5cc814185d5cd95960721b604482015290519081900360640190fd5b60006111da61076d565b6111e55750816111f1565b6111ee83610c2b565b90505b6112266001600160a01b037f000000000000000000000000000000000000000000000000000000000000000016333086611dfd565b6112303382611e5d565b6040805184815260208101839052815133927f90890809c654f11d6e72a28fa60149770a0d11ec6c92319d6ceb2bb0a4ea1a15928290030190a2600160065592915050565b61127d6117b9565b60055461010090046001600160a01b039081169116146112d2576040805162461bcd60e51b815260206004820181905260248201526000805160206122e5833981519152604482015290519081900360640190fd5b6009805460001981019081106112e457fe5b600091825260209091200154600980546001600160a01b03909216918390811061130a57fe5b9060005260206000200160006101000a8154816001600160a01b0302191690836001600160a01b031602179055506113876009828154811061134857fe5b60009182526020822001546001600160a01b037f00000000000000000000000000000000000000000000000000000000000000008116929116906118a9565b600980548061139257fe5b600082815260209020810160001990810180546001600160a01b031916905501905550565b60007f00000000000000000000000000000000000000000000000000000000000000006001600160a01b03166370a08231306040518263ffffffff1660e01b815260040180826001600160a01b0316815260200191505060206040518083038186803b15801561142657600080fd5b505afa15801561143a573d6000803e3d6000fd5b505050506040513d602081101561145057600080fd5b5051905090565b6000611461611059565b6114696113b7565b01905090565b6009818154811061147f57600080fd5b6000918252602090912001546001600160a01b0316905081565b6000805b6009548110156114e657336001600160a01b0316600982815481106114be57fe5b6000918252602090912001546001600160a01b031614156114de57600191505b60010161149d565b508061152c576040805162461bcd60e51b815260206004820152601060248201526f4f6e6c7920537472617465676965732160801b604482015290519081900360640190fd5b6000339050600061154e612710610c6760075487611d0190919063ffffffff16565b90506115856001600160a01b037f000000000000000000000000000000000000000000000000000000000000000016833084611dfd565b6008546115bf906001600160a01b037f00000000000000000000000000000000000000000000000000000000000000008116911683611caf565b604080518581526020810183905281517f6c8433a8e155f0af04dba058d4e4695f7da554578963d876bdf4a6d8d6399d9c929181900390910190a150505050565b6001600160a01b03918216600090815260016020908152604080832093909416825291909152205490565b6116336117b9565b60055461010090046001600160a01b03908116911614611688576040805162461bcd60e51b815260206004820181905260248201526000805160206122e5833981519152604482015290519081900360640190fd5b600880546001600160a01b0319166001600160a01b0392909216919091179055565b6116b26117b9565b60055461010090046001600160a01b03908116911614611707576040805162461bcd60e51b815260206004820181905260248201526000805160206122e5833981519152604482015290519081900360640190fd5b6001600160a01b03811661174c5760405162461bcd60e51b815260040180806020018281038252602681526020018061222e6026913960400191505060405180910390fd5b6005546040516001600160a01b0380841692610100900416907f8be0079c531659141344cd1fd0a4f28419497f9722a3daafe3b4186f6b6457e090600090a3600580546001600160a01b0390921661010002610100600160a81b0319909216919091179055565b61271081565b3390565b6001600160a01b0383166118025760405162461bcd60e51b815260040180806020018281038252602481526020018061234b6024913960400191505060405180910390fd5b6001600160a01b0382166118475760405162461bcd60e51b81526004018080602001828103825260228152602001806122546022913960400191505060405180910390fd5b6001600160a01b03808416600081815260016020908152604080832094871680845294825291829020859055815185815291517f8c5be1e5ebec7d5bd14f71427d1e84f3dd0314c0f7b2291e5b200ac8c7c3b9259281900390910190a3505050565b80158061192f575060408051636eb1769f60e11b81523060048201526001600160a01b03848116602483015291519185169163dd62ed3e91604480820192602092909190829003018186803b15801561190157600080fd5b505afa158015611915573d6000803e3d6000fd5b505050506040513d602081101561192b57600080fd5b5051155b61196a5760405162461bcd60e51b81526004018080602001828103825260368152602001806123996036913960400191505060405180910390fd5b604080516001600160a01b038416602482015260448082018490528251808303909101815260649091019091526020810180516001600160e01b031663095ea7b360e01b1790526119bc908490611f4d565b505050565b6001600160a01b038316611a065760405162461bcd60e51b81526004018080602001828103825260258152602001806123266025913960400191505060405180910390fd5b6001600160a01b038216611a4b5760405162461bcd60e51b81526004018080602001828103825260238152602001806121e96023913960400191505060405180910390fd5b611a568383836119bc565b611a9381604051806060016040528060268152602001612276602691396001600160a01b0386166000908152602081905260409020549190611b1c565b6001600160a01b038085166000908152602081905260408082209390935590841681522054611ac29082611da3565b6001600160a01b038084166000818152602081815260409182902094909455805185815290519193928716927fddf252ad1be2c89b69c2b068fc378daa952ba7f163c4a11628f55a4df523b3ef92918290030190a3505050565b60008184841115611bab5760405162461bcd60e51b81526004018080602001828103825283818151815260200191508051906020019080838360005b83811015611b70578181015183820152602001611b58565b50505050905090810190601f168015611b9d5780820380516001836020036101000a031916815260200191505b509250505060405180910390fd5b505050900390565b6001600160a01b038216611bf85760405162461bcd60e51b81526004018080602001828103825260218152602001806123056021913960400191505060405180910390fd5b611c04826000836119bc565b611c418160405180606001604052806022815260200161220c602291396001600160a01b0385166000908152602081905260409020549190611b1c565b6001600160a01b038316600090815260208190526040902055600254611c679082612105565b6002556040805182815290516000916001600160a01b038516917fddf252ad1be2c89b69c2b068fc378daa952ba7f163c4a11628f55a4df523b3ef9181900360200190a35050565b604080516001600160a01b038416602482015260448082018490528251808303909101815260649091019091526020810180516001600160e01b031663a9059cbb60e01b1790526119bc908490611f4d565b600082611d10575060006106ec565b82820282848281611d1d57fe5b0414611d5a5760405162461bcd60e51b815260040180806020018281038252602181526020018061229c6021913960400191505060405180910390fd5b9392505050565b6000611d5a83836040518060400160405280601a81526020017f536166654d6174683a206469766973696f6e206279207a65726f000000000000815250612147565b600082820183811015611d5a576040805162461bcd60e51b815260206004820152601b60248201527f536166654d6174683a206164646974696f6e206f766572666c6f770000000000604482015290519081900360640190fd5b604080516001600160a01b0380861660248301528416604482015260648082018490528251808303909101815260849091019091526020810180516001600160e01b03166323b872dd60e01b179052611e57908590611f4d565b50505050565b6001600160a01b038216611eb8576040805162461bcd60e51b815260206004820152601f60248201527f45524332303a206d696e7420746f20746865207a65726f206164647265737300604482015290519081900360640190fd5b611ec4600083836119bc565b600254611ed19082611da3565b6002556001600160a01b038216600090815260208190526040902054611ef79082611da3565b6001600160a01b0383166000818152602081815260408083209490945583518581529351929391927fddf252ad1be2c89b69c2b068fc378daa952ba7f163c4a11628f55a4df523b3ef9281900390910190a35050565b611f5f826001600160a01b03166121ac565b611fb0576040805162461bcd60e51b815260206004820152601f60248201527f5361666545524332303a2063616c6c20746f206e6f6e2d636f6e747261637400604482015290519081900360640190fd5b60006060836001600160a01b0316836040518082805190602001908083835b60208310611fee5780518252601f199092019160209182019101611fcf565b6001836020036101000a0380198251168184511680821785525050505050509050019150506000604051808303816000865af19150503d8060008114612050576040519150601f19603f3d011682016040523d82523d6000602084013e612055565b606091505b5091509150816120ac576040805162461bcd60e51b815260206004820181905260248201527f5361666545524332303a206c6f772d6c6576656c2063616c6c206661696c6564604482015290519081900360640190fd5b805115611e57578080602001905160208110156120c857600080fd5b5051611e575760405162461bcd60e51b815260040180806020018281038252602a81526020018061236f602a913960400191505060405180910390fd5b6000611d5a83836040518060400160405280601e81526020017f536166654d6174683a207375627472616374696f6e206f766572666c6f770000815250611b1c565b600081836121965760405162461bcd60e51b8152602060048201818152835160248401528351909283926044909101919085019080838360008315611b70578181015183820152602001611b58565b5060008385816121a257fe5b0495945050505050565b6000813f7fc5d2460186f7233c927e7db2dcc703c0e500b653ca82273b7bfad8045d85a4708181148015906121e057508115155b94935050505056fe45524332303a207472616e7366657220746f20746865207a65726f206164647265737345524332303a206275726e20616d6f756e7420657863656564732062616c616e63654f776e61626c653a206e6577206f776e657220697320746865207a65726f206164647265737345524332303a20617070726f766520746f20746865207a65726f206164647265737345524332303a207472616e7366657220616d6f756e7420657863656564732062616c616e6365536166654d6174683a206d756c7469706c69636174696f6e206f766572666c6f7745524332303a207472616e7366657220616d6f756e74206578636565647320616c6c6f77616e63654f776e61626c653a2063616c6c6572206973206e6f7420746865206f776e657245524332303a206275726e2066726f6d20746865207a65726f206164647265737345524332303a207472616e736665722066726f6d20746865207a65726f206164647265737345524332303a20617070726f76652066726f6d20746865207a65726f20616464726573735361666545524332303a204552433230206f7065726174696f6e20646964206e6f7420737563636565645361666545524332303a20617070726f76652066726f6d206e6f6e2d7a65726f20746f206e6f6e2d7a65726f20616c6c6f77616e636545524332303a2064656372656173656420616c6c6f77616e63652062656c6f77207a65726fa264697066735822122028be4296fab43c967aca53c7daf4f12be4427264597f799f5dbe0cc3f6786ee364736f6c63430007050033",
  "devdoc": {
    "kind": "dev",
    "methods": {
      "allowance(address,address)": {
        "details": "returns the allowance of spender on the tokens owned by owner",
        "params": {
          "owner": "the owner of the tokens",
          "spender": "the user allowed to spend the owner's tokens"
        },
        "returns": {
          "_0": "the amount of owner's tokens spender is allowed to spend*"
        }
      },
      "approve(address,uint256)": {
        "details": "allows spender to spend the tokens owned by msg.sender",
        "params": {
          "spender": "the user allowed to spend msg.sender tokens"
        },
        "returns": {
          "_0": "true*"
        }
      },
      "balanceOf(address)": {
        "returns": {
          "_0": "the balance of the token*"
        }
      },
      "decimals()": {
        "returns": {
          "_0": "the decimals of the token*"
        }
      },
      "decreaseAllowance(address,uint256)": {
        "details": "decreases the allowance of spender to spend msg.sender tokens",
        "params": {
          "spender": "the user allowed to spend on behalf of msg.sender",
          "subtractedValue": "the amount being subtracted to the allowance"
        },
        "returns": {
          "_0": "true*"
        }
      },
      "increaseAllowance(address,uint256)": {
        "details": "increases the allowance of spender to spend msg.sender tokens",
        "params": {
          "addedValue": "the amount being added to the allowance",
          "spender": "the user allowed to spend on behalf of msg.sender"
        },
        "returns": {
          "_0": "true*"
        }
      },
      "name()": {
        "returns": {
          "_0": "the name of the token*"
        }
      },
      "owner()": {
        "details": "Returns the address of the current owner."
      },
      "renounceOwnership()": {
        "details": "Leaves the contract without owner. It will not be possible to call `onlyOwner` functions anymore. Can only be called by the current owner. NOTE: Renouncing ownership will leave the contract without an owner, thereby removing any functionality that is only available to the owner."
      },
      "symbol()": {
        "returns": {
          "_0": "the symbol of the token*"
        }
      },
      "totalSupply()": {
        "returns": {
          "_0": "the total supply of the token*"
        }
      },
      "transfer(address,uint256)": {
        "details": "executes a transfer of tokens from msg.sender to recipient",
        "params": {
          "amount": "the amount of tokens being transferred",
          "recipient": "the recipient of the tokens"
        },
        "returns": {
          "_0": "true if the transfer succeeds, false otherwise*"
        }
      },
      "transferFrom(address,address,uint256)": {
        "details": "executes a transfer of token from sender to recipient, if msg.sender is allowed to do so",
        "params": {
          "amount": "the amount of tokens being transferred",
          "recipient": "the recipient of the tokens",
          "sender": "the owner of the tokens"
        },
        "returns": {
          "_0": "true if the transfer succeeds, false otherwise*"
        }
      },
      "transferOwnership(address)": {
        "details": "Transfers ownership of the contract to a new account (`newOwner`). Can only be called by the current owner."
      }
    },
    "version": 1
  },
  "userdoc": {
    "kind": "user",
    "methods": {
      "fromDepositToShares(uint256)": {
        "notice": "Deposit "
      },
      "fromSharesToWithdrawal(uint256)": {
        "notice": "Withdrawals "
      },
      "rug(address,address)": {
        "notice": "UNSAFE METHODS "
      },
      "setTreasury(address)": {
        "notice": "Setters "
      }
    },
    "version": 1
  },
  "storageLayout": {
    "storage": [
      {
        "astId": 5719,
        "contract": "contracts/MyieldVault.sol:MyieldVault",
        "label": "_balances",
        "offset": 0,
        "slot": "0",
        "type": "t_mapping(t_address,t_uint256)"
      },
      {
        "astId": 5725,
        "contract": "contracts/MyieldVault.sol:MyieldVault",
        "label": "_allowances",
        "offset": 0,
        "slot": "1",
        "type": "t_mapping(t_address,t_mapping(t_address,t_uint256))"
      },
      {
        "astId": 5727,
        "contract": "contracts/MyieldVault.sol:MyieldVault",
        "label": "_totalSupply",
        "offset": 0,
        "slot": "2",
        "type": "t_uint256"
      },
      {
        "astId": 5729,
        "contract": "contracts/MyieldVault.sol:MyieldVault",
        "label": "_name",
        "offset": 0,
        "slot": "3",
        "type": "t_string_storage"
      },
      {
        "astId": 5731,
        "contract": "contracts/MyieldVault.sol:MyieldVault",
        "label": "_symbol",
        "offset": 0,
        "slot": "4",
        "type": "t_string_storage"
      },
      {
        "astId": 5733,
        "contract": "contracts/MyieldVault.sol:MyieldVault",
        "label": "_decimals",
        "offset": 0,
        "slot": "5",
        "type": "t_uint8"
      },
      {
        "astId": 6650,
        "contract": "contracts/MyieldVault.sol:MyieldVault",
        "label": "_owner",
        "offset": 1,
        "slot": "5",
        "type": "t_address"
      },
      {
        "astId": 6806,
        "contract": "contracts/MyieldVault.sol:MyieldVault",
        "label": "_status",
        "offset": 0,
        "slot": "6",
        "type": "t_uint256"
      },
      {
        "astId": 2760,
        "contract": "contracts/MyieldVault.sol:MyieldVault",
        "label": "feeBps",
        "offset": 0,
        "slot": "7",
        "type": "t_uint256"
      },
      {
        "astId": 2764,
        "contract": "contracts/MyieldVault.sol:MyieldVault",
        "label": "treasury",
        "offset": 0,
        "slot": "8",
        "type": "t_address"
      },
      {
        "astId": 2767,
        "contract": "contracts/MyieldVault.sol:MyieldVault",
        "label": "paused",
        "offset": 20,
        "slot": "8",
        "type": "t_bool"
      },
      {
        "astId": 2770,
        "contract": "contracts/MyieldVault.sol:MyieldVault",
        "label": "strategies",
        "offset": 0,
        "slot": "9",
        "type": "t_array(t_address)dyn_storage"
      }
    ],
    "types": {
      "t_address": {
        "encoding": "inplace",
        "label": "address",
        "numberOfBytes": "20"
      },
      "t_array(t_address)dyn_storage": {
        "base": "t_address",
        "encoding": "dynamic_array",
        "label": "address[]",
        "numberOfBytes": "32"
      },
      "t_bool": {
        "encoding": "inplace",
        "label": "bool",
        "numberOfBytes": "1"
      },
      "t_mapping(t_address,t_mapping(t_address,t_uint256))": {
        "encoding": "mapping",
        "key": "t_address",
        "label": "mapping(address => mapping(address => uint256))",
        "numberOfBytes": "32",
        "value": "t_mapping(t_address,t_uint256)"
      },
      "t_mapping(t_address,t_uint256)": {
        "encoding": "mapping",
        "key": "t_address",
        "label": "mapping(address => uint256)",
        "numberOfBytes": "32",
        "value": "t_uint256"
      },
      "t_string_storage": {
        "encoding": "bytes",
        "label": "string",
        "numberOfBytes": "32"
      },
      "t_uint256": {
        "encoding": "inplace",
        "label": "uint256",
        "numberOfBytes": "32"
      },
      "t_uint8": {
        "encoding": "inplace",
        "label": "uint8",
        "numberOfBytes": "1"
      }
    }
  }
}