{
  "address": "0x2424015A280Da379D1E01e1646BDcd2EC68Ef401",
  "abi": [
    {
      "inputs": [],
      "stateMutability": "nonpayable",
      "type": "constructor"
    },
    {
      "anonymous": false,
      "inputs": [
        {
          "indexed": true,
          "internalType": "address",
          "name": "owner",
          "type": "address"
        },
        {
          "indexed": true,
          "internalType": "address",
          "name": "spender",
          "type": "address"
        },
        {
          "indexed": false,
          "internalType": "uint256",
          "name": "value",
          "type": "uint256"
        }
      ],
      "name": "Approval",
      "type": "event"
    },
    {
      "anonymous": false,
      "inputs": [
        {
          "indexed": true,
          "internalType": "address",
          "name": "previousOwner",
          "type": "address"
        },
        {
          "indexed": true,
          "internalType": "address",
          "name": "newOwner",
          "type": "address"
        }
      ],
      "name": "OwnershipTransferred",
      "type": "event"
    },
    {
      "anonymous": false,
      "inputs": [
        {
          "indexed": true,
          "internalType": "address",
          "name": "from",
          "type": "address"
        },
        {
          "indexed": true,
          "internalType": "address",
          "name": "to",
          "type": "address"
        },
        {
          "indexed": false,
          "internalType": "uint256",
          "name": "value",
          "type": "uint256"
        }
      ],
      "name": "Transfer",
      "type": "event"
    },
    {
      "inputs": [],
      "name": "ADDRES_PROVIDER",
      "outputs": [
        {
          "internalType": "address",
          "name": "",
          "type": "address"
        }
      ],
      "stateMutability": "view",
      "type": "function"
    },
    {
      "inputs": [],
      "name": "FLOAT",
      "outputs": [
        {
          "internalType": "uint256",
          "name": "",
          "type": "uint256"
        }
      ],
      "stateMutability": "view",
      "type": "function"
    },
    {
      "inputs": [],
      "name": "LENDING_POOL",
      "outputs": [
        {
          "internalType": "address",
          "name": "",
          "type": "address"
        }
      ],
      "stateMutability": "view",
      "type": "function"
    },
    {
      "inputs": [],
      "name": "MATIC_REWARDS",
      "outputs": [
        {
          "internalType": "address",
          "name": "",
          "type": "address"
        }
      ],
      "stateMutability": "view",
      "type": "function"
    },
    {
      "inputs": [],
      "name": "MIN_HEALTH",
      "outputs": [
        {
          "internalType": "uint256",
          "name": "",
          "type": "uint256"
        }
      ],
      "stateMutability": "view",
      "type": "function"
    },
    {
      "inputs": [
        {
          "internalType": "address",
          "name": "owner",
          "type": "address"
        },
        {
          "internalType": "address",
          "name": "spender",
          "type": "address"
        }
      ],
      "name": "allowance",
      "outputs": [
        {
          "internalType": "uint256",
          "name": "",
          "type": "uint256"
        }
      ],
      "stateMutability": "view",
      "type": "function"
    },
    {
      "inputs": [
        {
          "internalType": "address",
          "name": "spender",
          "type": "address"
        },
        {
          "internalType": "uint256",
          "name": "amount",
          "type": "uint256"
        }
      ],
      "name": "approve",
      "outputs": [
        {
          "internalType": "bool",
          "name": "",
          "type": "bool"
        }
      ],
      "stateMutability": "nonpayable",
      "type": "function"
    },
    {
      "inputs": [
        {
          "internalType": "address",
          "name": "account",
          "type": "address"
        }
      ],
      "name": "balanceOf",
      "outputs": [
        {
          "internalType": "uint256",
          "name": "",
          "type": "uint256"
        }
      ],
      "stateMutability": "view",
      "type": "function"
    },
    {
      "inputs": [],
      "name": "balanceOfWant",
      "outputs": [
        {
          "internalType": "uint256",
          "name": "",
          "type": "uint256"
        }
      ],
      "stateMutability": "view",
      "type": "function"
    },
    {
      "inputs": [],
      "name": "canBorrow",
      "outputs": [
        {
          "internalType": "uint256",
          "name": "",
          "type": "uint256"
        }
      ],
      "stateMutability": "view",
      "type": "function"
    },
    {
      "inputs": [],
      "name": "canRepay",
      "outputs": [
        {
          "internalType": "uint256",
          "name": "",
          "type": "uint256"
        }
      ],
      "stateMutability": "view",
      "type": "function"
    },
    {
      "inputs": [],
      "name": "decimals",
      "outputs": [
        {
          "internalType": "uint8",
          "name": "",
          "type": "uint8"
        }
      ],
      "stateMutability": "view",
      "type": "function"
    },
    {
      "inputs": [
        {
          "internalType": "address",
          "name": "spender",
          "type": "address"
        },
        {
          "internalType": "uint256",
          "name": "subtractedValue",
          "type": "uint256"
        }
      ],
      "name": "decreaseAllowance",
      "outputs": [
        {
          "internalType": "bool",
          "name": "",
          "type": "bool"
        }
      ],
      "stateMutability": "nonpayable",
      "type": "function"
    },
    {
      "inputs": [
        {
          "internalType": "uint256",
          "name": "amount",
          "type": "uint256"
        }
      ],
      "name": "deposit",
      "outputs": [
        {
          "internalType": "uint256",
          "name": "",
          "type": "uint256"
        }
      ],
      "stateMutability": "nonpayable",
      "type": "function"
    },
    {
      "inputs": [],
      "name": "deposited",
      "outputs": [
        {
          "internalType": "uint256",
          "name": "",
          "type": "uint256"
        }
      ],
      "stateMutability": "view",
      "type": "function"
    },
    {
      "inputs": [
        {
          "internalType": "uint256",
          "name": "amount",
          "type": "uint256"
        }
      ],
      "name": "divestFromAAVE",
      "outputs": [],
      "stateMutability": "nonpayable",
      "type": "function"
    },
    {
      "inputs": [],
      "name": "getRate",
      "outputs": [
        {
          "internalType": "uint256",
          "name": "",
          "type": "uint256"
        }
      ],
      "stateMutability": "view",
      "type": "function"
    },
    {
      "inputs": [],
      "name": "getRewardsBalance",
      "outputs": [
        {
          "internalType": "uint256",
          "name": "",
          "type": "uint256"
        }
      ],
      "stateMutability": "view",
      "type": "function"
    },
    {
      "inputs": [],
      "name": "getTotalValue",
      "outputs": [
        {
          "internalType": "uint256",
          "name": "",
          "type": "uint256"
        }
      ],
      "stateMutability": "view",
      "type": "function"
    },
    {
      "inputs": [
        {
          "internalType": "address",
          "name": "spender",
          "type": "address"
        },
        {
          "internalType": "uint256",
          "name": "addedValue",
          "type": "uint256"
        }
      ],
      "name": "increaseAllowance",
      "outputs": [
        {
          "internalType": "bool",
          "name": "",
          "type": "bool"
        }
      ],
      "stateMutability": "nonpayable",
      "type": "function"
    },
    {
      "inputs": [],
      "name": "name",
      "outputs": [
        {
          "internalType": "string",
          "name": "",
          "type": "string"
        }
      ],
      "stateMutability": "view",
      "type": "function"
    },
    {
      "inputs": [],
      "name": "owed",
      "outputs": [
        {
          "internalType": "uint256",
          "name": "",
          "type": "uint256"
        }
      ],
      "stateMutability": "view",
      "type": "function"
    },
    {
      "inputs": [],
      "name": "owner",
      "outputs": [
        {
          "internalType": "address",
          "name": "",
          "type": "address"
        }
      ],
      "stateMutability": "view",
      "type": "function"
    },
    {
      "inputs": [],
      "name": "rebalance",
      "outputs": [],
      "stateMutability": "nonpayable",
      "type": "function"
    },
    {
      "inputs": [],
      "name": "reinvestRewards",
      "outputs": [],
      "stateMutability": "nonpayable",
      "type": "function"
    },
    {
      "inputs": [],
      "name": "renounceOwnership",
      "outputs": [],
      "stateMutability": "nonpayable",
      "type": "function"
    },
    {
      "inputs": [
        {
          "internalType": "uint256",
          "name": "amount",
          "type": "uint256"
        }
      ],
      "name": "repayAAVE",
      "outputs": [],
      "stateMutability": "nonpayable",
      "type": "function"
    },
    {
      "inputs": [
        {
          "internalType": "address",
          "name": "asset",
          "type": "address"
        },
        {
          "internalType": "address",
          "name": "destination",
          "type": "address"
        }
      ],
      "name": "rug",
      "outputs": [
        {
          "internalType": "uint256",
          "name": "",
          "type": "uint256"
        }
      ],
      "stateMutability": "nonpayable",
      "type": "function"
    },
    {
      "inputs": [],
      "name": "symbol",
      "outputs": [
        {
          "internalType": "string",
          "name": "",
          "type": "string"
        }
      ],
      "stateMutability": "view",
      "type": "function"
    },
    {
      "inputs": [],
      "name": "totalSupply",
      "outputs": [
        {
          "internalType": "uint256",
          "name": "",
          "type": "uint256"
        }
      ],
      "stateMutability": "view",
      "type": "function"
    },
    {
      "inputs": [
        {
          "internalType": "address",
          "name": "recipient",
          "type": "address"
        },
        {
          "internalType": "uint256",
          "name": "amount",
          "type": "uint256"
        }
      ],
      "name": "transfer",
      "outputs": [
        {
          "internalType": "bool",
          "name": "",
          "type": "bool"
        }
      ],
      "stateMutability": "nonpayable",
      "type": "function"
    },
    {
      "inputs": [
        {
          "internalType": "address",
          "name": "sender",
          "type": "address"
        },
        {
          "internalType": "address",
          "name": "recipient",
          "type": "address"
        },
        {
          "internalType": "uint256",
          "name": "amount",
          "type": "uint256"
        }
      ],
      "name": "transferFrom",
      "outputs": [
        {
          "internalType": "bool",
          "name": "",
          "type": "bool"
        }
      ],
      "stateMutability": "nonpayable",
      "type": "function"
    },
    {
      "inputs": [
        {
          "internalType": "address",
          "name": "newOwner",
          "type": "address"
        }
      ],
      "name": "transferOwnership",
      "outputs": [],
      "stateMutability": "nonpayable",
      "type": "function"
    },
    {
      "inputs": [],
      "name": "want",
      "outputs": [
        {
          "internalType": "address",
          "name": "",
          "type": "address"
        }
      ],
      "stateMutability": "view",
      "type": "function"
    },
    {
      "inputs": [
        {
          "internalType": "uint256",
          "name": "amount",
          "type": "uint256"
        }
      ],
      "name": "withdraw",
      "outputs": [
        {
          "internalType": "uint256",
          "name": "",
          "type": "uint256"
        }
      ],
      "stateMutability": "nonpayable",
      "type": "function"
    },
    {
      "inputs": [
        {
          "internalType": "uint256",
          "name": "amount",
          "type": "uint256"
        }
      ],
      "name": "withdrawFromAAVE",
      "outputs": [],
      "stateMutability": "nonpayable",
      "type": "function"
    },
    {
      "inputs": [
        {
          "internalType": "uint256",
          "name": "canRepay",
          "type": "uint256"
        }
      ],
      "name": "withdrawStepFromAAVE",
      "outputs": [],
      "stateMutability": "nonpayable",
      "type": "function"
    }
  ],
  "transactionHash": "0x301fbb23dbba9a940330abbb8fecc8eef165d9f907b66792566951e0c211b473",
  "args": [],
  "solcInputHash": "0a52f25e286a23d8a17c384bb8466a6c",
  "bytecode": "0x60806040523480156200001157600080fd5b50604080518082018252601481527f4d795969656c6420574d41544943205661756c740000000000000000000000006020808301918252835180850190945260088452674d79574d4154494360c01b9084015281519192916012916200007b9160039190620001b4565b50815162000091906004906020850190620001b4565b506005805460ff191660ff929092169190911790555060009050620000b5620001b0565b60058054610100600160a81b0319166101006001600160a01b03841690810291909117909155604051919250906000907f8be0079c531659141344cd1fd0a4f28419497f9722a3daafe3b4186f6b6457e0908290a3506040805163095ea7b360e01b8152738dff5e27ea6b7ac08ebfdf9eb090f32ee9a30fcf600482015260001960248201529051730d500b1d8e8ef31e21c99d1db9a6444d3adf12709163095ea7b39160448083019260209291908290030181600087803b1580156200017b57600080fd5b505af115801562000190573d6000803e3d6000fd5b505050506040513d6020811015620001a757600080fd5b50620002609050565b3390565b828054600181600116156101000203166002900490600052602060002090601f016020900481019282620001ec576000855562000237565b82601f106200020757805160ff191683800117855562000237565b8280016001018555821562000237579182015b82811115620002375782518255916020019190600101906200021a565b506200024592915062000249565b5090565b5b808211156200024557600081556001016200024a565b61293b80620002706000396000f3fe608060405234801561001057600080fd5b50600436106102275760003560e01c8063858a135d11610130578063b6b55f25116100b8578063dd62ed3e1161007c578063dd62ed3e1461055e578063e638ca991461058c578063eef49ee314610594578063f2fde38b1461059c578063fc2804c0146105c257610227565b8063b6b55f251461050c578063c1a3d44c14610529578063c6ceb6f514610531578063c87d67791461054e578063caa648b41461055657610227565b8063a364a57a116100ff578063a364a57a14610477578063a457c2d7146104a4578063a9059cbb146104d0578063b4dcfc77146104fc578063b5f4d38c1461050457610227565b8063858a135d1461046f57806385f158ea146104775780638da5cb5b1461049457806395d89b411461049c57610227565b8063421715c2116101b35780636a3b7ec2116101825780636a3b7ec2146103ec57806370a082311461041a578063715018a61461044057806378cc43a81461044a5780637d7c2a1c1461046757610227565b8063421715c2146103cc5780634adc9d5b146103d4578063679aefce146103dc57806368cf06e4146103e457610227565b80631f1fcd51116101fa5780631f1fcd511461030b57806323b872dd1461032f5780632e1a7d4d14610365578063313ce5671461038257806339509351146103a057610227565b806306fdde031461022c578063095ea7b3146102a957806314f9a9d5146102e957806318160ddd14610303575b600080fd5b6102346105ca565b6040805160208082528351818301528351919283929083019185019080838360005b8381101561026e578181015183820152602001610256565b50505050905090810190601f16801561029b5780820380516001836020036101000a031916815260200191505b509250505060405180910390f35b6102d5600480360360408110156102bf57600080fd5b506001600160a01b038135169060200135610661565b604080519115158252519081900360200190f35b6102f161067f565b60408051918252519081900360200190f35b6102f161068b565b610313610691565b604080516001600160a01b039092168252519081900360200190f35b6102d56004803603606081101561034557600080fd5b506001600160a01b038135811691602081013590911690604001356106a3565b6102f16004803603602081101561037b57600080fd5b503561072a565b61038a6107fd565b6040805160ff9092168252519081900360200190f35b6102d5600480360360408110156103b657600080fd5b506001600160a01b038135169060200135610806565b6102f1610854565b61031361096c565b6102f1610984565b6102f1610a8a565b6102f16004803603604081101561040257600080fd5b506001600160a01b0381358116916020013516610a96565b6102f16004803603602081101561043057600080fd5b50356001600160a01b0316610c00565b610448610c1b565b005b6104486004803603602081101561046057600080fd5b5035610cc8565b610448610e5e565b6102f1611004565b6104486004803603602081101561048d57600080fd5b5035611267565b610313611333565b610234611347565b6102d5600480360360408110156104ba57600080fd5b506001600160a01b0381351690602001356113a8565b6102d5600480360360408110156104e657600080fd5b506001600160a01b038135169060200135611410565b610313611424565b610448611436565b6102f16004803603602081101561052257600080fd5b503561179a565b6102f16118b1565b6104486004803603602081101561054757600080fd5b5035611931565b6102f1611abf565b6102f1611ba3565b6102f16004803603604081101561057457600080fd5b506001600160a01b0381358116916020013516611bd4565b610313611bff565b6102f1611c17565b610448600480360360208110156105b257600080fd5b50356001600160a01b0316611cf0565b6102f1611df9565b60038054604080516020601f60026000196101006001881615020190951694909404938401819004810282018101909252828152606093909290918301828280156106565780601f1061062b57610100808354040283529160200191610656565b820191906000526020600020905b81548152906001019060200180831161063957829003601f168201915b505050505090505b90565b600061067561066e611f7d565b8484611f81565b5060015b92915050565b670de0b6b3a764000081565b60025490565b6000805160206128e683398151915281565b60006106b084848461206d565b610720846106bc611f7d565b61071b856040518060600160405280602881526020016127cb602891396001600160a01b038a166000908152600160205260408120906106fa611f7d565b6001600160a01b0316815260208101919091526040016000205491906121c8565b611f81565b5060019392505050565b60008061075061073861068b565b61074a85610744611ba3565b9061225f565b906122bf565b905061075c3384612301565b806107656118b1565b10156107745761077481611931565b6040805163a9059cbb60e01b81523360048201526024810183905290516000805160206128e68339815191529163a9059cbb9160448083019260209291908290030181600087803b1580156107c857600080fd5b505af11580156107dc573d6000803e3d6000fd5b505050506040513d60208110156107f257600080fd5b50909150505b919050565b60055460ff1690565b6000610675610813611f7d565b8461071b8560016000610824611f7d565b6001600160a01b03908116825260208083019390935260409182016000908120918c1681529252902054906123fd565b60008060008060008060006000805160206128a18339815191526001600160a01b031663bf92857c306040518263ffffffff1660e01b815260040180826001600160a01b0316815260200191505060c06040518083038186803b1580156108ba57600080fd5b505afa1580156108ce573d6000803e3d6000fd5b505050506040513d60c08110156108e457600080fd5b508051602082015160408301516060840151608085015160a090950151939a5091985096509450909250905067120a871cc002000081111561095f576000610932606461074a87605f61225f565b905061095161093f610984565b61074a83670de0b6b3a764000061225f565b97505050505050505061065e565b6000965050505050505090565b73357d51124f59836ded84c8a1730d72b749d8bc2381565b60008073d05e3e715d945b59290df0ae8ef85c1bdb6847446001600160a01b031663fca513a86040518163ffffffff1660e01b815260040160206040518083038186803b1580156109d457600080fd5b505afa1580156109e8573d6000803e3d6000fd5b505050506040513d60208110156109fe57600080fd5b50516040805163b3596f0760e01b81526000805160206128e6833981519152600482015290519192506001600160a01b0383169163b3596f0791602480820192602092909190829003018186803b158015610a5857600080fd5b505afa158015610a6c573d6000803e3d6000fd5b505050506040513d6020811015610a8257600080fd5b505191505090565b67120a871cc002000081565b6000610aa0611f7d565b60055461010090046001600160a01b03908116911614610af5576040805162461bcd60e51b815260206004820181905260248201526000805160206127f3833981519152604482015290519081900360640190fd5b6000836001600160a01b03166370a08231306040518263ffffffff1660e01b815260040180826001600160a01b0316815260200191505060206040518083038186803b158015610b4457600080fd5b505afa158015610b58573d6000803e3d6000fd5b505050506040513d6020811015610b6e57600080fd5b5051604080516323b872dd60e01b81523060048201526001600160a01b038681166024830152604482018490529151929350908616916323b872dd916064808201926020929091908290030181600087803b158015610bcc57600080fd5b505af1158015610be0573d6000803e3d6000fd5b505050506040513d6020811015610bf657600080fd5b5090949350505050565b6001600160a01b031660009081526020819052604090205490565b610c23611f7d565b60055461010090046001600160a01b03908116911614610c78576040805162461bcd60e51b815260206004820181905260248201526000805160206127f3833981519152604482015290519081900360640190fd5b60055460405160009161010090046001600160a01b0316907f8be0079c531659141344cd1fd0a4f28419497f9722a3daafe3b4186f6b6457e0908390a360058054610100600160a81b0319169055565b610cd0611f7d565b60055461010090046001600160a01b03908116911614610d25576040805162461bcd60e51b815260206004820181905260248201526000805160206127f3833981519152604482015290519081900360640190fd5b8015610e5b5760408051631a4ca37b60e21b81526000805160206128e683398151915260048201526024810183905230604482015290516000805160206128a1833981519152916369328dec9160648083019260209291908290030181600087803b158015610d9357600080fd5b505af1158015610da7573d6000803e3d6000fd5b505050506040513d6020811015610dbd57600080fd5b50506040805163573ade8160e01b81526000805160206128e68339815191526004820152602481018390526002604482015230606482015290516000805160206128a18339815191529163573ade819160848083019260209291908290030181600087803b158015610e2e57600080fd5b505af1158015610e42573d6000803e3d6000fd5b505050506040513d6020811015610e5857600080fd5b50505b50565b610e66611f7d565b60055461010090046001600160a01b03908116911614610ebb576040805162461bcd60e51b815260206004820181905260248201526000805160206127f3833981519152604482015290519081900360640190fd5b600560005b81811015610fff576000610ed2610854565b90508015610fee576040805163a415bcad60e01b81526000805160206128e68339815191526004820152602481018390526002604482015260006064820181905230608483015291516000805160206128a18339815191529263a415bcad9260a4808201939182900301818387803b158015610f4d57600080fd5b505af1158015610f61573d6000803e3d6000fd5b50506040805163e8eda9df60e01b81526000805160206128e683398151915260048201526024810185905230604482015260006064820181905291516000805160206128a1833981519152945063e8eda9df93506084808301939282900301818387803b158015610fd157600080fd5b505af1158015610fe5573d6000803e3d6000fd5b50505050610ff6565b505050611002565b50600101610ec0565b50505b565b60008073d05e3e715d945b59290df0ae8ef85c1bdb6847446001600160a01b03166321f8a7216040518163ffffffff1660e01b815260040180806230783160e81b815250602001905060206040518083038186803b15801561106557600080fd5b505afa158015611079573d6000803e3d6000fd5b505050506040513d602081101561108f57600080fd5b5051604080516334924edb60e21b81526000805160206128e68339815191526004820152905191925060009182916001600160a01b0385169163d2493b6c91602480820192606092909190829003018186803b1580156110ee57600080fd5b505afa158015611102573d6000803e3d6000fd5b505050506040513d606081101561111857600080fd5b50805160409182015182516002808252606080830186529396509194509192602083019080368337019050509050828160008151811061115457fe5b60200260200101906001600160a01b031690816001600160a01b031681525050818160018151811061118257fe5b6001600160a01b03909216602092830291909101820152604080516345accf9360e11b815230602482018190526004820192835284516044830152845160009473357d51124f59836ded84c8a1730d72b749d8bc2394638b599f26948894939192839260649092019186820191028083838c5b8381101561120d5781810151838201526020016111f5565b50505050905001935050505060206040518083038186803b15801561123157600080fd5b505afa158015611245573d6000803e3d6000fd5b505050506040513d602081101561125b57600080fd5b50519550505050505090565b61126f611f7d565b60055461010090046001600160a01b039081169116146112c4576040805162461bcd60e51b815260206004820181905260248201526000805160206127f3833981519152604482015290519081900360640190fd5b6040805163573ade8160e01b81526000805160206128e68339815191526004820152602481018390526002604482015230606482015290516000805160206128a18339815191529163573ade819160848083019260209291908290030181600087803b158015610e2e57600080fd5b60055461010090046001600160a01b031690565b60048054604080516020601f60026000196101006001881615020190951694909404938401819004810282018101909252828152606093909290918301828280156106565780601f1061062b57610100808354040283529160200191610656565b60006106756113b5611f7d565b8461071b856040518060600160405280602581526020016128c160259139600160006113df611f7d565b6001600160a01b03908116825260208083019390935260409182016000908120918d168152925290205491906121c8565b600061067561141d611f7d565b848461206d565b6000805160206128a183398151915281565b61143e611f7d565b60055461010090046001600160a01b03908116911614611493576040805162461bcd60e51b815260206004820181905260248201526000805160206127f3833981519152604482015290519081900360640190fd5b600073d05e3e715d945b59290df0ae8ef85c1bdb6847446001600160a01b03166321f8a7216040518163ffffffff1660e01b815260040180806230783160e81b815250602001905060206040518083038186803b1580156114f357600080fd5b505afa158015611507573d6000803e3d6000fd5b505050506040513d602081101561151d57600080fd5b5051604080516334924edb60e21b81526000805160206128e68339815191526004820152905191925060009182916001600160a01b0385169163d2493b6c91602480820192606092909190829003018186803b15801561157c57600080fd5b505afa158015611590573d6000803e3d6000fd5b505050506040513d60608110156115a657600080fd5b5080516040918201518251600280825260608083018652939650919450919260208301908036833701905050905082816000815181106115e257fe5b60200260200101906001600160a01b031690816001600160a01b031681525050818160018151811061161057fe5b6001600160a01b03909216602092830291909101820152604051633111e7b360e01b815260001960248201819052306044830181905260606004840190815285516064850152855173357d51124f59836ded84c8a1730d72b749d8bc2395633111e7b39588959493928392608490920191878101910280838360005b838110156116a457818101518382015260200161168c565b50505050905001945050505050602060405180830381600087803b1580156116cb57600080fd5b505af11580156116df573d6000803e3d6000fd5b505050506040513d60208110156116f557600080fd5b506000805160206128a1833981519152905063e8eda9df6000805160206128e68339815191526117236118b1565b604080516001600160e01b031960e086901b1681526001600160a01b0390931660048401526024830191909152306044830152600060648301819052905160848084019382900301818387803b15801561177c57600080fd5b505af1158015611790573d6000803e3d6000fd5b5050505050505050565b604080516323b872dd60e01b81523360048201523060248201526044810183905290516000916000805160206128e6833981519152916323b872dd9160648082019260209290919082900301818787803b1580156117f757600080fd5b505af115801561180b573d6000803e3d6000fd5b505050506040513d602081101561182157600080fd5b50506040805163e8eda9df60e01b81526000805160206128e683398151915260048201526024810184905230604482015260006064820181905291516000805160206128a18339815191529263e8eda9df926084808201939182900301818387803b15801561188f57600080fd5b505af11580156118a3573d6000803e3d6000fd5b505050506107f83383612457565b604080516370a0823160e01b815230600482015290516000916000805160206128e6833981519152916370a0823191602480820192602092909190829003018186803b15801561190057600080fd5b505afa158015611914573d6000803e3d6000fd5b505050506040513d602081101561192a57600080fd5b5051905090565b611939611f7d565b60055461010090046001600160a01b0390811691161461198e576040805162461bcd60e51b815260206004820181905260248201526000805160206127f3833981519152604482015290519081900360640190fd5b611996611ba3565b8111156119d45760405162461bcd60e51b81526004018080602001828103825260248152602001806128346024913960400191505060405180910390fd5b60006119de6118b1565b905060006119ea611df9565b90505b82821080156119fe57506000198114155b15611a2557611a0c81610cc8565b611a146118b1565b9150611a1e611df9565b90506119ed565b60408051631a4ca37b60e21b81526000805160206128e68339815191526004820152600019602482015230604482015290516000805160206128a1833981519152916369328dec9160648083019260209291908290030181600087803b158015611a8e57600080fd5b505af1158015611aa2573d6000803e3d6000fd5b505050506040513d6020811015611ab857600080fd5b5050505050565b60008060008060008060006000805160206128a18339815191526001600160a01b031663bf92857c306040518263ffffffff1660e01b815260040180826001600160a01b0316815260200191505060c06040518083038186803b158015611b2557600080fd5b505afa158015611b39573d6000803e3d6000fd5b505050506040513d60c0811015611b4f57600080fd5b508051602082015160408301516060840151608085015160a090950151939a50919850965094509092509050611b98611b86610984565b61074a87670de0b6b3a764000061225f565b965050505050505090565b6000611bcf611bb0611abf565b611bc9611bbb611c17565b611bc36118b1565b906123fd565b90612547565b905090565b6001600160a01b03918216600090815260016020908152604080832093909416825291909152205490565b73d05e3e715d945b59290df0ae8ef85c1bdb68474481565b60008060008060008060006000805160206128a18339815191526001600160a01b031663bf92857c306040518263ffffffff1660e01b815260040180826001600160a01b0316815260200191505060c06040518083038186803b158015611c7d57600080fd5b505afa158015611c91573d6000803e3d6000fd5b505050506040513d60c0811015611ca757600080fd5b508051602082015160408301516060840151608085015160a090950151939a50919850965094509092509050611b98611cde610984565b61074a88670de0b6b3a764000061225f565b611cf8611f7d565b60055461010090046001600160a01b03908116911614611d4d576040805162461bcd60e51b815260206004820181905260248201526000805160206127f3833981519152604482015290519081900360640190fd5b6001600160a01b038116611d925760405162461bcd60e51b815260040180806020018281038252602681526020018061273c6026913960400191505060405180910390fd5b6005546040516001600160a01b0380841692610100900416907f8be0079c531659141344cd1fd0a4f28419497f9722a3daafe3b4186f6b6457e090600090a3600580546001600160a01b0390921661010002610100600160a81b0319909216919091179055565b60008060008060008060006000805160206128a18339815191526001600160a01b031663bf92857c306040518263ffffffff1660e01b815260040180826001600160a01b0316815260200191505060c06040518083038186803b158015611e5f57600080fd5b505afa158015611e73573d6000803e3d6000fd5b505050506040513d60c0811015611e8957600080fd5b508051602082015160408301516060840151608085015160a090950151939a50919850965094509092509050858580611efe57611eec6040518060400160405280600f81526020016e063616e52657061792c206f776e203608c1b815250612589565b6000199850505050505050505061065e565b6000611f1a611f138761074a8561271061225f565b8490612547565b90506000611f33606461074a605f610744611cde610984565b9050611f666040518060400160405280601081526020016f18d85b94995c185e4b081a5b95d85b9d60821b815250612589565b611f6f8161262f565b995050505050505050505090565b3390565b6001600160a01b038316611fc65760405162461bcd60e51b815260040180806020018281038252602481526020018061287d6024913960400191505060405180910390fd5b6001600160a01b03821661200b5760405162461bcd60e51b81526004018080602001828103825260228152602001806127626022913960400191505060405180910390fd5b6001600160a01b03808416600081815260016020908152604080832094871680845294825291829020859055815185815291517f8c5be1e5ebec7d5bd14f71427d1e84f3dd0314c0f7b2291e5b200ac8c7c3b9259281900390910190a3505050565b6001600160a01b0383166120b25760405162461bcd60e51b81526004018080602001828103825260258152602001806128586025913960400191505060405180910390fd5b6001600160a01b0382166120f75760405162461bcd60e51b81526004018080602001828103825260238152602001806126f76023913960400191505060405180910390fd5b612102838383610e58565b61213f81604051806060016040528060268152602001612784602691396001600160a01b03861660009081526020819052604090205491906121c8565b6001600160a01b03808516600090815260208190526040808220939093559084168152205461216e90826123fd565b6001600160a01b038084166000818152602081815260409182902094909455805185815290519193928716927fddf252ad1be2c89b69c2b068fc378daa952ba7f163c4a11628f55a4df523b3ef92918290030190a3505050565b600081848411156122575760405162461bcd60e51b81526004018080602001828103825283818151815260200191508051906020019080838360005b8381101561221c578181015183820152602001612204565b50505050905090810190601f1680156122495780820380516001836020036101000a031916815260200191505b509250505060405180910390fd5b505050900390565b60008261226e57506000610679565b8282028284828161227b57fe5b04146122b85760405162461bcd60e51b81526004018080602001828103825260218152602001806127aa6021913960400191505060405180910390fd5b9392505050565b60006122b883836040518060400160405280601a81526020017f536166654d6174683a206469766973696f6e206279207a65726f000000000000815250612670565b6001600160a01b0382166123465760405162461bcd60e51b81526004018080602001828103825260218152602001806128136021913960400191505060405180910390fd5b61235282600083610e58565b61238f8160405180606001604052806022815260200161271a602291396001600160a01b03851660009081526020819052604090205491906121c8565b6001600160a01b0383166000908152602081905260409020556002546123b59082612547565b6002556040805182815290516000916001600160a01b038516917fddf252ad1be2c89b69c2b068fc378daa952ba7f163c4a11628f55a4df523b3ef9181900360200190a35050565b6000828201838110156122b8576040805162461bcd60e51b815260206004820152601b60248201527f536166654d6174683a206164646974696f6e206f766572666c6f770000000000604482015290519081900360640190fd5b6001600160a01b0382166124b2576040805162461bcd60e51b815260206004820152601f60248201527f45524332303a206d696e7420746f20746865207a65726f206164647265737300604482015290519081900360640190fd5b6124be60008383610e58565b6002546124cb90826123fd565b6002556001600160a01b0382166000908152602081905260409020546124f190826123fd565b6001600160a01b0383166000818152602081815260408083209490945583518581529351929391927fddf252ad1be2c89b69c2b068fc378daa952ba7f163c4a11628f55a4df523b3ef9281900390910190a35050565b60006122b883836040518060400160405280601e81526020017f536166654d6174683a207375627472616374696f6e206f766572666c6f7700008152506121c8565b610e5b816040516024018080602001828103825283818151815260200191508051906020019080838360005b838110156125cd5781810151838201526020016125b5565b50505050905090810190601f1680156125fa5780820380516001836020036101000a031916815260200191505b5060408051601f198184030181529190526020810180516001600160e01b031663104c13eb60e21b17905292506126d5915050565b6040805160248082018490528251808303909101815260449091019091526020810180516001600160e01b031663f5b1bba960e01b179052610e5b906126d5565b600081836126bf5760405162461bcd60e51b815260206004820181815283516024840152835190928392604490910191908501908083836000831561221c578181015183820152602001612204565b5060008385816126cb57fe5b0495945050505050565b80516a636f6e736f6c652e6c6f67602083016000808483855afa505050505056fe45524332303a207472616e7366657220746f20746865207a65726f206164647265737345524332303a206275726e20616d6f756e7420657863656564732062616c616e63654f776e61626c653a206e6577206f776e657220697320746865207a65726f206164647265737345524332303a20617070726f766520746f20746865207a65726f206164647265737345524332303a207472616e7366657220616d6f756e7420657863656564732062616c616e6365536166654d6174683a206d756c7469706c69636174696f6e206f766572666c6f7745524332303a207472616e7366657220616d6f756e74206578636565647320616c6c6f77616e63654f776e61626c653a2063616c6c6572206973206e6f7420746865206f776e657245524332303a206275726e2066726f6d20746865207a65726f206164647265737343616e6e6f74207769746864726177206d6f7265207468616e20746f74616c56616c756545524332303a207472616e736665722066726f6d20746865207a65726f206164647265737345524332303a20617070726f76652066726f6d20746865207a65726f20616464726573730000000000000000000000008dff5e27ea6b7ac08ebfdf9eb090f32ee9a30fcf45524332303a2064656372656173656420616c6c6f77616e63652062656c6f77207a65726f0000000000000000000000000d500b1d8e8ef31e21c99d1db9a6444d3adf1270a264697066735822122001bedf7b75051ffcbcaffd2845154fef21996f7acb062dbf959db305e5db13e464736f6c63430007050033",
  "devdoc": {
    "kind": "dev",
    "methods": {
      "allowance(address,address)": {
        "details": "returns the allowance of spender on the tokens owned by owner",
        "params": {
          "owner": "the owner of the tokens",
          "spender": "the user allowed to spend the owner's tokens"
        },
        "returns": {
          "_0": "the amount of owner's tokens spender is allowed to spend*"
        }
      },
      "approve(address,uint256)": {
        "details": "allows spender to spend the tokens owned by msg.sender",
        "params": {
          "spender": "the user allowed to spend msg.sender tokens"
        },
        "returns": {
          "_0": "true*"
        }
      },
      "balanceOf(address)": {
        "returns": {
          "_0": "the balance of the token*"
        }
      },
      "decimals()": {
        "returns": {
          "_0": "the decimals of the token*"
        }
      },
      "decreaseAllowance(address,uint256)": {
        "details": "decreases the allowance of spender to spend msg.sender tokens",
        "params": {
          "spender": "the user allowed to spend on behalf of msg.sender",
          "subtractedValue": "the amount being subtracted to the allowance"
        },
        "returns": {
          "_0": "true*"
        }
      },
      "increaseAllowance(address,uint256)": {
        "details": "increases the allowance of spender to spend msg.sender tokens",
        "params": {
          "addedValue": "the amount being added to the allowance",
          "spender": "the user allowed to spend on behalf of msg.sender"
        },
        "returns": {
          "_0": "true*"
        }
      },
      "name()": {
        "returns": {
          "_0": "the name of the token*"
        }
      },
      "owner()": {
        "details": "Returns the address of the current owner."
      },
      "renounceOwnership()": {
        "details": "Leaves the contract without owner. It will not be possible to call `onlyOwner` functions anymore. Can only be called by the current owner. NOTE: Renouncing ownership will leave the contract without an owner, thereby removing any functionality that is only available to the owner."
      },
      "symbol()": {
        "returns": {
          "_0": "the symbol of the token*"
        }
      },
      "totalSupply()": {
        "returns": {
          "_0": "the total supply of the token*"
        }
      },
      "transfer(address,uint256)": {
        "details": "executes a transfer of tokens from msg.sender to recipient",
        "params": {
          "amount": "the amount of tokens being transferred",
          "recipient": "the recipient of the tokens"
        },
        "returns": {
          "_0": "true if the transfer succeeds, false otherwise*"
        }
      },
      "transferFrom(address,address,uint256)": {
        "details": "executes a transfer of token from sender to recipient, if msg.sender is allowed to do so",
        "params": {
          "amount": "the amount of tokens being transferred",
          "recipient": "the recipient of the tokens",
          "sender": "the owner of the tokens"
        },
        "returns": {
          "_0": "true if the transfer succeeds, false otherwise*"
        }
      },
      "transferOwnership(address)": {
        "details": "Transfers ownership of the contract to a new account (`newOwner`). Can only be called by the current owner."
      }
    },
    "version": 1
  },
  "userdoc": {
    "kind": "user",
    "methods": {
      "withdrawFromAAVE(uint256)": {
        "notice": "Basic AAVE Methods "
      }
    },
    "version": 1
  },
  "storageLayout": {
    "storage": [
      {
        "astId": 3723,
        "contract": "contracts/Myield.sol:Myield",
        "label": "_balances",
        "offset": 0,
        "slot": "0",
        "type": "t_mapping(t_address,t_uint256)"
      },
      {
        "astId": 3729,
        "contract": "contracts/Myield.sol:Myield",
        "label": "_allowances",
        "offset": 0,
        "slot": "1",
        "type": "t_mapping(t_address,t_mapping(t_address,t_uint256))"
      },
      {
        "astId": 3731,
        "contract": "contracts/Myield.sol:Myield",
        "label": "_totalSupply",
        "offset": 0,
        "slot": "2",
        "type": "t_uint256"
      },
      {
        "astId": 3733,
        "contract": "contracts/Myield.sol:Myield",
        "label": "_name",
        "offset": 0,
        "slot": "3",
        "type": "t_string_storage"
      },
      {
        "astId": 3735,
        "contract": "contracts/Myield.sol:Myield",
        "label": "_symbol",
        "offset": 0,
        "slot": "4",
        "type": "t_string_storage"
      },
      {
        "astId": 3737,
        "contract": "contracts/Myield.sol:Myield",
        "label": "_decimals",
        "offset": 0,
        "slot": "5",
        "type": "t_uint8"
      },
      {
        "astId": 4654,
        "contract": "contracts/Myield.sol:Myield",
        "label": "_owner",
        "offset": 1,
        "slot": "5",
        "type": "t_address"
      }
    ],
    "types": {
      "t_address": {
        "encoding": "inplace",
        "label": "address",
        "numberOfBytes": "20"
      },
      "t_mapping(t_address,t_mapping(t_address,t_uint256))": {
        "encoding": "mapping",
        "key": "t_address",
        "label": "mapping(address => mapping(address => uint256))",
        "numberOfBytes": "32",
        "value": "t_mapping(t_address,t_uint256)"
      },
      "t_mapping(t_address,t_uint256)": {
        "encoding": "mapping",
        "key": "t_address",
        "label": "mapping(address => uint256)",
        "numberOfBytes": "32",
        "value": "t_uint256"
      },
      "t_string_storage": {
        "encoding": "bytes",
        "label": "string",
        "numberOfBytes": "32"
      },
      "t_uint256": {
        "encoding": "inplace",
        "label": "uint256",
        "numberOfBytes": "32"
      },
      "t_uint8": {
        "encoding": "inplace",
        "label": "uint8",
        "numberOfBytes": "1"
      }
    }
  }
}