{
  "address": "0xD0E05D1C314Cbd51e0e76A71Dc7A0CcdDAcbCCe1",
  "abi": [
    {
      "inputs": [
        {
          "internalType": "address",
          "name": "_want",
          "type": "address"
        },
        {
          "internalType": "address",
          "name": "_need",
          "type": "address"
        }
      ],
      "stateMutability": "nonpayable",
      "type": "constructor"
    },
    {
      "anonymous": false,
      "inputs": [
        {
          "indexed": true,
          "internalType": "address",
          "name": "owner",
          "type": "address"
        },
        {
          "indexed": true,
          "internalType": "address",
          "name": "spender",
          "type": "address"
        },
        {
          "indexed": false,
          "internalType": "uint256",
          "name": "value",
          "type": "uint256"
        }
      ],
      "name": "Approval",
      "type": "event"
    },
    {
      "anonymous": false,
      "inputs": [
        {
          "indexed": false,
          "internalType": "uint256",
          "name": "wantIn",
          "type": "uint256"
        },
        {
          "indexed": false,
          "internalType": "uint256",
          "name": "needOut",
          "type": "uint256"
        }
      ],
      "name": "DCA",
      "type": "event"
    },
    {
      "anonymous": false,
      "inputs": [
        {
          "indexed": true,
          "internalType": "address",
          "name": "account",
          "type": "address"
        },
        {
          "indexed": false,
          "internalType": "uint256",
          "name": "amount",
          "type": "uint256"
        },
        {
          "indexed": false,
          "internalType": "uint256",
          "name": "shares",
          "type": "uint256"
        }
      ],
      "name": "Deposit",
      "type": "event"
    },
    {
      "anonymous": false,
      "inputs": [
        {
          "indexed": true,
          "internalType": "address",
          "name": "user",
          "type": "address"
        },
        {
          "indexed": false,
          "internalType": "uint256",
          "name": "amountOfNeed",
          "type": "uint256"
        }
      ],
      "name": "Distribution",
      "type": "event"
    },
    {
      "anonymous": false,
      "inputs": [
        {
          "indexed": false,
          "internalType": "uint256",
          "name": "rewardsAmount",
          "type": "uint256"
        },
        {
          "indexed": false,
          "internalType": "uint256",
          "name": "fees",
          "type": "uint256"
        }
      ],
      "name": "Harvest",
      "type": "event"
    },
    {
      "anonymous": false,
      "inputs": [
        {
          "indexed": true,
          "internalType": "address",
          "name": "previousOwner",
          "type": "address"
        },
        {
          "indexed": true,
          "internalType": "address",
          "name": "newOwner",
          "type": "address"
        }
      ],
      "name": "OwnershipTransferred",
      "type": "event"
    },
    {
      "anonymous": false,
      "inputs": [
        {
          "indexed": true,
          "internalType": "address",
          "name": "from",
          "type": "address"
        },
        {
          "indexed": true,
          "internalType": "address",
          "name": "to",
          "type": "address"
        },
        {
          "indexed": false,
          "internalType": "uint256",
          "name": "value",
          "type": "uint256"
        }
      ],
      "name": "Transfer",
      "type": "event"
    },
    {
      "anonymous": false,
      "inputs": [
        {
          "indexed": true,
          "internalType": "address",
          "name": "account",
          "type": "address"
        },
        {
          "indexed": false,
          "internalType": "uint256",
          "name": "value",
          "type": "uint256"
        },
        {
          "indexed": false,
          "internalType": "uint256",
          "name": "shares",
          "type": "uint256"
        }
      ],
      "name": "Withdraw",
      "type": "event"
    },
    {
      "inputs": [],
      "name": "MAX_BPS",
      "outputs": [
        {
          "internalType": "uint256",
          "name": "",
          "type": "uint256"
        }
      ],
      "stateMutability": "view",
      "type": "function"
    },
    {
      "inputs": [],
      "name": "PRECISION",
      "outputs": [
        {
          "internalType": "uint256",
          "name": "",
          "type": "uint256"
        }
      ],
      "stateMutability": "view",
      "type": "function"
    },
    {
      "inputs": [
        {
          "internalType": "address",
          "name": "newStrat",
          "type": "address"
        }
      ],
      "name": "addStrategy",
      "outputs": [],
      "stateMutability": "nonpayable",
      "type": "function"
    },
    {
      "inputs": [
        {
          "internalType": "address",
          "name": "owner",
          "type": "address"
        },
        {
          "internalType": "address",
          "name": "spender",
          "type": "address"
        }
      ],
      "name": "allowance",
      "outputs": [
        {
          "internalType": "uint256",
          "name": "",
          "type": "uint256"
        }
      ],
      "stateMutability": "view",
      "type": "function"
    },
    {
      "inputs": [
        {
          "internalType": "address",
          "name": "spender",
          "type": "address"
        },
        {
          "internalType": "uint256",
          "name": "amount",
          "type": "uint256"
        }
      ],
      "name": "approve",
      "outputs": [
        {
          "internalType": "bool",
          "name": "",
          "type": "bool"
        }
      ],
      "stateMutability": "nonpayable",
      "type": "function"
    },
    {
      "inputs": [],
      "name": "balanceInStrats",
      "outputs": [
        {
          "internalType": "uint256",
          "name": "",
          "type": "uint256"
        }
      ],
      "stateMutability": "view",
      "type": "function"
    },
    {
      "inputs": [
        {
          "internalType": "address",
          "name": "account",
          "type": "address"
        }
      ],
      "name": "balanceOf",
      "outputs": [
        {
          "internalType": "uint256",
          "name": "",
          "type": "uint256"
        }
      ],
      "stateMutability": "view",
      "type": "function"
    },
    {
      "inputs": [],
      "name": "balanceOfNeed",
      "outputs": [
        {
          "internalType": "uint256",
          "name": "",
          "type": "uint256"
        }
      ],
      "stateMutability": "view",
      "type": "function"
    },
    {
      "inputs": [],
      "name": "balanceOfWant",
      "outputs": [
        {
          "internalType": "uint256",
          "name": "",
          "type": "uint256"
        }
      ],
      "stateMutability": "view",
      "type": "function"
    },
    {
      "inputs": [],
      "name": "decimals",
      "outputs": [
        {
          "internalType": "uint8",
          "name": "",
          "type": "uint8"
        }
      ],
      "stateMutability": "view",
      "type": "function"
    },
    {
      "inputs": [
        {
          "internalType": "address",
          "name": "spender",
          "type": "address"
        },
        {
          "internalType": "uint256",
          "name": "subtractedValue",
          "type": "uint256"
        }
      ],
      "name": "decreaseAllowance",
      "outputs": [
        {
          "internalType": "bool",
          "name": "",
          "type": "bool"
        }
      ],
      "stateMutability": "nonpayable",
      "type": "function"
    },
    {
      "inputs": [
        {
          "internalType": "uint256",
          "name": "amount",
          "type": "uint256"
        }
      ],
      "name": "deposit",
      "outputs": [
        {
          "internalType": "uint256",
          "name": "",
          "type": "uint256"
        }
      ],
      "stateMutability": "nonpayable",
      "type": "function"
    },
    {
      "inputs": [],
      "name": "distributeNeed",
      "outputs": [],
      "stateMutability": "nonpayable",
      "type": "function"
    },
    {
      "inputs": [],
      "name": "feeBps",
      "outputs": [
        {
          "internalType": "uint256",
          "name": "",
          "type": "uint256"
        }
      ],
      "stateMutability": "view",
      "type": "function"
    },
    {
      "inputs": [],
      "name": "feedDecimals",
      "outputs": [
        {
          "internalType": "uint256",
          "name": "",
          "type": "uint256"
        }
      ],
      "stateMutability": "view",
      "type": "function"
    },
    {
      "inputs": [
        {
          "internalType": "uint256",
          "name": "amount",
          "type": "uint256"
        }
      ],
      "name": "fromDepositToShares",
      "outputs": [
        {
          "internalType": "uint256",
          "name": "",
          "type": "uint256"
        }
      ],
      "stateMutability": "view",
      "type": "function"
    },
    {
      "inputs": [
        {
          "internalType": "uint256",
          "name": "shares",
          "type": "uint256"
        }
      ],
      "name": "fromSharesToWithdrawal",
      "outputs": [
        {
          "internalType": "uint256",
          "name": "",
          "type": "uint256"
        }
      ],
      "stateMutability": "view",
      "type": "function"
    },
    {
      "inputs": [
        {
          "internalType": "uint256",
          "name": "amount",
          "type": "uint256"
        },
        {
          "internalType": "uint256",
          "name": "ratio",
          "type": "uint256"
        }
      ],
      "name": "getMinOutputAmount",
      "outputs": [
        {
          "internalType": "uint256",
          "name": "",
          "type": "uint256"
        }
      ],
      "stateMutability": "view",
      "type": "function"
    },
    {
      "inputs": [],
      "name": "getTotalValue",
      "outputs": [
        {
          "internalType": "uint256",
          "name": "",
          "type": "uint256"
        }
      ],
      "stateMutability": "view",
      "type": "function"
    },
    {
      "inputs": [
        {
          "internalType": "address",
          "name": "spender",
          "type": "address"
        },
        {
          "internalType": "uint256",
          "name": "addedValue",
          "type": "uint256"
        }
      ],
      "name": "increaseAllowance",
      "outputs": [
        {
          "internalType": "bool",
          "name": "",
          "type": "bool"
        }
      ],
      "stateMutability": "nonpayable",
      "type": "function"
    },
    {
      "inputs": [
        {
          "internalType": "uint256",
          "name": "amount",
          "type": "uint256"
        }
      ],
      "name": "makeSwapDonation",
      "outputs": [],
      "stateMutability": "nonpayable",
      "type": "function"
    },
    {
      "inputs": [],
      "name": "name",
      "outputs": [
        {
          "internalType": "string",
          "name": "",
          "type": "string"
        }
      ],
      "stateMutability": "view",
      "type": "function"
    },
    {
      "inputs": [],
      "name": "need",
      "outputs": [
        {
          "internalType": "address",
          "name": "",
          "type": "address"
        }
      ],
      "stateMutability": "view",
      "type": "function"
    },
    {
      "inputs": [],
      "name": "needDecimals",
      "outputs": [
        {
          "internalType": "uint256",
          "name": "",
          "type": "uint256"
        }
      ],
      "stateMutability": "view",
      "type": "function"
    },
    {
      "inputs": [],
      "name": "owner",
      "outputs": [
        {
          "internalType": "address",
          "name": "",
          "type": "address"
        }
      ],
      "stateMutability": "view",
      "type": "function"
    },
    {
      "inputs": [],
      "name": "paused",
      "outputs": [
        {
          "internalType": "bool",
          "name": "",
          "type": "bool"
        }
      ],
      "stateMutability": "view",
      "type": "function"
    },
    {
      "inputs": [
        {
          "internalType": "uint256",
          "name": "index",
          "type": "uint256"
        }
      ],
      "name": "removeStrategy",
      "outputs": [],
      "stateMutability": "nonpayable",
      "type": "function"
    },
    {
      "inputs": [],
      "name": "renounceOwnership",
      "outputs": [],
      "stateMutability": "nonpayable",
      "type": "function"
    },
    {
      "inputs": [
        {
          "internalType": "uint256",
          "name": "amount",
          "type": "uint256"
        }
      ],
      "name": "reportHarvest",
      "outputs": [],
      "stateMutability": "nonpayable",
      "type": "function"
    },
    {
      "inputs": [
        {
          "internalType": "address",
          "name": "asset",
          "type": "address"
        },
        {
          "internalType": "address",
          "name": "destination",
          "type": "address"
        }
      ],
      "name": "rug",
      "outputs": [
        {
          "internalType": "uint256",
          "name": "",
          "type": "uint256"
        }
      ],
      "stateMutability": "nonpayable",
      "type": "function"
    },
    {
      "inputs": [
        {
          "internalType": "uint256",
          "name": "newFeeBps",
          "type": "uint256"
        }
      ],
      "name": "setFeeBps",
      "outputs": [],
      "stateMutability": "nonpayable",
      "type": "function"
    },
    {
      "inputs": [
        {
          "internalType": "uint256",
          "name": "newFeedDecimals",
          "type": "uint256"
        }
      ],
      "name": "setFeedDecimals",
      "outputs": [],
      "stateMutability": "nonpayable",
      "type": "function"
    },
    {
      "inputs": [
        {
          "internalType": "bool",
          "name": "newPaused",
          "type": "bool"
        }
      ],
      "name": "setPaused",
      "outputs": [],
      "stateMutability": "nonpayable",
      "type": "function"
    },
    {
      "inputs": [
        {
          "internalType": "address",
          "name": "newStrategist",
          "type": "address"
        }
      ],
      "name": "setStrategist",
      "outputs": [],
      "stateMutability": "nonpayable",
      "type": "function"
    },
    {
      "inputs": [
        {
          "internalType": "address",
          "name": "newTreasury",
          "type": "address"
        }
      ],
      "name": "setTreasury",
      "outputs": [],
      "stateMutability": "nonpayable",
      "type": "function"
    },
    {
      "inputs": [],
      "name": "strategist",
      "outputs": [
        {
          "internalType": "address",
          "name": "",
          "type": "address"
        }
      ],
      "stateMutability": "view",
      "type": "function"
    },
    {
      "inputs": [],
      "name": "swapRouter",
      "outputs": [
        {
          "internalType": "address",
          "name": "",
          "type": "address"
        }
      ],
      "stateMutability": "view",
      "type": "function"
    },
    {
      "inputs": [
        {
          "internalType": "uint256",
          "name": "cachedRewardToWantRatio",
          "type": "uint256"
        }
      ],
      "name": "swapToNeed",
      "outputs": [],
      "stateMutability": "nonpayable",
      "type": "function"
    },
    {
      "inputs": [],
      "name": "symbol",
      "outputs": [
        {
          "internalType": "string",
          "name": "",
          "type": "string"
        }
      ],
      "stateMutability": "view",
      "type": "function"
    },
    {
      "inputs": [],
      "name": "toSwap",
      "outputs": [
        {
          "internalType": "uint256",
          "name": "",
          "type": "uint256"
        }
      ],
      "stateMutability": "view",
      "type": "function"
    },
    {
      "inputs": [],
      "name": "totalSupply",
      "outputs": [
        {
          "internalType": "uint256",
          "name": "",
          "type": "uint256"
        }
      ],
      "stateMutability": "view",
      "type": "function"
    },
    {
      "inputs": [
        {
          "internalType": "address",
          "name": "recipient",
          "type": "address"
        },
        {
          "internalType": "uint256",
          "name": "amount",
          "type": "uint256"
        }
      ],
      "name": "transfer",
      "outputs": [
        {
          "internalType": "bool",
          "name": "",
          "type": "bool"
        }
      ],
      "stateMutability": "nonpayable",
      "type": "function"
    },
    {
      "inputs": [
        {
          "internalType": "address",
          "name": "sender",
          "type": "address"
        },
        {
          "internalType": "address",
          "name": "recipient",
          "type": "address"
        },
        {
          "internalType": "uint256",
          "name": "amount",
          "type": "uint256"
        }
      ],
      "name": "transferFrom",
      "outputs": [
        {
          "internalType": "bool",
          "name": "",
          "type": "bool"
        }
      ],
      "stateMutability": "nonpayable",
      "type": "function"
    },
    {
      "inputs": [
        {
          "internalType": "address",
          "name": "newOwner",
          "type": "address"
        }
      ],
      "name": "transferOwnership",
      "outputs": [],
      "stateMutability": "nonpayable",
      "type": "function"
    },
    {
      "inputs": [],
      "name": "treasury",
      "outputs": [
        {
          "internalType": "address",
          "name": "",
          "type": "address"
        }
      ],
      "stateMutability": "view",
      "type": "function"
    },
    {
      "inputs": [
        {
          "internalType": "uint256",
          "name": "",
          "type": "uint256"
        }
      ],
      "name": "users",
      "outputs": [
        {
          "internalType": "address",
          "name": "",
          "type": "address"
        }
      ],
      "stateMutability": "view",
      "type": "function"
    },
    {
      "inputs": [],
      "name": "valueOfNeed",
      "outputs": [
        {
          "internalType": "uint256",
          "name": "",
          "type": "uint256"
        }
      ],
      "stateMutability": "view",
      "type": "function"
    },
    {
      "inputs": [],
      "name": "want",
      "outputs": [
        {
          "internalType": "address",
          "name": "",
          "type": "address"
        }
      ],
      "stateMutability": "view",
      "type": "function"
    },
    {
      "inputs": [],
      "name": "wantDecimals",
      "outputs": [
        {
          "internalType": "uint256",
          "name": "",
          "type": "uint256"
        }
      ],
      "stateMutability": "view",
      "type": "function"
    },
    {
      "inputs": [
        {
          "internalType": "uint256",
          "name": "",
          "type": "uint256"
        }
      ],
      "name": "wantStrategies",
      "outputs": [
        {
          "internalType": "address",
          "name": "",
          "type": "address"
        }
      ],
      "stateMutability": "view",
      "type": "function"
    },
    {
      "inputs": [
        {
          "internalType": "uint256",
          "name": "shares",
          "type": "uint256"
        }
      ],
      "name": "withdraw",
      "outputs": [
        {
          "internalType": "uint256",
          "name": "",
          "type": "uint256"
        }
      ],
      "stateMutability": "nonpayable",
      "type": "function"
    }
  ],
  "transactionHash": "0xaaeaea6f83e9ac60d854e2a3c8533718bdfb1997190ef2240703e27231329a97",
  "args": [
    "0x2791Bca1f2de4661ED88A30C99A7a9449Aa84174",
    "0x1BFD67037B42Cf73acF2047067bd4F2C47D9BfD6"
  ],
  "solcInputHash": "404bd63293f0bdc5a8265f79747f5fd1",
  "bytecode": "0x61010060405260126007556000600855600980546001600160a01b0319908116731b02da8cb0d097eb8d57a175b88c7d8b47997506179091556101f4600b55600c805460ff60a01b19921633179190911690553480156200005f57600080fd5b5060405162003dbd38038062003dbd833981810160405260408110156200008557600080fd5b508051602090910151604080516306fdde0360e01b815290516001600160a01b038416916306fdde03916004808301926000929190829003018186803b158015620000cf57600080fd5b505afa158015620000e4573d6000803e3d6000fd5b505050506040513d6000823e601f3d908101601f1916820160405260208110156200010e57600080fd5b81019080805160405193929190846401000000008211156200012f57600080fd5b9083019060208201858111156200014557600080fd5b82516401000000008111828201881017156200016057600080fd5b82525081516020918201929091019080838360005b838110156200018f57818101518382015260200162000175565b50505050905090810190601f168015620001bd5780820380516001836020036101000a031916815260200191505b50604052505050816001600160a01b03166306fdde036040518163ffffffff1660e01b815260040160006040518083038186803b158015620001fe57600080fd5b505afa15801562000213573d6000803e3d6000fd5b505050506040513d6000823e601f3d908101601f1916820160405260208110156200023d57600080fd5b81019080805160405193929190846401000000008211156200025e57600080fd5b9083019060208201858111156200027457600080fd5b82516401000000008111828201881017156200028f57600080fd5b82525081516020918201929091019080838360005b83811015620002be578181015183820152602001620002a4565b50505050905090810190601f168015620002ec5780820380516001836020036101000a031916815260200191505b50604052505050604051602001808066026bcb4b2b632160cd1b81525060070183805190602001908083835b60208310620003395780518252601f19909201916020918201910162000318565b51815160209384036101000a60001901801990921691161790527f205661756c7420776974682044434120746f2000000000000000000000000000919093019081528451601390910192850191508083835b60208310620003ac5780518252601f1990920191602091820191016200038b565b6001836020036101000a03801982511681845116808217855250505050505090500192505050604051602081830303815290604052826001600160a01b03166395d89b416040518163ffffffff1660e01b815260040160006040518083038186803b1580156200041b57600080fd5b505afa15801562000430573d6000803e3d6000fd5b505050506040513d6000823e601f3d908101601f1916820160405260208110156200045a57600080fd5b81019080805160405193929190846401000000008211156200047b57600080fd5b9083019060208201858111156200049157600080fd5b8251640100000000811182820188101715620004ac57600080fd5b82525081516020918201929091019080838360005b83811015620004db578181015183820152602001620004c1565b50505050905090810190601f168015620005095780820380516001836020036101000a031916815260200191505b50604052505050826001600160a01b03166395d89b416040518163ffffffff1660e01b815260040160006040518083038186803b1580156200054a57600080fd5b505afa1580156200055f573d6000803e3d6000fd5b505050506040513d6000823e601f3d908101601f1916820160405260208110156200058957600080fd5b8101908080516040519392919084640100000000821115620005aa57600080fd5b908301906020820185811115620005c057600080fd5b8251640100000000811182820188101715620005db57600080fd5b82525081516020918201929091019080838360005b838110156200060a578181015183820152602001620005f0565b50505050905090810190601f168015620006385780820380516001836020036101000a031916815260200191505b50604052505050604051602001808066135e565a595b1960ca1b81525060070183805190602001908083835b60208310620006855780518252601f19909201916020918201910162000664565b6001836020036101000a03801982511681845116808217855250505050505090500180601960f91b81525060010182805190602001908083835b60208310620006e05780518252601f199092019160209182019101620006bf565b6001836020036101000a03801982511681845116808217855250505050505090500192505050604051602081830303815290604052836001600160a01b031663313ce5676040518163ffffffff1660e01b815260040160206040518083038186803b1580156200074f57600080fd5b505afa15801562000764573d6000803e3d6000fd5b505050506040513d60208110156200077b57600080fd5b505182516200079290600390602086019062000938565b508151620007a890600490602085019062000938565b506005805460ff191660ff929092169190911790555060009050620007cc62000934565b60058054610100600160a81b0319166101006001600160a01b03841690810291909117909155604051919250906000907f8be0079c531659141344cd1fd0a4f28419497f9722a3daafe3b4186f6b6457e0908290a35060016006556001600160601b0319606083811b821660805282901b1660a0526040805163313ce56760e01b815290516001600160a01b0384169163313ce567916004808301926020929190829003018186803b1580156200088257600080fd5b505afa15801562000897573d6000803e3d6000fd5b505050506040513d6020811015620008ae57600080fd5b505160ff1660e0526040805163313ce56760e01b815290516001600160a01b0383169163313ce567916004808301926020929190829003018186803b158015620008f757600080fd5b505afa1580156200090c573d6000803e3d6000fd5b505050506040513d60208110156200092357600080fd5b505160ff1660c05250620009e49050565b3390565b828054600181600116156101000203166002900490600052602060002090601f016020900481019282620009705760008555620009bb565b82601f106200098b57805160ff1916838001178555620009bb565b82800160010185558215620009bb579182015b82811115620009bb5782518255916020019190600101906200099e565b50620009c9929150620009cd565b5090565b5b80821115620009c95760008155600101620009ce565b60805160601c60a05160601c60c05160e05161332a62000a93600039806118515280611e0f5280611e5d5280611eb15280611f2052508061082c5280611e305280611e7e5280611ed25280611eff525080610fe952806110fc528061119452806115e35280611a0b52806123625250806109c85280610a585280610b455280610e0552806119bd5280611a755280611d625280612040528061209e528061227952806122b2525061332a6000f3fe608060405234801561001057600080fd5b50600436106102f05760003560e01c80637e9b09de1161019d578063b8e5dbc4116100e9578063caa648b4116100a2578063eadfe33b1161007c578063eadfe33b146107ce578063f0f44260146107d6578063f2fde38b146107fc578063fd967f4714610822576102f0565b8063caa648b41461077b578063dc7da29914610783578063dd62ed3e146107a0576102f0565b8063b8e5dbc4146106fd578063c0cbbca614610720578063c1a3d44c1461073d578063c23953d014610745578063c31c9c071461074d578063c7b9d53014610755576102f0565b8063a7d347c111610156578063aaf5eb6811610130578063aaf5eb68146106b3578063adf076e6146106bb578063b67e2534146106c3578063b6b55f25146106e0576102f0565b8063a7d347c114610662578063a8e738e61461067f578063a9059cbb14610687576102f0565b80637e9b09de146105e45780638da5cb5b146105ec57806390e2d55f146105f457806395d89b4114610611578063a457c2d714610619578063a4e84dbe14610645576102f0565b8063313ce5671161025c5780635c975abb116102155780636cb2e46a116101ef5780636cb2e46a1461059157806370a0823114610599578063715018a6146105bf57806372c27b62146105c7576102f0565b80635c975abb1461055357806361d027b31461055b5780636a3b7ec214610563576102f0565b8063313ce567146104bf578063365b98b2146104dd57806338dbc1ac146104fa5780633950935114610517578063462dec65146105435780635b426b231461054b576102f0565b80631f1fcd51116102ae5780631f1fcd511461042e5780631fe4a68614610436578063223e54791461043e57806323b872dd1461046457806324a9d8531461049a5780632e1a7d4d146104a2576102f0565b806275289a146102f557806306fdde031461030f57806307291aad1461038c578063095ea7b3146103c557806316c38b3c1461040557806318160ddd14610426575b600080fd5b6102fd61082a565b60408051918252519081900360200190f35b61031761084e565b6040805160208082528351818301528351919283929083019185019080838360005b83811015610351578181015183820152602001610339565b50505050905090810190601f16801561037e5780820380516001836020036101000a031916815260200191505b509250505060405180910390f35b6103a9600480360360208110156103a257600080fd5b50356108e4565b604080516001600160a01b039092168252519081900360200190f35b6103f1600480360360408110156103db57600080fd5b506001600160a01b03813516906020013561090e565b604080519115158252519081900360200190f35b6104246004803603602081101561041b57600080fd5b5035151561092c565b005b6102fd6109c0565b6103a96109c6565b6103a96109ea565b6104246004803603602081101561045457600080fd5b50356001600160a01b03166109f9565b6103f16004803603606081101561047a57600080fd5b506001600160a01b03813581169160208101359091169060400135610bc0565b6102fd610c47565b6102fd600480360360208110156104b857600080fd5b5035610c4d565b6104c7610e7b565b6040805160ff9092168252519081900360200190f35b6103a9600480360360208110156104f357600080fd5b5035610e84565b6102fd6004803603602081101561051057600080fd5b5035610e94565b6103f16004803603604081101561052d57600080fd5b506001600160a01b038135169060200135610ed6565b610424610f24565b6102fd611190565b6103f1611230565b6103a9611240565b6102fd6004803603604081101561057957600080fd5b506001600160a01b038135811691602001351661124f565b6102fd611391565b6102fd600480360360208110156105af57600080fd5b50356001600160a01b0316611396565b6104246113b1565b610424600480360360208110156105dd57600080fd5b503561145e565b6102fd6114c0565b6103a96114c6565b6104246004803603602081101561060a57600080fd5b50356114da565b610317611623565b6103f16004803603604081101561062f57600080fd5b506001600160a01b038135169060200135611684565b6102fd6004803603602081101561065b57600080fd5b50356116ec565b6104246004803603602081101561067857600080fd5b5035611710565b6102fd61178b565b6103f16004803603604081101561069d57600080fd5b506001600160a01b03813516906020013561182f565b6102fd611843565b6102fd61184f565b610424600480360360208110156106d957600080fd5b5035611873565b6102fd600480360360208110156106f657600080fd5b5035611c93565b6102fd6004803603604081101561071357600080fd5b5080359060200135611de2565b6104246004803603602081101561073657600080fd5b5035611f58565b6102fd61209a565b6102fd612109565b6103a961210f565b6104246004803603602081101561076b57600080fd5b50356001600160a01b031661211e565b6102fd61219d565b6104246004803603602081101561079957600080fd5b50356121b5565b6102fd600480360360408110156107b657600080fd5b506001600160a01b0381358116916020013516612335565b6103a9612360565b610424600480360360208110156107ec57600080fd5b50356001600160a01b0316612384565b6104246004803603602081101561081257600080fd5b50356001600160a01b0316612403565b6102fd61250c565b7f000000000000000000000000000000000000000000000000000000000000000081565b60038054604080516020601f60026000196101006001881615020190951694909404938401819004810282018101909252828152606093909290918301828280156108da5780601f106108af576101008083540402835291602001916108da565b820191906000526020600020905b8154815290600101906020018083116108bd57829003601f168201915b5050505050905090565b600d81815481106108f457600080fd5b6000918252602090912001546001600160a01b0316905081565b600061092261091b612512565b8484612516565b5060015b92915050565b6109346114c6565b6001600160a01b0316336001600160a01b0316148061095d5750600a546001600160a01b031633145b6109a2576040805162461bcd60e51b8152602060048201526011602482015270139bdd081a5b8813585b9859d95b595b9d607a1b604482015290519081900360640190fd5b600c8054911515600160a01b0260ff60a01b19909216919091179055565b60025490565b7f000000000000000000000000000000000000000000000000000000000000000081565b600a546001600160a01b031681565b610a01612512565b60055461010090046001600160a01b03908116911614610a56576040805162461bcd60e51b815260206004820181905260248201526000805160206131e6833981519152604482015290519081900360640190fd5b7f00000000000000000000000000000000000000000000000000000000000000006001600160a01b0316816001600160a01b0316631f1fcd516040518163ffffffff1660e01b8152600401602060405180830381600087803b158015610abb57600080fd5b505af1158015610acf573d6000803e3d6000fd5b505050506040513d6020811015610ae557600080fd5b50516001600160a01b031614610b38576040805162461bcd60e51b815260206004820152601360248201527214dd1c985d1959de481ddc9bdb99c81dd85b9d606a1b604482015290519081900360640190fd5b610b6e6001600160a01b037f00000000000000000000000000000000000000000000000000000000000000001682600019612602565b600d80546001810182556000919091527fd7b6990105719101dabeb77144f2a3385c8033acd3af97e9423a695e81ad1eb50180546001600160a01b0319166001600160a01b0392909216919091179055565b6000610bcd84848461271a565b610c3d84610bd9612512565b610c38856040518060600160405280602881526020016131be602891396001600160a01b038a16600090815260016020526040812090610c17612512565b6001600160a01b031681526020810191909152604001600020549190612875565b612516565b5060019392505050565b600b5481565b600060026006541415610c95576040805162461bcd60e51b815260206004820152601f60248201526000805160206130ed833981519152604482015290519081900360640190fd5b6002600655600c54600160a01b900460ff1615610cee576040805162461bcd60e51b815260206004820152601260248201527110dbdb9d1c9858dd081a5cc814185d5cd95960721b604482015290519081900360640190fd5b6000610cf9836116ec565b9050610d05338461290c565b80610d0e61209a565b1015610de05760005b600d54811015610dde576000600d8281548110610d3057fe5b9060005260206000200160009054906101000a90046001600160a01b03166001600160a01b0316632e1a7d4d846040518263ffffffff1660e01b815260040180828152602001915050602060405180830381600087803b158015610d9357600080fd5b505af1158015610da7573d6000803e3d6000fd5b505050506040513d6020811015610dbd57600080fd5b5051905082610dca61209a565b10610dd55750610dde565b50600101610d17565b505b6000610dea61209a565b905080821115610df8578091505b610e2c6001600160a01b037f0000000000000000000000000000000000000000000000000000000000000000163384612a08565b610e3533612a5a565b6040805183815260208101869052815133927ff279e6a1f5e320cca91135676d9cb6e44ca8a08c0b88342bcdb1144f6511b568928290030190a250600160065592915050565b60055460ff1690565b600e81815481106108f457600080fd5b6000610926670de0b6b3a7640000610ed0610ead61219d565b610ed0610eb86109c0565b610eca670de0b6b3a764000089612ac0565b90612ac0565b90612b19565b6000610922610ee3612512565b84610c388560016000610ef4612512565b6001600160a01b03908116825260208083019390935260409182016000908120918c168152925290205490612b5b565b60026006541415610f6a576040805162461bcd60e51b815260206004820152601f60248201526000805160206130ed833981519152604482015290519081900360640190fd5b6002600655610f776114c6565b6001600160a01b0316336001600160a01b03161480610fa05750600a546001600160a01b031633145b610fe5576040805162461bcd60e51b8152602060048201526011602482015270139bdd081a5b8813585b9859d95b595b9d607a1b604482015290519081900360640190fd5b60007f00000000000000000000000000000000000000000000000000000000000000006001600160a01b03166370a08231306040518263ffffffff1660e01b815260040180826001600160a01b0316815260200191505060206040518083038186803b15801561105457600080fd5b505afa158015611068573d6000803e3d6000fd5b505050506040513d602081101561107e57600080fd5b5051905060005b600e548110156111875760006110bb600e83815481106110a157fe5b6000918252602090912001546001600160a01b0316611396565b905060006110d46110ca6109c0565b610ed08685612ac0565b9050611125600e84815481106110e657fe5b6000918252602090912001546001600160a01b037f00000000000000000000000000000000000000000000000000000000000000008116911683612a08565b600e838154811061113257fe5b600091825260209182902001546040805184815290516001600160a01b03909216927f33ad5d6b2a46b5457e0d36286a2686a0390b0821dedbbdf8dcdcda64f4782c6892918290030190a25050600101611085565b50506001600655565b60007f00000000000000000000000000000000000000000000000000000000000000006001600160a01b03166370a08231306040518263ffffffff1660e01b815260040180826001600160a01b0316815260200191505060206040518083038186803b1580156111ff57600080fd5b505afa158015611213573d6000803e3d6000fd5b505050506040513d602081101561122957600080fd5b5051905090565b600c54600160a01b900460ff1681565b600c546001600160a01b031681565b6000611259612512565b60055461010090046001600160a01b039081169116146112ae576040805162461bcd60e51b815260206004820181905260248201526000805160206131e6833981519152604482015290519081900360640190fd5b600260065414156112f4576040805162461bcd60e51b815260206004820152601f60248201526000805160206130ed833981519152604482015290519081900360640190fd5b6002600655604080516370a0823160e01b815230600482015290516000916001600160a01b038616916370a0823191602480820192602092909190829003018186803b15801561134357600080fd5b505afa158015611357573d6000803e3d6000fd5b505050506040513d602081101561136d57600080fd5b505190506113856001600160a01b0385168483612a08565b60016006559392505050565b600090565b6001600160a01b031660009081526020819052604090205490565b6113b9612512565b60055461010090046001600160a01b0390811691161461140e576040805162461bcd60e51b815260206004820181905260248201526000805160206131e6833981519152604482015290519081900360640190fd5b60055460405160009161010090046001600160a01b0316907f8be0079c531659141344cd1fd0a4f28419497f9722a3daafe3b4186f6b6457e0908390a360058054610100600160a81b0319169055565b611466612512565b60055461010090046001600160a01b039081169116146114bb576040805162461bcd60e51b815260206004820181905260248201526000805160206131e6833981519152604482015290519081900360640190fd5b600b55565b60085481565b60055461010090046001600160a01b031690565b60026006541415611520576040805162461bcd60e51b815260206004820152601f60248201526000805160206130ed833981519152604482015290519081900360640190fd5b6002600655600c54600160a01b900460ff1615611579576040805162461bcd60e51b815260206004820152601260248201527110dbdb9d1c9858dd081a5cc814185d5cd95960721b604482015290519081900360640190fd5b611581612512565b60055461010090046001600160a01b039081169116146115d6576040805162461bcd60e51b815260206004820181905260248201526000805160206131e6833981519152604482015290519081900360640190fd5b61160b6001600160a01b037f000000000000000000000000000000000000000000000000000000000000000016333084612bb5565b6008546116189082612b5b565b600855506001600655565b60048054604080516020601f60026000196101006001881615020190951694909404938401819004810282018101909252828152606093909290918301828280156108da5780601f106108af576101008083540402835291602001916108da565b6000610922611691612512565b84610c38856040518060600160405280602581526020016132d060259139600160006116bb612512565b6001600160a01b03908116825260208083019390935260409182016000908120918d16815292529020549190612875565b6000610926670de0b6b3a7640000610ed06117056109c0565b610ed0610eb861219d565b6117186114c6565b6001600160a01b0316336001600160a01b031614806117415750600a546001600160a01b031633145b611786576040805162461bcd60e51b8152602060048201526011602482015270139bdd081a5b8813585b9859d95b595b9d607a1b604482015290519081900360640190fd5b600755565b600080805b600d5481101561182957600d81815481106117a757fe5b60009182526020918290200154604080516332a9922d60e21b815290516001600160a01b039092169263caa648b492600480840193829003018186803b1580156117f057600080fd5b505afa158015611804573d6000803e3d6000fd5b505050506040513d602081101561181a57600080fd5b50519190910190600101611790565b50905090565b600061092261183c612512565b848461271a565b670de0b6b3a764000081565b7f000000000000000000000000000000000000000000000000000000000000000081565b600260065414156118b9576040805162461bcd60e51b815260206004820152601f60248201526000805160206130ed833981519152604482015290519081900360640190fd5b6002600655600c54600160a01b900460ff1615611912576040805162461bcd60e51b815260206004820152601260248201527110dbdb9d1c9858dd081a5cc814185d5cd95960721b604482015290519081900360640190fd5b61191a6114c6565b6001600160a01b0316336001600160a01b031614806119435750600a546001600160a01b031633145b611988576040805162461bcd60e51b8152602060048201526011602482015270139bdd081a5b8813585b9859d95b595b9d607a1b604482015290519081900360640190fd5b60085460006119978284611de2565b6040805160028082526060808301845293945090916020830190803683370190505090507f0000000000000000000000000000000000000000000000000000000000000000816000815181106119e957fe5b60200260200101906001600160a01b031690816001600160a01b0316815250507f000000000000000000000000000000000000000000000000000000000000000081600181518110611a3757fe5b60200260200101906001600160a01b031690816001600160a01b0316815250506000611a61611190565b600954909150611a9e906001600160a01b037f00000000000000000000000000000000000000000000000000000000000000008116911686612602565b600960009054906101000a90046001600160a01b03166001600160a01b03166338ed173985858530426040518663ffffffff1660e01b81526004018086815260200185815260200180602001846001600160a01b03168152602001838152602001828103825285818151815260200191508051906020019060200280838360005b83811015611b37578181015183820152602001611b1f565b505050509050019650505050505050600060405180830381600087803b158015611b6057600080fd5b505af1158015611b74573d6000803e3d6000fd5b505050506040513d6000823e601f3d908101601f191682016040526020811015611b9d57600080fd5b8101908080516040519392919084640100000000821115611bbd57600080fd5b908301906020820185811115611bd257600080fd5b8251866020820283011164010000000082111715611bef57600080fd5b82525081516020918201928201910280838360005b83811015611c1c578181015183820152602001611c04565b50505050905001604052505050506000611c34611190565b90506000611c428284612c15565b6000600855604080518881526020810183905281519293507f086c0a9e0190c3bcc267b03a3c94a3141775451402a61a9193b205144003d833929081900390910190a1505060016006555050505050565b600060026006541415611cdb576040805162461bcd60e51b815260206004820152601f60248201526000805160206130ed833981519152604482015290519081900360640190fd5b6002600655600c54600160a01b900460ff1615611d34576040805162461bcd60e51b815260206004820152601260248201527110dbdb9d1c9858dd081a5cc814185d5cd95960721b604482015290519081900360640190fd5b6000611d3e6109c0565b611d49575081611d55565b611d5283610e94565b90505b611d8a6001600160a01b037f000000000000000000000000000000000000000000000000000000000000000016333086612bb5565b611d943382612c57565b611d9d33612d47565b6040805184815260208101839052815133927f90890809c654f11d6e72a28fa60149770a0d11ec6c92319d6ceb2bb0a4ea1a15928290030190a2600160065592915050565b600080611e0b6064610ed06063610eca87610ed0600754600a0a8b612ac090919063ffffffff16565b90507f00000000000000000000000000000000000000000000000000000000000000007f00000000000000000000000000000000000000000000000000000000000000001015611eaf57611eac611ea27f00000000000000000000000000000000000000000000000000000000000000007f0000000000000000000000000000000000000000000000000000000000000000612c15565b8290600a0a612b19565b90505b7f00000000000000000000000000000000000000000000000000000000000000007f00000000000000000000000000000000000000000000000000000000000000001115611f5157611f4e611f447f00000000000000000000000000000000000000000000000000000000000000007f0000000000000000000000000000000000000000000000000000000000000000612c15565b8290600a0a612ac0565b90505b9392505050565b611f60612512565b60055461010090046001600160a01b03908116911614611fb5576040805162461bcd60e51b815260206004820181905260248201526000805160206131e6833981519152604482015290519081900360640190fd5b600d80546000198101908110611fc757fe5b600091825260209091200154600d80546001600160a01b039092169183908110611fed57fe5b9060005260206000200160006101000a8154816001600160a01b0302191690836001600160a01b0316021790555061206a600d828154811061202b57fe5b60009182526020822001546001600160a01b037f0000000000000000000000000000000000000000000000000000000000000000811692911690612602565b600d80548061207557fe5b600082815260209020810160001990810180546001600160a01b031916905501905550565b60007f00000000000000000000000000000000000000000000000000000000000000006001600160a01b03166370a08231306040518263ffffffff1660e01b815260040180826001600160a01b0316815260200191505060206040518083038186803b1580156111ff57600080fd5b60075481565b6009546001600160a01b031681565b612126612512565b60055461010090046001600160a01b0390811691161461217b576040805162461bcd60e51b815260206004820181905260248201526000805160206131e6833981519152604482015290519081900360640190fd5b600a80546001600160a01b0319166001600160a01b0392909216919091179055565b60006121a761178b565b6121af61209a565b01905090565b6000805b600d5481101561220257336001600160a01b0316600d82815481106121da57fe5b6000918252602090912001546001600160a01b031614156121fa57600191505b6001016121b9565b5080612248576040805162461bcd60e51b815260206004820152601060248201526f4f6e6c7920537472617465676965732160801b604482015290519081900360640190fd5b6000339050600061226a612710610ed0600b5487612ac090919063ffffffff16565b90506122a16001600160a01b037f000000000000000000000000000000000000000000000000000000000000000016833087612bb5565b600c546122db906001600160a01b037f00000000000000000000000000000000000000000000000000000000000000008116911683612a08565b6122f16122e88583612c15565b60085490612b5b565b600855604080518581526020810183905281517f6c8433a8e155f0af04dba058d4e4695f7da554578963d876bdf4a6d8d6399d9c929181900390910190a150505050565b6001600160a01b03918216600090815260016020908152604080832093909416825291909152205490565b7f000000000000000000000000000000000000000000000000000000000000000081565b61238c612512565b60055461010090046001600160a01b039081169116146123e1576040805162461bcd60e51b815260206004820181905260248201526000805160206131e6833981519152604482015290519081900360640190fd5b600c80546001600160a01b0319166001600160a01b0392909216919091179055565b61240b612512565b60055461010090046001600160a01b03908116911614612460576040805162461bcd60e51b815260206004820181905260248201526000805160206131e6833981519152604482015290519081900360640190fd5b6001600160a01b0381166124a55760405162461bcd60e51b815260040180806020018281038252602681526020018061312f6026913960400191505060405180910390fd5b6005546040516001600160a01b0380841692610100900416907f8be0079c531659141344cd1fd0a4f28419497f9722a3daafe3b4186f6b6457e090600090a3600580546001600160a01b0390921661010002610100600160a81b0319909216919091179055565b61271081565b3390565b6001600160a01b03831661255b5760405162461bcd60e51b815260040180806020018281038252602481526020018061324c6024913960400191505060405180910390fd5b6001600160a01b0382166125a05760405162461bcd60e51b81526004018080602001828103825260228152602001806131556022913960400191505060405180910390fd5b6001600160a01b03808416600081815260016020908152604080832094871680845294825291829020859055815185815291517f8c5be1e5ebec7d5bd14f71427d1e84f3dd0314c0f7b2291e5b200ac8c7c3b9259281900390910190a3505050565b801580612688575060408051636eb1769f60e11b81523060048201526001600160a01b03848116602483015291519185169163dd62ed3e91604480820192602092909190829003018186803b15801561265a57600080fd5b505afa15801561266e573d6000803e3d6000fd5b505050506040513d602081101561268457600080fd5b5051155b6126c35760405162461bcd60e51b815260040180806020018281038252603681526020018061329a6036913960400191505060405180910390fd5b604080516001600160a01b038416602482015260448082018490528251808303909101815260649091019091526020810180516001600160e01b031663095ea7b360e01b179052612715908490612dff565b505050565b6001600160a01b03831661275f5760405162461bcd60e51b81526004018080602001828103825260258152602001806132276025913960400191505060405180910390fd5b6001600160a01b0382166127a45760405162461bcd60e51b81526004018080602001828103825260238152602001806130ca6023913960400191505060405180910390fd5b6127af838383612715565b6127ec81604051806060016040528060268152602001613177602691396001600160a01b0386166000908152602081905260409020549190612875565b6001600160a01b03808516600090815260208190526040808220939093559084168152205461281b9082612b5b565b6001600160a01b038084166000818152602081815260409182902094909455805185815290519193928716927fddf252ad1be2c89b69c2b068fc378daa952ba7f163c4a11628f55a4df523b3ef92918290030190a3505050565b600081848411156129045760405162461bcd60e51b81526004018080602001828103825283818151815260200191508051906020019080838360005b838110156128c95781810151838201526020016128b1565b50505050905090810190601f1680156128f65780820380516001836020036101000a031916815260200191505b509250505060405180910390fd5b505050900390565b6001600160a01b0382166129515760405162461bcd60e51b81526004018080602001828103825260218152602001806132066021913960400191505060405180910390fd5b61295d82600083612715565b61299a8160405180606001604052806022815260200161310d602291396001600160a01b0385166000908152602081905260409020549190612875565b6001600160a01b0383166000908152602081905260409020556002546129c09082612c15565b6002556040805182815290516000916001600160a01b038516917fddf252ad1be2c89b69c2b068fc378daa952ba7f163c4a11628f55a4df523b3ef9181900360200190a35050565b604080516001600160a01b038416602482015260448082018490528251808303909101815260649091019091526020810180516001600160e01b031663a9059cbb60e01b179052612715908490612dff565b60005b600e54811015612abc57816001600160a01b0316600e8281548110612a7e57fe5b6000918252602090912001546001600160a01b03161415612ab457612aa282611396565b612aaf57612aaf81612fb7565b612abc565b600101612a5d565b5050565b600082612acf57506000610926565b82820282848281612adc57fe5b0414611f515760405162461bcd60e51b815260040180806020018281038252602181526020018061319d6021913960400191505060405180910390fd5b6000611f5183836040518060400160405280601a81526020017f536166654d6174683a206469766973696f6e206279207a65726f000000000000815250613028565b600082820183811015611f51576040805162461bcd60e51b815260206004820152601b60248201527f536166654d6174683a206164646974696f6e206f766572666c6f770000000000604482015290519081900360640190fd5b604080516001600160a01b0380861660248301528416604482015260648082018490528251808303909101815260849091019091526020810180516001600160e01b03166323b872dd60e01b179052612c0f908590612dff565b50505050565b6000611f5183836040518060400160405280601e81526020017f536166654d6174683a207375627472616374696f6e206f766572666c6f770000815250612875565b6001600160a01b038216612cb2576040805162461bcd60e51b815260206004820152601f60248201527f45524332303a206d696e7420746f20746865207a65726f206164647265737300604482015290519081900360640190fd5b612cbe60008383612715565b600254612ccb9082612b5b565b6002556001600160a01b038216600090815260208190526040902054612cf19082612b5b565b6001600160a01b0383166000818152602081815260408083209490945583518581529351929391927fddf252ad1be2c89b69c2b068fc378daa952ba7f163c4a11628f55a4df523b3ef9281900390910190a35050565b6000612d5282611396565b1115612dfc576000805b600e54811015612da957826001600160a01b0316600e8281548110612d7d57fe5b6000918252602090912001546001600160a01b03161415612da15760019150612da9565b600101612d5c565b5080612abc5750600e80546001810182556000919091527fbb7b4a454dc3493923482f07822329ed19e8244eff582cc204f8554c3620c3fd0180546001600160a01b0319166001600160a01b0383161790555b50565b612e11826001600160a01b031661308d565b612e62576040805162461bcd60e51b815260206004820152601f60248201527f5361666545524332303a2063616c6c20746f206e6f6e2d636f6e747261637400604482015290519081900360640190fd5b60006060836001600160a01b0316836040518082805190602001908083835b60208310612ea05780518252601f199092019160209182019101612e81565b6001836020036101000a0380198251168184511680821785525050505050509050019150506000604051808303816000865af19150503d8060008114612f02576040519150601f19603f3d011682016040523d82523d6000602084013e612f07565b606091505b509150915081612f5e576040805162461bcd60e51b815260206004820181905260248201527f5361666545524332303a206c6f772d6c6576656c2063616c6c206661696c6564604482015290519081900360640190fd5b805115612c0f57808060200190516020811015612f7a57600080fd5b5051612c0f5760405162461bcd60e51b815260040180806020018281038252602a815260200180613270602a913960400191505060405180910390fd5b600e80546000198101908110612fc957fe5b600091825260209091200154600e80546001600160a01b039092169183908110612fef57fe5b9060005260206000200160006101000a8154816001600160a01b0302191690836001600160a01b03160217905550600e80548061207557fe5b600081836130775760405162461bcd60e51b81526020600482018181528351602484015283519092839260449091019190850190808383600083156128c95781810151838201526020016128b1565b50600083858161308357fe5b0495945050505050565b6000813f7fc5d2460186f7233c927e7db2dcc703c0e500b653ca82273b7bfad8045d85a4708181148015906130c157508115155b94935050505056fe45524332303a207472616e7366657220746f20746865207a65726f20616464726573735265656e7472616e637947756172643a207265656e7472616e742063616c6c0045524332303a206275726e20616d6f756e7420657863656564732062616c616e63654f776e61626c653a206e6577206f776e657220697320746865207a65726f206164647265737345524332303a20617070726f766520746f20746865207a65726f206164647265737345524332303a207472616e7366657220616d6f756e7420657863656564732062616c616e6365536166654d6174683a206d756c7469706c69636174696f6e206f766572666c6f7745524332303a207472616e7366657220616d6f756e74206578636565647320616c6c6f77616e63654f776e61626c653a2063616c6c6572206973206e6f7420746865206f776e657245524332303a206275726e2066726f6d20746865207a65726f206164647265737345524332303a207472616e736665722066726f6d20746865207a65726f206164647265737345524332303a20617070726f76652066726f6d20746865207a65726f20616464726573735361666545524332303a204552433230206f7065726174696f6e20646964206e6f7420737563636565645361666545524332303a20617070726f76652066726f6d206e6f6e2d7a65726f20746f206e6f6e2d7a65726f20616c6c6f77616e636545524332303a2064656372656173656420616c6c6f77616e63652062656c6f77207a65726fa2646970667358221220aa959347b6052a7a87550b408f12a3fda24d75a7d4e9408e41be7d2570d360fe64736f6c63430007050033",
  "devdoc": {
    "kind": "dev",
    "methods": {
      "allowance(address,address)": {
        "details": "returns the allowance of spender on the tokens owned by owner",
        "params": {
          "owner": "the owner of the tokens",
          "spender": "the user allowed to spend the owner's tokens"
        },
        "returns": {
          "_0": "the amount of owner's tokens spender is allowed to spend*"
        }
      },
      "approve(address,uint256)": {
        "details": "allows spender to spend the tokens owned by msg.sender",
        "params": {
          "spender": "the user allowed to spend msg.sender tokens"
        },
        "returns": {
          "_0": "true*"
        }
      },
      "balanceOf(address)": {
        "returns": {
          "_0": "the balance of the token*"
        }
      },
      "decimals()": {
        "returns": {
          "_0": "the decimals of the token*"
        }
      },
      "decreaseAllowance(address,uint256)": {
        "details": "decreases the allowance of spender to spend msg.sender tokens",
        "params": {
          "spender": "the user allowed to spend on behalf of msg.sender",
          "subtractedValue": "the amount being subtracted to the allowance"
        },
        "returns": {
          "_0": "true*"
        }
      },
      "increaseAllowance(address,uint256)": {
        "details": "increases the allowance of spender to spend msg.sender tokens",
        "params": {
          "addedValue": "the amount being added to the allowance",
          "spender": "the user allowed to spend on behalf of msg.sender"
        },
        "returns": {
          "_0": "true*"
        }
      },
      "name()": {
        "returns": {
          "_0": "the name of the token*"
        }
      },
      "owner()": {
        "details": "Returns the address of the current owner."
      },
      "renounceOwnership()": {
        "details": "Leaves the contract without owner. It will not be possible to call `onlyOwner` functions anymore. Can only be called by the current owner. NOTE: Renouncing ownership will leave the contract without an owner, thereby removing any functionality that is only available to the owner."
      },
      "symbol()": {
        "returns": {
          "_0": "the symbol of the token*"
        }
      },
      "totalSupply()": {
        "returns": {
          "_0": "the total supply of the token*"
        }
      },
      "transfer(address,uint256)": {
        "details": "executes a transfer of tokens from msg.sender to recipient",
        "params": {
          "amount": "the amount of tokens being transferred",
          "recipient": "the recipient of the tokens"
        },
        "returns": {
          "_0": "true if the transfer succeeds, false otherwise*"
        }
      },
      "transferFrom(address,address,uint256)": {
        "details": "executes a transfer of token from sender to recipient, if msg.sender is allowed to do so",
        "params": {
          "amount": "the amount of tokens being transferred",
          "recipient": "the recipient of the tokens",
          "sender": "the owner of the tokens"
        },
        "returns": {
          "_0": "true if the transfer succeeds, false otherwise*"
        }
      },
      "transferOwnership(address)": {
        "details": "Transfers ownership of the contract to a new account (`newOwner`). Can only be called by the current owner."
      }
    },
    "version": 1
  },
  "userdoc": {
    "kind": "user",
    "methods": {
      "fromDepositToShares(uint256)": {
        "notice": "Deposit "
      },
      "fromSharesToWithdrawal(uint256)": {
        "notice": "Withdrawals "
      },
      "rug(address,address)": {
        "notice": "UNSAFE METHODS "
      },
      "setTreasury(address)": {
        "notice": "Setters "
      }
    },
    "version": 1
  },
  "storageLayout": {
    "storage": [
      {
        "astId": 6884,
        "contract": "contracts/DCAVault.sol:MyieldDCAVault",
        "label": "_balances",
        "offset": 0,
        "slot": "0",
        "type": "t_mapping(t_address,t_uint256)"
      },
      {
        "astId": 6890,
        "contract": "contracts/DCAVault.sol:MyieldDCAVault",
        "label": "_allowances",
        "offset": 0,
        "slot": "1",
        "type": "t_mapping(t_address,t_mapping(t_address,t_uint256))"
      },
      {
        "astId": 6892,
        "contract": "contracts/DCAVault.sol:MyieldDCAVault",
        "label": "_totalSupply",
        "offset": 0,
        "slot": "2",
        "type": "t_uint256"
      },
      {
        "astId": 6894,
        "contract": "contracts/DCAVault.sol:MyieldDCAVault",
        "label": "_name",
        "offset": 0,
        "slot": "3",
        "type": "t_string_storage"
      },
      {
        "astId": 6896,
        "contract": "contracts/DCAVault.sol:MyieldDCAVault",
        "label": "_symbol",
        "offset": 0,
        "slot": "4",
        "type": "t_string_storage"
      },
      {
        "astId": 6898,
        "contract": "contracts/DCAVault.sol:MyieldDCAVault",
        "label": "_decimals",
        "offset": 0,
        "slot": "5",
        "type": "t_uint8"
      },
      {
        "astId": 7815,
        "contract": "contracts/DCAVault.sol:MyieldDCAVault",
        "label": "_owner",
        "offset": 1,
        "slot": "5",
        "type": "t_address"
      },
      {
        "astId": 7971,
        "contract": "contracts/DCAVault.sol:MyieldDCAVault",
        "label": "_status",
        "offset": 0,
        "slot": "6",
        "type": "t_uint256"
      },
      {
        "astId": 1720,
        "contract": "contracts/DCAVault.sol:MyieldDCAVault",
        "label": "feedDecimals",
        "offset": 0,
        "slot": "7",
        "type": "t_uint256"
      },
      {
        "astId": 1723,
        "contract": "contracts/DCAVault.sol:MyieldDCAVault",
        "label": "toSwap",
        "offset": 0,
        "slot": "8",
        "type": "t_uint256"
      },
      {
        "astId": 1726,
        "contract": "contracts/DCAVault.sol:MyieldDCAVault",
        "label": "swapRouter",
        "offset": 0,
        "slot": "9",
        "type": "t_address"
      },
      {
        "astId": 1728,
        "contract": "contracts/DCAVault.sol:MyieldDCAVault",
        "label": "strategist",
        "offset": 0,
        "slot": "10",
        "type": "t_address"
      },
      {
        "astId": 1741,
        "contract": "contracts/DCAVault.sol:MyieldDCAVault",
        "label": "feeBps",
        "offset": 0,
        "slot": "11",
        "type": "t_uint256"
      },
      {
        "astId": 1745,
        "contract": "contracts/DCAVault.sol:MyieldDCAVault",
        "label": "treasury",
        "offset": 0,
        "slot": "12",
        "type": "t_address"
      },
      {
        "astId": 1748,
        "contract": "contracts/DCAVault.sol:MyieldDCAVault",
        "label": "paused",
        "offset": 20,
        "slot": "12",
        "type": "t_bool"
      },
      {
        "astId": 1751,
        "contract": "contracts/DCAVault.sol:MyieldDCAVault",
        "label": "wantStrategies",
        "offset": 0,
        "slot": "13",
        "type": "t_array(t_address)dyn_storage"
      },
      {
        "astId": 1754,
        "contract": "contracts/DCAVault.sol:MyieldDCAVault",
        "label": "users",
        "offset": 0,
        "slot": "14",
        "type": "t_array(t_address)dyn_storage"
      }
    ],
    "types": {
      "t_address": {
        "encoding": "inplace",
        "label": "address",
        "numberOfBytes": "20"
      },
      "t_array(t_address)dyn_storage": {
        "base": "t_address",
        "encoding": "dynamic_array",
        "label": "address[]",
        "numberOfBytes": "32"
      },
      "t_bool": {
        "encoding": "inplace",
        "label": "bool",
        "numberOfBytes": "1"
      },
      "t_mapping(t_address,t_mapping(t_address,t_uint256))": {
        "encoding": "mapping",
        "key": "t_address",
        "label": "mapping(address => mapping(address => uint256))",
        "numberOfBytes": "32",
        "value": "t_mapping(t_address,t_uint256)"
      },
      "t_mapping(t_address,t_uint256)": {
        "encoding": "mapping",
        "key": "t_address",
        "label": "mapping(address => uint256)",
        "numberOfBytes": "32",
        "value": "t_uint256"
      },
      "t_string_storage": {
        "encoding": "bytes",
        "label": "string",
        "numberOfBytes": "32"
      },
      "t_uint256": {
        "encoding": "inplace",
        "label": "uint256",
        "numberOfBytes": "32"
      },
      "t_uint8": {
        "encoding": "inplace",
        "label": "uint8",
        "numberOfBytes": "1"
      }
    }
  }
}