{
  "address": "0x1D5Af4e5771e1ba53b47558e815d3BF352c9138A",
  "abi": [
    {
      "inputs": [],
      "stateMutability": "nonpayable",
      "type": "constructor"
    },
    {
      "anonymous": false,
      "inputs": [
        {
          "indexed": true,
          "internalType": "address",
          "name": "owner",
          "type": "address"
        },
        {
          "indexed": true,
          "internalType": "address",
          "name": "spender",
          "type": "address"
        },
        {
          "indexed": false,
          "internalType": "uint256",
          "name": "value",
          "type": "uint256"
        }
      ],
      "name": "Approval",
      "type": "event"
    },
    {
      "anonymous": false,
      "inputs": [
        {
          "indexed": true,
          "internalType": "address",
          "name": "previousOwner",
          "type": "address"
        },
        {
          "indexed": true,
          "internalType": "address",
          "name": "newOwner",
          "type": "address"
        }
      ],
      "name": "OwnershipTransferred",
      "type": "event"
    },
    {
      "anonymous": false,
      "inputs": [
        {
          "indexed": true,
          "internalType": "address",
          "name": "from",
          "type": "address"
        },
        {
          "indexed": true,
          "internalType": "address",
          "name": "to",
          "type": "address"
        },
        {
          "indexed": false,
          "internalType": "uint256",
          "name": "value",
          "type": "uint256"
        }
      ],
      "name": "Transfer",
      "type": "event"
    },
    {
      "inputs": [],
      "name": "ADDRES_PROVIDER",
      "outputs": [
        {
          "internalType": "address",
          "name": "",
          "type": "address"
        }
      ],
      "stateMutability": "view",
      "type": "function"
    },
    {
      "inputs": [],
      "name": "LENDING_POOL",
      "outputs": [
        {
          "internalType": "address",
          "name": "",
          "type": "address"
        }
      ],
      "stateMutability": "view",
      "type": "function"
    },
    {
      "inputs": [],
      "name": "MATIC_REWARDS",
      "outputs": [
        {
          "internalType": "address",
          "name": "",
          "type": "address"
        }
      ],
      "stateMutability": "view",
      "type": "function"
    },
    {
      "inputs": [],
      "name": "MIN_HEALTH",
      "outputs": [
        {
          "internalType": "uint256",
          "name": "",
          "type": "uint256"
        }
      ],
      "stateMutability": "view",
      "type": "function"
    },
    {
      "inputs": [],
      "name": "PRECISION",
      "outputs": [
        {
          "internalType": "uint256",
          "name": "",
          "type": "uint256"
        }
      ],
      "stateMutability": "view",
      "type": "function"
    },
    {
      "inputs": [
        {
          "internalType": "address",
          "name": "owner",
          "type": "address"
        },
        {
          "internalType": "address",
          "name": "spender",
          "type": "address"
        }
      ],
      "name": "allowance",
      "outputs": [
        {
          "internalType": "uint256",
          "name": "",
          "type": "uint256"
        }
      ],
      "stateMutability": "view",
      "type": "function"
    },
    {
      "inputs": [
        {
          "internalType": "address",
          "name": "spender",
          "type": "address"
        },
        {
          "internalType": "uint256",
          "name": "amount",
          "type": "uint256"
        }
      ],
      "name": "approve",
      "outputs": [
        {
          "internalType": "bool",
          "name": "",
          "type": "bool"
        }
      ],
      "stateMutability": "nonpayable",
      "type": "function"
    },
    {
      "inputs": [
        {
          "internalType": "address",
          "name": "account",
          "type": "address"
        }
      ],
      "name": "balanceOf",
      "outputs": [
        {
          "internalType": "uint256",
          "name": "",
          "type": "uint256"
        }
      ],
      "stateMutability": "view",
      "type": "function"
    },
    {
      "inputs": [],
      "name": "balanceOfWant",
      "outputs": [
        {
          "internalType": "uint256",
          "name": "",
          "type": "uint256"
        }
      ],
      "stateMutability": "view",
      "type": "function"
    },
    {
      "inputs": [],
      "name": "canBorrow",
      "outputs": [
        {
          "internalType": "uint256",
          "name": "",
          "type": "uint256"
        }
      ],
      "stateMutability": "view",
      "type": "function"
    },
    {
      "inputs": [],
      "name": "canRepay",
      "outputs": [
        {
          "internalType": "uint256",
          "name": "",
          "type": "uint256"
        }
      ],
      "stateMutability": "view",
      "type": "function"
    },
    {
      "inputs": [],
      "name": "decimals",
      "outputs": [
        {
          "internalType": "uint8",
          "name": "",
          "type": "uint8"
        }
      ],
      "stateMutability": "view",
      "type": "function"
    },
    {
      "inputs": [
        {
          "internalType": "address",
          "name": "spender",
          "type": "address"
        },
        {
          "internalType": "uint256",
          "name": "subtractedValue",
          "type": "uint256"
        }
      ],
      "name": "decreaseAllowance",
      "outputs": [
        {
          "internalType": "bool",
          "name": "",
          "type": "bool"
        }
      ],
      "stateMutability": "nonpayable",
      "type": "function"
    },
    {
      "inputs": [
        {
          "internalType": "uint256",
          "name": "amount",
          "type": "uint256"
        }
      ],
      "name": "deposit",
      "outputs": [
        {
          "internalType": "uint256",
          "name": "",
          "type": "uint256"
        }
      ],
      "stateMutability": "nonpayable",
      "type": "function"
    },
    {
      "inputs": [],
      "name": "depositAll",
      "outputs": [],
      "stateMutability": "nonpayable",
      "type": "function"
    },
    {
      "inputs": [],
      "name": "deposited",
      "outputs": [
        {
          "internalType": "uint256",
          "name": "",
          "type": "uint256"
        }
      ],
      "stateMutability": "view",
      "type": "function"
    },
    {
      "inputs": [
        {
          "internalType": "uint256",
          "name": "amount",
          "type": "uint256"
        }
      ],
      "name": "divestFromAAVE",
      "outputs": [],
      "stateMutability": "nonpayable",
      "type": "function"
    },
    {
      "inputs": [
        {
          "internalType": "uint256",
          "name": "amount",
          "type": "uint256"
        }
      ],
      "name": "fromDepositToShares",
      "outputs": [
        {
          "internalType": "uint256",
          "name": "",
          "type": "uint256"
        }
      ],
      "stateMutability": "view",
      "type": "function"
    },
    {
      "inputs": [
        {
          "internalType": "uint256",
          "name": "amount",
          "type": "uint256"
        }
      ],
      "name": "fromSharesToWithdrawal",
      "outputs": [
        {
          "internalType": "uint256",
          "name": "",
          "type": "uint256"
        }
      ],
      "stateMutability": "view",
      "type": "function"
    },
    {
      "inputs": [],
      "name": "getRate",
      "outputs": [
        {
          "internalType": "uint256",
          "name": "",
          "type": "uint256"
        }
      ],
      "stateMutability": "view",
      "type": "function"
    },
    {
      "inputs": [],
      "name": "getRewardsBalance",
      "outputs": [
        {
          "internalType": "uint256",
          "name": "",
          "type": "uint256"
        }
      ],
      "stateMutability": "view",
      "type": "function"
    },
    {
      "inputs": [],
      "name": "getTotalValue",
      "outputs": [
        {
          "internalType": "uint256",
          "name": "",
          "type": "uint256"
        }
      ],
      "stateMutability": "view",
      "type": "function"
    },
    {
      "inputs": [
        {
          "internalType": "address",
          "name": "spender",
          "type": "address"
        },
        {
          "internalType": "uint256",
          "name": "addedValue",
          "type": "uint256"
        }
      ],
      "name": "increaseAllowance",
      "outputs": [
        {
          "internalType": "bool",
          "name": "",
          "type": "bool"
        }
      ],
      "stateMutability": "nonpayable",
      "type": "function"
    },
    {
      "inputs": [],
      "name": "name",
      "outputs": [
        {
          "internalType": "string",
          "name": "",
          "type": "string"
        }
      ],
      "stateMutability": "view",
      "type": "function"
    },
    {
      "inputs": [],
      "name": "owed",
      "outputs": [
        {
          "internalType": "uint256",
          "name": "",
          "type": "uint256"
        }
      ],
      "stateMutability": "view",
      "type": "function"
    },
    {
      "inputs": [],
      "name": "owner",
      "outputs": [
        {
          "internalType": "address",
          "name": "",
          "type": "address"
        }
      ],
      "stateMutability": "view",
      "type": "function"
    },
    {
      "inputs": [],
      "name": "rebalance",
      "outputs": [],
      "stateMutability": "nonpayable",
      "type": "function"
    },
    {
      "inputs": [],
      "name": "reinvestRewards",
      "outputs": [],
      "stateMutability": "nonpayable",
      "type": "function"
    },
    {
      "inputs": [],
      "name": "renounceOwnership",
      "outputs": [],
      "stateMutability": "nonpayable",
      "type": "function"
    },
    {
      "inputs": [
        {
          "internalType": "uint256",
          "name": "amount",
          "type": "uint256"
        }
      ],
      "name": "repayAAVE",
      "outputs": [],
      "stateMutability": "nonpayable",
      "type": "function"
    },
    {
      "inputs": [
        {
          "internalType": "address",
          "name": "asset",
          "type": "address"
        },
        {
          "internalType": "address",
          "name": "destination",
          "type": "address"
        }
      ],
      "name": "rug",
      "outputs": [
        {
          "internalType": "uint256",
          "name": "",
          "type": "uint256"
        }
      ],
      "stateMutability": "nonpayable",
      "type": "function"
    },
    {
      "inputs": [],
      "name": "symbol",
      "outputs": [
        {
          "internalType": "string",
          "name": "",
          "type": "string"
        }
      ],
      "stateMutability": "view",
      "type": "function"
    },
    {
      "inputs": [],
      "name": "totalSupply",
      "outputs": [
        {
          "internalType": "uint256",
          "name": "",
          "type": "uint256"
        }
      ],
      "stateMutability": "view",
      "type": "function"
    },
    {
      "inputs": [
        {
          "internalType": "address",
          "name": "recipient",
          "type": "address"
        },
        {
          "internalType": "uint256",
          "name": "amount",
          "type": "uint256"
        }
      ],
      "name": "transfer",
      "outputs": [
        {
          "internalType": "bool",
          "name": "",
          "type": "bool"
        }
      ],
      "stateMutability": "nonpayable",
      "type": "function"
    },
    {
      "inputs": [
        {
          "internalType": "address",
          "name": "sender",
          "type": "address"
        },
        {
          "internalType": "address",
          "name": "recipient",
          "type": "address"
        },
        {
          "internalType": "uint256",
          "name": "amount",
          "type": "uint256"
        }
      ],
      "name": "transferFrom",
      "outputs": [
        {
          "internalType": "bool",
          "name": "",
          "type": "bool"
        }
      ],
      "stateMutability": "nonpayable",
      "type": "function"
    },
    {
      "inputs": [
        {
          "internalType": "address",
          "name": "newOwner",
          "type": "address"
        }
      ],
      "name": "transferOwnership",
      "outputs": [],
      "stateMutability": "nonpayable",
      "type": "function"
    },
    {
      "inputs": [],
      "name": "want",
      "outputs": [
        {
          "internalType": "address",
          "name": "",
          "type": "address"
        }
      ],
      "stateMutability": "view",
      "type": "function"
    },
    {
      "inputs": [
        {
          "internalType": "uint256",
          "name": "amount",
          "type": "uint256"
        }
      ],
      "name": "withdraw",
      "outputs": [
        {
          "internalType": "uint256",
          "name": "",
          "type": "uint256"
        }
      ],
      "stateMutability": "nonpayable",
      "type": "function"
    },
    {
      "inputs": [
        {
          "internalType": "uint256",
          "name": "amount",
          "type": "uint256"
        }
      ],
      "name": "withdrawFromAAVE",
      "outputs": [],
      "stateMutability": "nonpayable",
      "type": "function"
    },
    {
      "inputs": [
        {
          "internalType": "uint256",
          "name": "canRepay",
          "type": "uint256"
        }
      ],
      "name": "withdrawStepFromAAVE",
      "outputs": [],
      "stateMutability": "nonpayable",
      "type": "function"
    }
  ],
  "transactionHash": "0xae1eb30d4441f5fa53f0c0b2af0ef5cc994ec0470c4003698053c37fbde5650f",
  "args": [],
  "solcInputHash": "7370413d78d8d99c797f217bb11031f4",
  "bytecode": "0x60806040523480156200001157600080fd5b50604080518082018252601481527f4d795969656c6420574d41544943205661756c740000000000000000000000006020808301918252835180850190945260088452674d79574d4154494360c01b9084015281519192916012916200007b9160039190620001b4565b50815162000091906004906020850190620001b4565b506005805460ff191660ff929092169190911790555060009050620000b5620001b0565b60058054610100600160a81b0319166101006001600160a01b03841690810291909117909155604051919250906000907f8be0079c531659141344cd1fd0a4f28419497f9722a3daafe3b4186f6b6457e0908290a3506040805163095ea7b360e01b8152738dff5e27ea6b7ac08ebfdf9eb090f32ee9a30fcf600482015260001960248201529051730d500b1d8e8ef31e21c99d1db9a6444d3adf12709163095ea7b39160448083019260209291908290030181600087803b1580156200017b57600080fd5b505af115801562000190573d6000803e3d6000fd5b505050506040513d6020811015620001a757600080fd5b50620002609050565b3390565b828054600181600116156101000203166002900490600052602060002090601f016020900481019282620001ec576000855562000237565b82601f106200020757805160ff191683800117855562000237565b8280016001018555821562000237579182015b82811115620002375782518255916020019190600101906200021a565b506200024592915062000249565b5090565b5b808211156200024557600081556001016200024a565b612acd80620002706000396000f3fe608060405234801561001057600080fd5b50600436106102485760003560e01c80638da5cb5b1161013b578063c1a3d44c116100b8578063de5f62681161007c578063de5f626814610604578063e638ca991461060c578063eef49ee314610614578063f2fde38b1461061c578063fc2804c01461064257610248565b8063c1a3d44c146105a1578063c6ceb6f5146105a9578063c87d6779146105c6578063caa648b4146105ce578063dd62ed3e146105d657610248565b8063a9059cbb116100ff578063a9059cbb14610540578063aaf5eb681461056c578063b4dcfc7714610574578063b5f4d38c1461057c578063b6b55f251461058457610248565b80638da5cb5b146104ca57806395d89b41146104d2578063a364a57a146104da578063a457c2d7146104f7578063a4e84dbe1461052357610248565b80634adc9d5b116101c9578063715018a61161018d578063715018a61461047657806378cc43a8146104805780637d7c2a1c1461049d578063858a135d146104a557806385f158ea146104ad57610248565b80634adc9d5b1461040a578063679aefce1461041257806368cf06e41461041a5780636a3b7ec21461042257806370a082311461045057610248565b80632e1a7d4d116102105780632e1a7d4d1461037e578063313ce5671461039b57806338dbc1ac146103b957806339509351146103d6578063421715c21461040257610248565b806306fdde031461024d578063095ea7b3146102ca57806318160ddd1461030a5780631f1fcd511461032457806323b872dd14610348575b600080fd5b61025561064a565b6040805160208082528351818301528351919283929083019185019080838360005b8381101561028f578181015183820152602001610277565b50505050905090810190601f1680156102bc5780820380516001836020036101000a031916815260200191505b509250505060405180910390f35b6102f6600480360360408110156102e057600080fd5b506001600160a01b0381351690602001356106e1565b604080519115158252519081900360200190f35b6103126106ff565b60408051918252519081900360200190f35b61032c610705565b604080516001600160a01b039092168252519081900360200190f35b6102f66004803603606081101561035e57600080fd5b506001600160a01b03813581169160208101359091169060400135610717565b6103126004803603602081101561039457600080fd5b503561079e565b6103a3610902565b6040805160ff9092168252519081900360200190f35b610312600480360360208110156103cf57600080fd5b503561090b565b6102f6600480360360408110156103ec57600080fd5b506001600160a01b03813516906020013561094d565b61031261099b565b61032c610ad1565b610312610ae9565b610312610bef565b6103126004803603604081101561043857600080fd5b506001600160a01b0381358116916020013516610bfb565b6103126004803603602081101561046657600080fd5b50356001600160a01b0316610d5f565b61047e610d7a565b005b61047e6004803603602081101561049657600080fd5b5035610e27565b61047e610e90565b610312610fd9565b61047e600480360360208110156104c357600080fd5b503561123c565b61032c611330565b610255611344565b61047e600480360360208110156104f057600080fd5b50356113a5565b6102f66004803603604081101561050d57600080fd5b506001600160a01b038135169060200135611471565b6103126004803603602081101561053957600080fd5b50356114d9565b6102f66004803603604081101561055657600080fd5b506001600160a01b0381351690602001356114fd565b610312611511565b61032c61151d565b61047e61152f565b6103126004803603602081101561059a57600080fd5b5035611893565b6103126119d8565b61047e600480360360208110156105bf57600080fd5b5035611a58565b610312611abe565b610312611bb2565b610312600480360360408110156105ec57600080fd5b506001600160a01b0381358116916020013516611be3565b61047e611c0e565b61032c611ca7565b610312611cbf565b61047e6004803603602081101561063257600080fd5b50356001600160a01b0316611da8565b610312611eb1565b60038054604080516020601f60026000196101006001881615020190951694909404938401819004810282018101909252828152606093909290918301828280156106d65780601f106106ab576101008083540402835291602001916106d6565b820191906000526020600020905b8154815290600101906020018083116106b957829003601f168201915b505050505090505b90565b60006106f56106ee611fe4565b8484611fe8565b5060015b92915050565b60025490565b600080516020612a7883398151915281565b60006107248484846120d4565b61079484610730611fe4565b61078f8560405180606001604052806028815260200161295d602891396001600160a01b038a1660009081526001602052604081209061076e611fe4565b6001600160a01b03168152602081019190915260400160002054919061222f565b611fe8565b5060019392505050565b6000806107aa836114d9565b90506107b633846122c6565b806107bf6119d8565b10156107ce576107ce816123c2565b60006107d86119d8565b905080821115610868576040805163a9059cbb60e01b8152336004820152602481018390529051600080516020612a788339815191529163a9059cbb9160448083019260209291908290030181600087803b15801561083657600080fd5b505af115801561084a573d6000803e3d6000fd5b505050506040513d602081101561086057600080fd5b506108f99050565b6040805163a9059cbb60e01b8152336004820152602481018490529051600080516020612a788339815191529163a9059cbb9160448083019260209291908290030181600087803b1580156108bc57600080fd5b505af11580156108d0573d6000803e3d6000fd5b505050506040513d60208110156108e657600080fd5b506108f19050611c0e565b6108f9610e90565b5090505b919050565b60055460ff1690565b60006106f9670de0b6b3a7640000610947610924611bb2565b61094761092f6106ff565b610941670de0b6b3a7640000896124ec565b906124ec565b9061254c565b60006106f561095a611fe4565b8461078f856001600061096b611fe4565b6001600160a01b03908116825260208083019390935260409182016000908120918c16815292529020549061258e565b6000806000806000806000600080516020612a338339815191526001600160a01b031663bf92857c306040518263ffffffff1660e01b815260040180826001600160a01b0316815260200191505060c06040518083038186803b158015610a0157600080fd5b505afa158015610a15573d6000803e3d6000fd5b505050506040513d60c0811015610a2b57600080fd5b508051602082015160408301516060840151608085015160a090950151939a5091985096509450909250905067120a871cc0020000811115610ac4576000610a87670de0b6b3a7640000610947606481605f610941858c6124ec565b9050610ab6670de0b6b3a7640000610947610aa0610ae9565b610947670de0b6b3a764000061094181886124ec565b9750505050505050506106de565b6000965050505050505090565b73357d51124f59836ded84c8a1730d72b749d8bc2381565b60008073d05e3e715d945b59290df0ae8ef85c1bdb6847446001600160a01b031663fca513a86040518163ffffffff1660e01b815260040160206040518083038186803b158015610b3957600080fd5b505afa158015610b4d573d6000803e3d6000fd5b505050506040513d6020811015610b6357600080fd5b50516040805163b3596f0760e01b8152600080516020612a78833981519152600482015290519192506001600160a01b0383169163b3596f0791602480820192602092909190829003018186803b158015610bbd57600080fd5b505afa158015610bd1573d6000803e3d6000fd5b505050506040513d6020811015610be757600080fd5b505191505090565b67120a871cc002000081565b6000610c05611fe4565b60055461010090046001600160a01b03908116911614610c5a576040805162461bcd60e51b81526020600482018190526024820152600080516020612985833981519152604482015290519081900360640190fd5b6000836001600160a01b03166370a08231306040518263ffffffff1660e01b815260040180826001600160a01b0316815260200191505060206040518083038186803b158015610ca957600080fd5b505afa158015610cbd573d6000803e3d6000fd5b505050506040513d6020811015610cd357600080fd5b50516040805163a9059cbb60e01b81526001600160a01b0386811660048301526024820184905291519293509086169163a9059cbb916044808201926020929091908290030181600087803b158015610d2b57600080fd5b505af1158015610d3f573d6000803e3d6000fd5b505050506040513d6020811015610d5557600080fd5b5090949350505050565b6001600160a01b031660009081526020819052604090205490565b610d82611fe4565b60055461010090046001600160a01b03908116911614610dd7576040805162461bcd60e51b81526020600482018190526024820152600080516020612985833981519152604482015290519081900360640190fd5b60055460405160009161010090046001600160a01b0316907f8be0079c531659141344cd1fd0a4f28419497f9722a3daafe3b4186f6b6457e0908390a360058054610100600160a81b0319169055565b610e2f611fe4565b60055461010090046001600160a01b03908116911614610e84576040805162461bcd60e51b81526020600482018190526024820152600080516020612985833981519152604482015290519081900360640190fd5b610e8d816125e8565b50565b600560005b81811015610fd4576000610ea761099b565b90508015610fc3576040805163a415bcad60e01b8152600080516020612a78833981519152600482015260248101839052600260448201526000606482018190523060848301529151600080516020612a338339815191529263a415bcad9260a4808201939182900301818387803b158015610f2257600080fd5b505af1158015610f36573d6000803e3d6000fd5b50506040805163e8eda9df60e01b8152600080516020612a788339815191526004820152602481018590523060448201526000606482018190529151600080516020612a33833981519152945063e8eda9df93506084808301939282900301818387803b158015610fa657600080fd5b505af1158015610fba573d6000803e3d6000fd5b50505050610fcb565b505050610fd7565b50600101610e95565b50505b565b60008073d05e3e715d945b59290df0ae8ef85c1bdb6847446001600160a01b03166321f8a7216040518163ffffffff1660e01b815260040180806230783160e81b815250602001905060206040518083038186803b15801561103a57600080fd5b505afa15801561104e573d6000803e3d6000fd5b505050506040513d602081101561106457600080fd5b5051604080516334924edb60e21b8152600080516020612a788339815191526004820152905191925060009182916001600160a01b0385169163d2493b6c91602480820192606092909190829003018186803b1580156110c357600080fd5b505afa1580156110d7573d6000803e3d6000fd5b505050506040513d60608110156110ed57600080fd5b50805160409182015182516002808252606080830186529396509194509192602083019080368337019050509050828160008151811061112957fe5b60200260200101906001600160a01b031690816001600160a01b031681525050818160018151811061115757fe5b6001600160a01b03909216602092830291909101820152604080516345accf9360e11b815230602482018190526004820192835284516044830152845160009473357d51124f59836ded84c8a1730d72b749d8bc2394638b599f26948894939192839260649092019186820191028083838c5b838110156111e25781810151838201526020016111ca565b50505050905001935050505060206040518083038186803b15801561120657600080fd5b505afa15801561121a573d6000803e3d6000fd5b505050506040513d602081101561123057600080fd5b50519550505050505090565b611244611fe4565b60055461010090046001600160a01b03908116911614611299576040805162461bcd60e51b81526020600482018190526024820152600080516020612985833981519152604482015290519081900360640190fd5b60408051631a4ca37b60e21b8152600080516020612a788339815191526004820152602481018390523060448201529051600080516020612a33833981519152916369328dec9160648083019260209291908290030181600087803b15801561130157600080fd5b505af1158015611315573d6000803e3d6000fd5b505050506040513d602081101561132b57600080fd5b505050565b60055461010090046001600160a01b031690565b60048054604080516020601f60026000196101006001881615020190951694909404938401819004810282018101909252828152606093909290918301828280156106d65780601f106106ab576101008083540402835291602001916106d6565b6113ad611fe4565b60055461010090046001600160a01b03908116911614611402576040805162461bcd60e51b81526020600482018190526024820152600080516020612985833981519152604482015290519081900360640190fd5b6040805163573ade8160e01b8152600080516020612a78833981519152600482015260248101839052600260448201523060648201529051600080516020612a338339815191529163573ade819160848083019260209291908290030181600087803b15801561130157600080fd5b60006106f561147e611fe4565b8461078f85604051806060016040528060258152602001612a5360259139600160006114a8611fe4565b6001600160a01b03908116825260208083019390935260409182016000908120918d1681529252902054919061222f565b60006106f9670de0b6b3a76400006109476114f26106ff565b61094761092f611bb2565b60006106f561150a611fe4565b84846120d4565b670de0b6b3a764000081565b600080516020612a3383398151915281565b611537611fe4565b60055461010090046001600160a01b0390811691161461158c576040805162461bcd60e51b81526020600482018190526024820152600080516020612985833981519152604482015290519081900360640190fd5b600073d05e3e715d945b59290df0ae8ef85c1bdb6847446001600160a01b03166321f8a7216040518163ffffffff1660e01b815260040180806230783160e81b815250602001905060206040518083038186803b1580156115ec57600080fd5b505afa158015611600573d6000803e3d6000fd5b505050506040513d602081101561161657600080fd5b5051604080516334924edb60e21b8152600080516020612a788339815191526004820152905191925060009182916001600160a01b0385169163d2493b6c91602480820192606092909190829003018186803b15801561167557600080fd5b505afa158015611689573d6000803e3d6000fd5b505050506040513d606081101561169f57600080fd5b5080516040918201518251600280825260608083018652939650919450919260208301908036833701905050905082816000815181106116db57fe5b60200260200101906001600160a01b031690816001600160a01b031681525050818160018151811061170957fe5b6001600160a01b03909216602092830291909101820152604051633111e7b360e01b815260001960248201819052306044830181905260606004840190815285516064850152855173357d51124f59836ded84c8a1730d72b749d8bc2395633111e7b39588959493928392608490920191878101910280838360005b8381101561179d578181015183820152602001611785565b50505050905001945050505050602060405180830381600087803b1580156117c457600080fd5b505af11580156117d8573d6000803e3d6000fd5b505050506040513d60208110156117ee57600080fd5b50600080516020612a33833981519152905063e8eda9df600080516020612a7883398151915261181c6119d8565b604080516001600160e01b031960e086901b1681526001600160a01b0390931660048401526024830191909152306044830152600060648301819052905160848084019382900301818387803b15801561187557600080fd5b505af1158015611889573d6000803e3d6000fd5b5050505050505050565b604080516323b872dd60e01b8152336004820152306024820152604481018390529051600091600080516020612a78833981519152916323b872dd9160648082019260209290919082900301818787803b1580156118f057600080fd5b505af1158015611904573d6000803e3d6000fd5b505050506040513d602081101561191a57600080fd5b50506040805163e8eda9df60e01b8152600080516020612a788339815191526004820152602481018490523060448201526000606482018190529151600080516020612a338339815191529263e8eda9df926084808201939182900301818387803b15801561198857600080fd5b505af115801561199c573d6000803e3d6000fd5b505050506119a86106ff565b6119bb576119b633836126f1565b6108fd565b60006119c68361090b565b90506119d233826126f1565b50919050565b604080516370a0823160e01b81523060048201529051600091600080516020612a78833981519152916370a0823191602480820192602092909190829003018186803b158015611a2757600080fd5b505afa158015611a3b573d6000803e3d6000fd5b505050506040513d6020811015611a5157600080fd5b5051905090565b611a60611fe4565b60055461010090046001600160a01b03908116911614611ab5576040805162461bcd60e51b81526020600482018190526024820152600080516020612985833981519152604482015290519081900360640190fd5b610e8d816123c2565b6000806000806000806000600080516020612a338339815191526001600160a01b031663bf92857c306040518263ffffffff1660e01b815260040180826001600160a01b0316815260200191505060c06040518083038186803b158015611b2457600080fd5b505afa158015611b38573d6000803e3d6000fd5b505050506040513d60c0811015611b4e57600080fd5b508051602082015160408301516060840151608085015160a090950151939a50919850965094509092509050611ba7670de0b6b3a7640000610947611b91610ae9565b610947670de0b6b3a7640000610941818c6124ec565b965050505050505090565b6000611bde611bbf611abe565b611bd8611bca611cbf565b611bd26119d8565b9061258e565b906127e1565b905090565b6001600160a01b03918216600090815260016020908152604080832093909416825291909152205490565b6000611c186119d8565b90508015610e8d576040805163e8eda9df60e01b8152600080516020612a788339815191526004820152602481018390523060448201526000606482018190529151600080516020612a338339815191529263e8eda9df926084808201939182900301818387803b158015611c8c57600080fd5b505af1158015611ca0573d6000803e3d6000fd5b5050505050565b73d05e3e715d945b59290df0ae8ef85c1bdb68474481565b6000806000806000806000600080516020612a338339815191526001600160a01b031663bf92857c306040518263ffffffff1660e01b815260040180826001600160a01b0316815260200191505060c06040518083038186803b158015611d2557600080fd5b505afa158015611d39573d6000803e3d6000fd5b505050506040513d60c0811015611d4f57600080fd5b508051602082015160408301516060840151608085015160a090950151939a50919850965094509092509050611ba7670de0b6b3a7640000610947611d92610ae9565b610947670de0b6b3a7640000610941818d6124ec565b611db0611fe4565b60055461010090046001600160a01b03908116911614611e05576040805162461bcd60e51b81526020600482018190526024820152600080516020612985833981519152604482015290519081900360640190fd5b6001600160a01b038116611e4a5760405162461bcd60e51b81526004018080602001828103825260268152602001806128ce6026913960400191505060405180910390fd5b6005546040516001600160a01b0380841692610100900416907f8be0079c531659141344cd1fd0a4f28419497f9722a3daafe3b4186f6b6457e090600090a3600580546001600160a01b0390921661010002610100600160a81b0319909216919091179055565b6000806000806000806000600080516020612a338339815191526001600160a01b031663bf92857c306040518263ffffffff1660e01b815260040180826001600160a01b0316815260200191505060c06040518083038186803b158015611f1757600080fd5b505afa158015611f2b573d6000803e3d6000fd5b505050506040513d60c0811015611f4157600080fd5b508051602082015160408301516060840151608085015160a090950151939a50919850965094509092509050858580611f8657600019985050505050505050506106de565b6000611fb0611fa9670de0b6b3a76400006109478981612710610941858a6124ec565b84906127e1565b90506000611fd5670de0b6b3a76400006109476064610947605f610941611d92610ae9565b9a505050505050505050505090565b3390565b6001600160a01b03831661202d5760405162461bcd60e51b8152600401808060200182810382526024815260200180612a0f6024913960400191505060405180910390fd5b6001600160a01b0382166120725760405162461bcd60e51b81526004018080602001828103825260228152602001806128f46022913960400191505060405180910390fd5b6001600160a01b03808416600081815260016020908152604080832094871680845294825291829020859055815185815291517f8c5be1e5ebec7d5bd14f71427d1e84f3dd0314c0f7b2291e5b200ac8c7c3b9259281900390910190a3505050565b6001600160a01b0383166121195760405162461bcd60e51b81526004018080602001828103825260258152602001806129ea6025913960400191505060405180910390fd5b6001600160a01b03821661215e5760405162461bcd60e51b81526004018080602001828103825260238152602001806128896023913960400191505060405180910390fd5b61216983838361132b565b6121a681604051806060016040528060268152602001612916602691396001600160a01b038616600090815260208190526040902054919061222f565b6001600160a01b0380851660009081526020819052604080822093909355908416815220546121d5908261258e565b6001600160a01b038084166000818152602081815260409182902094909455805185815290519193928716927fddf252ad1be2c89b69c2b068fc378daa952ba7f163c4a11628f55a4df523b3ef92918290030190a3505050565b600081848411156122be5760405162461bcd60e51b81526004018080602001828103825283818151815260200191508051906020019080838360005b8381101561228357818101518382015260200161226b565b50505050905090810190601f1680156122b05780820380516001836020036101000a031916815260200191505b509250505060405180910390fd5b505050900390565b6001600160a01b03821661230b5760405162461bcd60e51b81526004018080602001828103825260218152602001806129a56021913960400191505060405180910390fd5b6123178260008361132b565b612354816040518060600160405280602281526020016128ac602291396001600160a01b038516600090815260208190526040902054919061222f565b6001600160a01b03831660009081526020819052604090205560025461237a90826127e1565b6002556040805182815290516000916001600160a01b038516917fddf252ad1be2c89b69c2b068fc378daa952ba7f163c4a11628f55a4df523b3ef9181900360200190a35050565b6123ca611bb2565b8111156124085760405162461bcd60e51b81526004018080602001828103825260248152602001806129c66024913960400191505060405180910390fd5b60006124126119d8565b9050600061241e611eb1565b90505b828210801561243257506000198114155b1561245957612440816125e8565b6124486119d8565b9150612452611eb1565b9050612421565b60408051631a4ca37b60e21b8152600080516020612a78833981519152600482015260001960248201523060448201529051600080516020612a33833981519152916369328dec9160648083019260209291908290030181600087803b1580156124c257600080fd5b505af11580156124d6573d6000803e3d6000fd5b505050506040513d6020811015611ca057600080fd5b6000826124fb575060006106f9565b8282028284828161250857fe5b04146125455760405162461bcd60e51b815260040180806020018281038252602181526020018061293c6021913960400191505060405180910390fd5b9392505050565b600061254583836040518060400160405280601a81526020017f536166654d6174683a206469766973696f6e206279207a65726f000000000000815250612823565b600082820183811015612545576040805162461bcd60e51b815260206004820152601b60248201527f536166654d6174683a206164646974696f6e206f766572666c6f770000000000604482015290519081900360640190fd5b8015610e8d5760408051631a4ca37b60e21b8152600080516020612a788339815191526004820152602481018390523060448201529051600080516020612a33833981519152916369328dec9160648083019260209291908290030181600087803b15801561265657600080fd5b505af115801561266a573d6000803e3d6000fd5b505050506040513d602081101561268057600080fd5b50506040805163573ade8160e01b8152600080516020612a78833981519152600482015260248101839052600260448201523060648201529051600080516020612a338339815191529163573ade819160848083019260209291908290030181600087803b15801561130157600080fd5b6001600160a01b03821661274c576040805162461bcd60e51b815260206004820152601f60248201527f45524332303a206d696e7420746f20746865207a65726f206164647265737300604482015290519081900360640190fd5b6127586000838361132b565b600254612765908261258e565b6002556001600160a01b03821660009081526020819052604090205461278b908261258e565b6001600160a01b0383166000818152602081815260408083209490945583518581529351929391927fddf252ad1be2c89b69c2b068fc378daa952ba7f163c4a11628f55a4df523b3ef9281900390910190a35050565b600061254583836040518060400160405280601e81526020017f536166654d6174683a207375627472616374696f6e206f766572666c6f77000081525061222f565b600081836128725760405162461bcd60e51b815260206004820181815283516024840152835190928392604490910191908501908083836000831561228357818101518382015260200161226b565b50600083858161287e57fe5b049594505050505056fe45524332303a207472616e7366657220746f20746865207a65726f206164647265737345524332303a206275726e20616d6f756e7420657863656564732062616c616e63654f776e61626c653a206e6577206f776e657220697320746865207a65726f206164647265737345524332303a20617070726f766520746f20746865207a65726f206164647265737345524332303a207472616e7366657220616d6f756e7420657863656564732062616c616e6365536166654d6174683a206d756c7469706c69636174696f6e206f766572666c6f7745524332303a207472616e7366657220616d6f756e74206578636565647320616c6c6f77616e63654f776e61626c653a2063616c6c6572206973206e6f7420746865206f776e657245524332303a206275726e2066726f6d20746865207a65726f206164647265737343616e6e6f74207769746864726177206d6f7265207468616e20746f74616c56616c756545524332303a207472616e736665722066726f6d20746865207a65726f206164647265737345524332303a20617070726f76652066726f6d20746865207a65726f20616464726573730000000000000000000000008dff5e27ea6b7ac08ebfdf9eb090f32ee9a30fcf45524332303a2064656372656173656420616c6c6f77616e63652062656c6f77207a65726f0000000000000000000000000d500b1d8e8ef31e21c99d1db9a6444d3adf1270a2646970667358221220e2d1ec8360a4d2aaf38c0ecae2ea7e5cb4d5fdc55e734c16052de1f835116d5464736f6c63430007050033",
  "devdoc": {
    "kind": "dev",
    "methods": {
      "allowance(address,address)": {
        "details": "returns the allowance of spender on the tokens owned by owner",
        "params": {
          "owner": "the owner of the tokens",
          "spender": "the user allowed to spend the owner's tokens"
        },
        "returns": {
          "_0": "the amount of owner's tokens spender is allowed to spend*"
        }
      },
      "approve(address,uint256)": {
        "details": "allows spender to spend the tokens owned by msg.sender",
        "params": {
          "spender": "the user allowed to spend msg.sender tokens"
        },
        "returns": {
          "_0": "true*"
        }
      },
      "balanceOf(address)": {
        "returns": {
          "_0": "the balance of the token*"
        }
      },
      "decimals()": {
        "returns": {
          "_0": "the decimals of the token*"
        }
      },
      "decreaseAllowance(address,uint256)": {
        "details": "decreases the allowance of spender to spend msg.sender tokens",
        "params": {
          "spender": "the user allowed to spend on behalf of msg.sender",
          "subtractedValue": "the amount being subtracted to the allowance"
        },
        "returns": {
          "_0": "true*"
        }
      },
      "increaseAllowance(address,uint256)": {
        "details": "increases the allowance of spender to spend msg.sender tokens",
        "params": {
          "addedValue": "the amount being added to the allowance",
          "spender": "the user allowed to spend on behalf of msg.sender"
        },
        "returns": {
          "_0": "true*"
        }
      },
      "name()": {
        "returns": {
          "_0": "the name of the token*"
        }
      },
      "owner()": {
        "details": "Returns the address of the current owner."
      },
      "renounceOwnership()": {
        "details": "Leaves the contract without owner. It will not be possible to call `onlyOwner` functions anymore. Can only be called by the current owner. NOTE: Renouncing ownership will leave the contract without an owner, thereby removing any functionality that is only available to the owner."
      },
      "symbol()": {
        "returns": {
          "_0": "the symbol of the token*"
        }
      },
      "totalSupply()": {
        "returns": {
          "_0": "the total supply of the token*"
        }
      },
      "transfer(address,uint256)": {
        "details": "executes a transfer of tokens from msg.sender to recipient",
        "params": {
          "amount": "the amount of tokens being transferred",
          "recipient": "the recipient of the tokens"
        },
        "returns": {
          "_0": "true if the transfer succeeds, false otherwise*"
        }
      },
      "transferFrom(address,address,uint256)": {
        "details": "executes a transfer of token from sender to recipient, if msg.sender is allowed to do so",
        "params": {
          "amount": "the amount of tokens being transferred",
          "recipient": "the recipient of the tokens",
          "sender": "the owner of the tokens"
        },
        "returns": {
          "_0": "true if the transfer succeeds, false otherwise*"
        }
      },
      "transferOwnership(address)": {
        "details": "Transfers ownership of the contract to a new account (`newOwner`). Can only be called by the current owner."
      }
    },
    "version": 1
  },
  "userdoc": {
    "kind": "user",
    "methods": {
      "withdrawFromAAVE(uint256)": {
        "notice": "Basic AAVE Methods "
      }
    },
    "version": 1
  },
  "storageLayout": {
    "storage": [
      {
        "astId": 3868,
        "contract": "contracts/Myield.sol:Myield",
        "label": "_balances",
        "offset": 0,
        "slot": "0",
        "type": "t_mapping(t_address,t_uint256)"
      },
      {
        "astId": 3874,
        "contract": "contracts/Myield.sol:Myield",
        "label": "_allowances",
        "offset": 0,
        "slot": "1",
        "type": "t_mapping(t_address,t_mapping(t_address,t_uint256))"
      },
      {
        "astId": 3876,
        "contract": "contracts/Myield.sol:Myield",
        "label": "_totalSupply",
        "offset": 0,
        "slot": "2",
        "type": "t_uint256"
      },
      {
        "astId": 3878,
        "contract": "contracts/Myield.sol:Myield",
        "label": "_name",
        "offset": 0,
        "slot": "3",
        "type": "t_string_storage"
      },
      {
        "astId": 3880,
        "contract": "contracts/Myield.sol:Myield",
        "label": "_symbol",
        "offset": 0,
        "slot": "4",
        "type": "t_string_storage"
      },
      {
        "astId": 3882,
        "contract": "contracts/Myield.sol:Myield",
        "label": "_decimals",
        "offset": 0,
        "slot": "5",
        "type": "t_uint8"
      },
      {
        "astId": 4799,
        "contract": "contracts/Myield.sol:Myield",
        "label": "_owner",
        "offset": 1,
        "slot": "5",
        "type": "t_address"
      }
    ],
    "types": {
      "t_address": {
        "encoding": "inplace",
        "label": "address",
        "numberOfBytes": "20"
      },
      "t_mapping(t_address,t_mapping(t_address,t_uint256))": {
        "encoding": "mapping",
        "key": "t_address",
        "label": "mapping(address => mapping(address => uint256))",
        "numberOfBytes": "32",
        "value": "t_mapping(t_address,t_uint256)"
      },
      "t_mapping(t_address,t_uint256)": {
        "encoding": "mapping",
        "key": "t_address",
        "label": "mapping(address => uint256)",
        "numberOfBytes": "32",
        "value": "t_uint256"
      },
      "t_string_storage": {
        "encoding": "bytes",
        "label": "string",
        "numberOfBytes": "32"
      },
      "t_uint256": {
        "encoding": "inplace",
        "label": "uint256",
        "numberOfBytes": "32"
      },
      "t_uint8": {
        "encoding": "inplace",
        "label": "uint8",
        "numberOfBytes": "1"
      }
    }
  }
}